{"abi":[{"type":"constructor","inputs":[{"name":"target","type":"uint256","internalType":"uint256"},{"name":"feeRecipient","type":"address","internalType":"address"},{"name":"feePercent","type":"uint256","internalType":"uint256"},{"name":"router","type":"address","internalType":"address"}],"stateMutability":"nonpayable"},{"type":"function","name":"admin","inputs":[],"outputs":[{"name":"","type":"address","internalType":"address"}],"stateMutability":"view"},{"type":"function","name":"buyToken","inputs":[{"name":"token","type":"address","internalType":"address"},{"name":"amount","type":"uint256","internalType":"uint256"}],"outputs":[],"stateMutability":"payable"},{"type":"function","name":"getBuyPrice","inputs":[{"name":"_token","type":"address","internalType":"address"},{"name":"amount","type":"uint256","internalType":"uint256"}],"outputs":[{"name":"","type":"uint256","internalType":"uint256"}],"stateMutability":"view"},{"type":"function","name":"getBuyPriceAfterFee","inputs":[{"name":"_token","type":"address","internalType":"address"},{"name":"amount","type":"uint256","internalType":"uint256"}],"outputs":[{"name":"","type":"uint256","internalType":"uint256"}],"stateMutability":"view"},{"type":"function","name":"getPrice","inputs":[{"name":"supply","type":"uint256","internalType":"uint256"},{"name":"amount","type":"uint256","internalType":"uint256"}],"outputs":[{"name":"","type":"uint256","internalType":"uint256"}],"stateMutability":"view"},{"type":"function","name":"getSellPrice","inputs":[{"name":"_token","type":"address","internalType":"address"},{"name":"amount","type":"uint256","internalType":"uint256"}],"outputs":[{"name":"","type":"uint256","internalType":"uint256"}],"stateMutability":"view"},{"type":"function","name":"getSellPriceAfterFee","inputs":[{"name":"_token","type":"address","internalType":"address"},{"name":"amount","type":"uint256","internalType":"uint256"}],"outputs":[{"name":"","type":"uint256","internalType":"uint256"}],"stateMutability":"view"},{"type":"function","name":"isLiquidityAdded","inputs":[{"name":"","type":"address","internalType":"address"}],"outputs":[{"name":"","type":"bool","internalType":"bool"}],"stateMutability":"view"},{"type":"function","name":"launchToken","inputs":[{"name":"param","type":"tuple","internalType":"struct TokenLaunchParam","components":[{"name":"name","type":"string","internalType":"string"},{"name":"symbol","type":"string","internalType":"string"},{"name":"description","type":"string","internalType":"string"},{"name":"image","type":"string","internalType":"string"},{"name":"twitterLink","type":"string","internalType":"string"},{"name":"telegramLink","type":"string","internalType":"string"},{"name":"website","type":"string","internalType":"string"}]}],"outputs":[],"stateMutability":"nonpayable"},{"type":"function","name":"migrateLiqiudity","inputs":[{"name":"_token","type":"address","internalType":"address"}],"outputs":[],"stateMutability":"nonpayable"},{"type":"function","name":"protocolFeePercent","inputs":[],"outputs":[{"name":"","type":"uint256","internalType":"uint256"}],"stateMutability":"view"},{"type":"function","name":"protocolFeeRecipient","inputs":[],"outputs":[{"name":"","type":"address","internalType":"address payable"}],"stateMutability":"view"},{"type":"function","name":"reserveTarget","inputs":[],"outputs":[{"name":"","type":"uint256","internalType":"uint256"}],"stateMutability":"view"},{"type":"function","name":"sellToken","inputs":[{"name":"_token","type":"address","internalType":"address"},{"name":"amountIn","type":"uint256","internalType":"uint256"},{"name":"amountOutMin","type":"uint256","internalType":"uint256"}],"outputs":[],"stateMutability":"nonpayable"},{"type":"function","name":"swapRouter","inputs":[],"outputs":[{"name":"","type":"address","internalType":"contract IUniswapV2Router01"}],"stateMutability":"view"},{"type":"function","name":"tokenReserve","inputs":[{"name":"","type":"address","internalType":"address"}],"outputs":[{"name":"","type":"uint256","internalType":"uint256"}],"stateMutability":"view"},{"type":"event","name":"MigrateLiquidity","inputs":[{"name":"token","type":"address","indexed":true,"internalType":"address"},{"name":"ethAmount","type":"uint256","indexed":false,"internalType":"uint256"},{"name":"tokenAmount","type":"uint256","indexed":false,"internalType":"uint256"},{"name":"timestamp","type":"uint256","indexed":false,"internalType":"uint256"}],"anonymous":false},{"type":"event","name":"TokenLaunch","inputs":[{"name":"launcher","type":"address","indexed":true,"internalType":"address"},{"name":"token","type":"address","indexed":false,"internalType":"address"},{"name":"name","type":"string","indexed":false,"internalType":"string"},{"name":"symbol","type":"string","indexed":false,"internalType":"string"},{"name":"description","type":"string","indexed":false,"internalType":"string"},{"name":"image","type":"string","indexed":false,"internalType":"string"},{"name":"twitterLink","type":"string","indexed":false,"internalType":"string"},{"name":"telegramLink","type":"string","indexed":false,"internalType":"string"},{"name":"website","type":"string","indexed":false,"internalType":"string"},{"name":"timestamp","type":"uint256","indexed":false,"internalType":"uint256"}],"anonymous":false},{"type":"event","name":"Trade","inputs":[{"name":"trader","type":"address","indexed":true,"internalType":"address"},{"name":"token","type":"address","indexed":true,"internalType":"address"},{"name":"amountIn","type":"uint256","indexed":false,"internalType":"uint256"},{"name":"amountOut","type":"uint256","indexed":false,"internalType":"uint256"},{"name":"fee","type":"uint256","indexed":false,"internalType":"uint256"},{"name":"timestamp","type":"uint256","indexed":false,"internalType":"uint256"},{"name":"isBuy","type":"bool","indexed":false,"internalType":"bool"}],"anonymous":false}],"bytecode":{"object":"0x6080604052348015600f57600080fd5b50604051612bb3380380612bb3833981016040819052602c91608c565b60008054336001600160a01b0319918216179091556004949094556001805485166001600160a01b0394851617905560039190915560028054909316911617905560cd565b80516001600160a01b0381168114608757600080fd5b919050565b6000806000806080858703121560a157600080fd5b8451935060af602086016071565b92506040850151915060c2606086016071565b905092959194509250565b612ad7806100dc6000396000f3fe6080604052600436106100f35760003560e01c806364df049e1161008a578063c961304a11610059578063c961304a1461029b578063d6e6eb9f146102db578063f851a440146102f1578063fa1c492e1461031157600080fd5b806364df049e1461021057806368f8fc10146102485780639ae717811461025b578063c31c9c071461027b57600080fd5b8063446c7222116100c6578063446c7222146101835780634635256e146101a357806354d39008146101c35780635cf4ee91146101f057600080fd5b80630f026f6d146100f85780632267a89c1461012b57806331ae50bc1461014b5780633e11741f14610161575b600080fd5b34801561010457600080fd5b50610118610113366004611883565b610331565b6040519081526020015b60405180910390f35b34801561013757600080fd5b50610118610146366004611883565b610374565b34801561015757600080fd5b5061011860045481565b34801561016d57600080fd5b5061018161017c3660046118af565b6103ac565b005b34801561018f57600080fd5b5061018161019e3660046118e4565b6108dd565b3480156101af57600080fd5b506101186101be366004611883565b610c60565b3480156101cf57600080fd5b506101186101de3660046118e4565b60056020526000908152604090205481565b3480156101fc57600080fd5b5061011861020b366004611901565b610cd4565b34801561021c57600080fd5b50600154610230906001600160a01b031681565b6040516001600160a01b039091168152602001610122565b610181610256366004611883565b610e0d565b34801561026757600080fd5b50610118610276366004611883565b611162565b34801561028757600080fd5b50600254610230906001600160a01b031681565b3480156102a757600080fd5b506102cb6102b63660046118e4565b60066020526000908152604090205460ff1681565b6040519015158152602001610122565b3480156102e757600080fd5b5061011860035481565b3480156102fd57600080fd5b50600054610230906001600160a01b031681565b34801561031d57600080fd5b5061018161032c366004611a03565b6111d4565b60008061033e8484610c60565b90506000612710600354836103539190611b5e565b61035d9190611b75565b90506103698183611b97565b925050505b92915050565b6000806103818484611162565b90506000612710600354836103969190611b5e565b6103a09190611b75565b90506103698183611baa565b816000036103f25760405162461bcd60e51b815260206004820152600e60248201526d1a5b9d985b1a5908185b5bdd5b9d60921b60448201526064015b60405180910390fd5b6001600160a01b0383166000908152600660205260408120548190859060ff1615610577576040516323b872dd60e01b8152336004820152306024820152604481018690526000906001600160a01b038316906323b872dd906064016020604051808303816000875af115801561046d573d6000803e3d6000fd5b505050506040513d601f19601f820116820180604052508101906104919190611bbd565b60025460405163095ea7b360e01b81526001600160a01b039182166004820152602481018990529192506000919084169063095ea7b3906044016020604051808303816000875af11580156104ea573d6000803e3d6000fd5b505050506040513d601f19601f8201168201806040525081019061050e9190611bbd565b905081801561051a5750805b61055e5760405162461bcd60e51b81526020600482015260156024820152746661696c656420746f206d6f766520746f6b656e7360581b60448201526064016103e9565b61056a888888336112b4565b909550935061087a915050565b6000816001600160a01b03166318160ddd6040518163ffffffff1660e01b8152600401602060405180830381865afa1580156105b7573d6000803e3d6000fd5b505050506040513d601f19601f820116820180604052508101906105db9190611bdf565b6040516370a0823160e01b815233600482015290915086906001600160a01b038416906370a0823190602401602060405180830381865afa158015610624573d6000803e3d6000fd5b505050506040513d601f19601f820116820180604052508101906106489190611bdf565b10156106a25760405162461bcd60e51b815260206004820152602360248201527f696e73756666696369656e742062616c616e636520746f20636f76657220747260448201526261646560e81b60648201526084016103e9565b60006106b76106b18884611baa565b88610cd4565b90506000612710600354836106cc9190611b5e565b6106d69190611b75565b6001600160a01b038a16600090815260056020526040812080549293508492909190610703908490611baa565b909155505060405163079cc67960e41b8152336004820152602481018990526001600160a01b038516906379cc679090604401600060405180830381600087803b15801561075057600080fd5b505af1158015610764573d6000803e3d6000fd5b506000925033915061077890508385611baa565b604051600081818185875af1925050503d80600081146107b4576040519150601f19603f3d011682016040523d82523d6000602084013e6107b9565b606091505b50506001546040519192506000916001600160a01b039091169084908381818185875af1925050503d806000811461080d576040519150601f19603f3d011682016040523d82523d6000602084013e610812565b606091505b505090508180156108205750805b6108635760405162461bcd60e51b8152602060048201526014602482015273556e61626c6520746f2073656e642066756e647360601b60448201526064016103e9565b82975087846108729190611baa565b965050505050505b6040805186815260208101849052908101849052426060820152600060808201526001600160a01b0387169033907f3893b12ea2017f00ca6b320ece400190bef0f01352a842b563729af4b14e8f369060a00160405180910390a3505050505050565b6000546001600160a01b031633146109275760405162461bcd60e51b815260206004820152600d60248201526c139bdd081c195c9b5a5d1d1959609a1b60448201526064016103e9565b6004546001600160a01b03821660009081526005602052604090205410156109915760405162461bcd60e51b815260206004820152601a60248201527f7265736572766520746172676574206e6f74207265616368656400000000000060448201526064016103e9565b6001600160a01b03811660008181526005602090815260408083205481516318160ddd60e01b81529151869591949391926318160ddd9260048083019391928290030181865afa1580156109e9573d6000803e3d6000fd5b505050506040513d601f19601f82011682018060405250810190610a0d9190611bdf565b6040516308934a5f60e31b8152306004820152602481018290529091506001600160a01b0384169063449a52f890604401600060405180830381600087803b158015610a5857600080fd5b505af1158015610a6c573d6000803e3d6000fd5b505060025460405163095ea7b360e01b81526001600160a01b0391821660048201526024810185905260009350908616915063095ea7b3906044016020604051808303816000875af1158015610ac6573d6000803e3d6000fd5b505050506040513d601f19601f82011682018060405250810190610aea9190611bbd565b905080610b315760405162461bcd60e51b81526020600482015260156024820152741d1bdad95b88185c1c1c9bdd985b0819985a5b1959605a1b60448201526064016103e9565b6002546001600160a01b031663f305d71984878580836000610b5442603c611b97565b60405160e089901b6001600160e01b03191681526001600160a01b039687166004820152602481019590955260448501939093526064840191909152909216608482015260a481019190915260c40160606040518083038185885af1158015610bc1573d6000803e3d6000fd5b50505050506040513d601f19601f82011682018060405250810190610be69190611bf8565b5050506001600160a01b03851660008181526006602052604090819020805460ff19166001179055517f6a63e931e5aaaba2b161966b7413f19427e4878d3dc53a46c97519671cf1438690610c51908690869042909283526020830191909152604082015260600190565b60405180910390a25050505050565b6000610ccd836001600160a01b03166318160ddd6040518163ffffffff1660e01b8152600401602060405180830381865afa158015610ca3573d6000803e3d6000fd5b505050506040513d601f19601f82011682018060405250810190610cc79190611bdf565b83610cd4565b9392505050565b600080610ce9670de0b6b3a764000085611b75565b90506000610cff670de0b6b3a764000085611b75565b905060008215610d5b576006610d16600185611baa565b610d21906002611b5e565b610d2c906001611b97565b84610d38600182611baa565b610d429190611b5e565b610d4c9190611b5e565b610d569190611b75565b610d5e565b60005b9050600060066001610d708587611b97565b610d7a9190611baa565b610d85906002611b5e565b610d90906001611b97565b610d9a8587611b97565b6001610da68789611b97565b610db09190611baa565b610dba9190611b5e565b610dc49190611b5e565b610dce9190611b75565b90506000610ddc8383611baa565b90506508bb2c970000610df782670de0b6b3a7640000611b5e565b610e019190611b75565b98975050505050505050565b80600003610e4e5760405162461bcd60e51b815260206004820152600e60248201526d1a5b9d985b1a5908185b5bdd5b9d60921b60448201526064016103e9565b6001600160a01b038216600090815260066020526040812054819060ff1615610e8757610e7d84348533611582565b9092509050611101565b6004546001600160a01b03851660009081526005602052604090205410610ee75760405162461bcd60e51b815260206004820152601460248201527318dd5c9d99481d185c99d95d081c995858da195960621b60448201526064016103e9565b6000846001600160a01b03166318160ddd6040518163ffffffff1660e01b8152600401602060405180830381865afa158015610f27573d6000803e3d6000fd5b505050506040513d601f19601f82011682018060405250810190610f4b9190611bdf565b90506000610f598286610cd4565b905061271060035482610f6c9190611b5e565b610f769190611b75565b9350849250610f858482611b97565b341015610fd45760405162461bcd60e51b815260206004820152601e60248201527f496e73756666696369656e74207061796d656e7420666f72207472616465000060448201526064016103e9565b6001546040516000916001600160a01b03169086908381818185875af1925050503d8060008114611021576040519150601f19603f3d011682016040523d82523d6000602084013e611026565b606091505b50509050806110705760405162461bcd60e51b8152602060048201526016602482015275756e61626c6520746f207472616e736665722066656560501b60448201526064016103e9565b6001600160a01b03871660009081526005602052604081208054849290611098908490611b97565b90915550506040516308934a5f60e31b8152336004820152602481018790526001600160a01b0388169063449a52f890604401600060405180830381600087803b1580156110e557600080fd5b505af11580156110f9573d6000803e3d6000fd5b505050505050505b6040805134815260208101859052908101839052426060820152600160808201526001600160a01b0385169033907f3893b12ea2017f00ca6b320ece400190bef0f01352a842b563729af4b14e8f369060a00160405180910390a350505050565b6000610ccd82846001600160a01b03166318160ddd6040518163ffffffff1660e01b8152600401602060405180830381865afa1580156111a6573d6000803e3d6000fd5b505050506040513d601f19601f820116820180604052508101906111ca9190611bdf565b610cc79190611baa565b600081600001518260200151306040516111ed9061185e565b6111f993929190611c6c565b604051809103906000f080158015611215573d6000803e3d6000fd5b509050600060056000836001600160a01b03166001600160a01b0316815260200190815260200160002081905550336001600160a01b03167f4c3449617a987f0d9b9e9b06cc25e185a3bf4ee8d294d61d2e310a9a0ec498b082846000015185602001518660400151876060015188608001518960a001518a60c00151426040516112a899989796959493929190611caa565b60405180910390a25050565b60408051600280825260608201835260009283928392909160208301908036833701905050905086816000815181106112ef576112ef611d5f565b6001600160a01b03928316602091820292909201810191909152600254604080516315ab88c960e31b81529051919093169263ad5c46489260048083019391928290030181865afa158015611348573d6000803e3d6000fd5b505050506040513d601f19601f8201168201806040525081019061136c9190611d75565b8160018151811061137f5761137f611d5f565b6001600160a01b039283166020918202929092010152600254600091166318cbafe5888885306113b042603c611b97565b6040518663ffffffff1660e01b81526004016113d0959493929190611dd7565b6000604051808303816000875af11580156113ef573d6000803e3d6000fd5b505050506040513d6000823e601f3d908101601f191682016040526114179190810190611e13565b90506000816001835161142a9190611baa565b8151811061143a5761143a611d5f565b602002602001015190506000612710600354836114579190611b5e565b6114619190611b75565b905060006001600160a01b0388166114798385611baa565b604051600081818185875af1925050503d80600081146114b5576040519150601f19603f3d011682016040523d82523d6000602084013e6114ba565b606091505b50506001546040519192506000916001600160a01b039091169084908381818185875af1925050503d806000811461150e576040519150601f19603f3d011682016040523d82523d6000602084013e611513565b606091505b505090508180156115215750805b6115645760405162461bcd60e51b8152602060048201526014602482015273756e61626c6520746f2073656e642066756e647360601b60448201526064016103e9565b8261156f8186611baa565b9750975050505050505094509492505050565b600080843410156115e05760405162461bcd60e51b815260206004820152602260248201527f696e73756666696369656e74206574682070726f766964656420666f72207377604482015261061760f41b60648201526084016103e9565b6000612710600354876115f39190611b5e565b6115fd9190611b75565b60408051600280825260608201835292935060009290916020830190803683375050600254604080516315ab88c960e31b815290519394506001600160a01b039091169263ad5c4648925060048083019260209291908290030181865afa15801561166c573d6000803e3d6000fd5b505050506040513d601f19601f820116820180604052508101906116909190611d75565b816000815181106116a3576116a3611d5f565b60200260200101906001600160a01b031690816001600160a01b03168152505087816001815181106116d7576116d7611d5f565b6001600160a01b03928316602091820292909201015260025460009116637ff36ab5611703858b611baa565b89858a61171142603c611b97565b6040518663ffffffff1660e01b81526004016117309493929190611ead565b60006040518083038185885af115801561174e573d6000803e3d6000fd5b50505050506040513d6000823e601f3d908101601f191682016040526117779190810190611e13565b90506000816001835161178a9190611baa565b8151811061179a5761179a611d5f565b60209081029190910101516001546040519192506000916001600160a01b039091169086908381818185875af1925050503d80600081146117f7576040519150601f19603f3d011682016040523d82523d6000602084013e6117fc565b606091505b505090508061184d5760405162461bcd60e51b815260206004820152601b60248201527f556e61626c6520746f2073656e642070726f746f636f6c20666565000000000060448201526064016103e9565b509299929850919650505050505050565b610bbf80611ee383390190565b6001600160a01b038116811461188057600080fd5b50565b6000806040838503121561189657600080fd5b82356118a18161186b565b946020939093013593505050565b6000806000606084860312156118c457600080fd5b83356118cf8161186b565b95602085013595506040909401359392505050565b6000602082840312156118f657600080fd5b8135610ccd8161186b565b6000806040838503121561191457600080fd5b50508035926020909101359150565b634e487b7160e01b600052604160045260246000fd5b60405160e0810167ffffffffffffffff8111828210171561195c5761195c611923565b60405290565b604051601f8201601f1916810167ffffffffffffffff8111828210171561198b5761198b611923565b604052919050565b600082601f8301126119a457600080fd5b813567ffffffffffffffff8111156119be576119be611923565b6119d1601f8201601f1916602001611962565b8181528460208386010111156119e657600080fd5b816020850160208301376000918101602001919091529392505050565b600060208284031215611a1557600080fd5b813567ffffffffffffffff80821115611a2d57600080fd5b9083019060e08286031215611a4157600080fd5b611a49611939565b823582811115611a5857600080fd5b611a6487828601611993565b825250602083013582811115611a7957600080fd5b611a8587828601611993565b602083015250604083013582811115611a9d57600080fd5b611aa987828601611993565b604083015250606083013582811115611ac157600080fd5b611acd87828601611993565b606083015250608083013582811115611ae557600080fd5b611af187828601611993565b60808301525060a083013582811115611b0957600080fd5b611b1587828601611993565b60a08301525060c083013582811115611b2d57600080fd5b611b3987828601611993565b60c08301525095945050505050565b634e487b7160e01b600052601160045260246000fd5b808202811582820484141761036e5761036e611b48565b600082611b9257634e487b7160e01b600052601260045260246000fd5b500490565b8082018082111561036e5761036e611b48565b8181038181111561036e5761036e611b48565b600060208284031215611bcf57600080fd5b81518015158114610ccd57600080fd5b600060208284031215611bf157600080fd5b5051919050565b600080600060608486031215611c0d57600080fd5b8351925060208401519150604084015190509250925092565b6000815180845260005b81811015611c4c57602081850181015186830182015201611c30565b506000602082860101526020601f19601f83011685010191505092915050565b606081526000611c7f6060830186611c26565b8281036020840152611c918186611c26565b91505060018060a01b0383166040830152949350505050565b6001600160a01b038a16815261012060208201819052600090611ccf8382018c611c26565b90508281036040840152611ce3818b611c26565b90508281036060840152611cf7818a611c26565b90508281036080840152611d0b8189611c26565b905082810360a0840152611d1f8188611c26565b905082810360c0840152611d338187611c26565b905082810360e0840152611d478186611c26565b915050826101008301529a9950505050505050505050565b634e487b7160e01b600052603260045260246000fd5b600060208284031215611d8757600080fd5b8151610ccd8161186b565b60008151808452602080850194506020840160005b83811015611dcc5781516001600160a01b031687529582019590820190600101611da7565b509495945050505050565b85815284602082015260a060408201526000611df660a0830186611d92565b6001600160a01b0394909416606083015250608001529392505050565b60006020808385031215611e2657600080fd5b825167ffffffffffffffff80821115611e3e57600080fd5b818501915085601f830112611e5257600080fd5b815181811115611e6457611e64611923565b8060051b9150611e75848301611962565b8181529183018401918481019088841115611e8f57600080fd5b938501935b83851015610e0157845182529385019390850190611e94565b848152608060208201526000611ec66080830186611d92565b6001600160a01b0394909416604083015250606001529291505056fe608060405234801561001057600080fd5b50604051610bbf380380610bbf83398101604081905261002f91610134565b8282600361003d8382610244565b50600461004a8282610244565b5050600580546001600160a01b0319166001600160a01b03939093169290921790915550610303915050565b634e487b7160e01b600052604160045260246000fd5b600082601f83011261009d57600080fd5b81516001600160401b03808211156100b7576100b7610076565b604051601f8301601f19908116603f011681019082821181831017156100df576100df610076565b81604052838152602092508660208588010111156100fc57600080fd5b600091505b8382101561011e5785820183015181830184015290820190610101565b6000602085830101528094505050505092915050565b60008060006060848603121561014957600080fd5b83516001600160401b038082111561016057600080fd5b61016c8783880161008c565b9450602086015191508082111561018257600080fd5b5061018f8682870161008c565b604086015190935090506001600160a01b03811681146101ae57600080fd5b809150509250925092565b600181811c908216806101cd57607f821691505b6020821081036101ed57634e487b7160e01b600052602260045260246000fd5b50919050565b601f82111561023f576000816000526020600020601f850160051c8101602086101561021c5750805b601f850160051c820191505b8181101561023b57828155600101610228565b5050505b505050565b81516001600160401b0381111561025d5761025d610076565b6102718161026b84546101b9565b846101f3565b602080601f8311600181146102a6576000841561028e5750858301515b600019600386901b1c1916600185901b17855561023b565b600085815260208120601f198616915b828110156102d5578886015182559484019460019091019084016102b6565b50858210156102f35787850151600019600388901b60f8161c191681555b5050505050600190811b01905550565b6108ad806103126000396000f3fe608060405234801561001057600080fd5b50600436106100b45760003560e01c806370a082311161007157806370a08231146101435780637165485d1461016c57806379cc67901461019757806395d89b41146101aa578063a9059cbb146101b2578063dd62ed3e146101c557600080fd5b806306fdde03146100b9578063095ea7b3146100d757806318160ddd146100fa57806323b872dd1461010c578063313ce5671461011f578063449a52f81461012e575b600080fd5b6100c16101fe565b6040516100ce91906106f6565b60405180910390f35b6100ea6100e5366004610761565b610290565b60405190151581526020016100ce565b6002545b6040519081526020016100ce565b6100ea61011a36600461078b565b6102aa565b604051601281526020016100ce565b61014161013c366004610761565b6102ce565b005b6100fe6101513660046107c7565b6001600160a01b031660009081526020819052604090205490565b60055461017f906001600160a01b031681565b6040516001600160a01b0390911681526020016100ce565b6101416101a5366004610761565b61032b565b6100c161037f565b6100ea6101c0366004610761565b61038e565b6100fe6101d33660046107e9565b6001600160a01b03918216600090815260016020908152604080832093909416825291909152205490565b60606003805461020d9061081c565b80601f01602080910402602001604051908101604052809291908181526020018280546102399061081c565b80156102865780601f1061025b57610100808354040283529160200191610286565b820191906000526020600020905b81548152906001019060200180831161026957829003601f168201915b5050505050905090565b60003361029e81858561039c565b60019150505b92915050565b6000336102b88582856103ae565b6102c385858561042c565b506001949350505050565b6005546001600160a01b0316331461031d5760405162461bcd60e51b815260206004820152600d60248201526c1b9bdd081c195c9b5a5d1d1959609a1b60448201526064015b60405180910390fd5b610327828261048b565b5050565b6005546001600160a01b031633146103755760405162461bcd60e51b815260206004820152600d60248201526c1b9bdd081c195c9b5a5d1d1959609a1b6044820152606401610314565b61032782826104c1565b60606004805461020d9061081c565b60003361029e81858561042c565b6103a983838360016104f7565b505050565b6001600160a01b038381166000908152600160209081526040808320938616835292905220546000198114610426578181101561041757604051637dc7a0d960e11b81526001600160a01b03841660048201526024810182905260448101839052606401610314565b610426848484840360006104f7565b50505050565b6001600160a01b03831661045657604051634b637e8f60e11b815260006004820152602401610314565b6001600160a01b0382166104805760405163ec442f0560e01b815260006004820152602401610314565b6103a98383836105cc565b6001600160a01b0382166104b55760405163ec442f0560e01b815260006004820152602401610314565b610327600083836105cc565b6001600160a01b0382166104eb57604051634b637e8f60e11b815260006004820152602401610314565b610327826000836105cc565b6001600160a01b0384166105215760405163e602df0560e01b815260006004820152602401610314565b6001600160a01b03831661054b57604051634a1406b160e11b815260006004820152602401610314565b6001600160a01b038085166000908152600160209081526040808320938716835292905220829055801561042657826001600160a01b0316846001600160a01b03167f8c5be1e5ebec7d5bd14f71427d1e84f3dd0314c0f7b2291e5b200ac8c7c3b925846040516105be91815260200190565b60405180910390a350505050565b6001600160a01b0383166105f75780600260008282546105ec9190610856565b909155506106699050565b6001600160a01b0383166000908152602081905260409020548181101561064a5760405163391434e360e21b81526001600160a01b03851660048201526024810182905260448101839052606401610314565b6001600160a01b03841660009081526020819052604090209082900390555b6001600160a01b038216610685576002805482900390556106a4565b6001600160a01b03821660009081526020819052604090208054820190555b816001600160a01b0316836001600160a01b03167fddf252ad1be2c89b69c2b068fc378daa952ba7f163c4a11628f55a4df523b3ef836040516106e991815260200190565b60405180910390a3505050565b60006020808352835180602085015260005b8181101561072457858101830151858201604001528201610708565b506000604082860101526040601f19601f8301168501019250505092915050565b80356001600160a01b038116811461075c57600080fd5b919050565b6000806040838503121561077457600080fd5b61077d83610745565b946020939093013593505050565b6000806000606084860312156107a057600080fd5b6107a984610745565b92506107b760208501610745565b9150604084013590509250925092565b6000602082840312156107d957600080fd5b6107e282610745565b9392505050565b600080604083850312156107fc57600080fd5b61080583610745565b915061081360208401610745565b90509250929050565b600181811c9082168061083057607f821691505b60208210810361085057634e487b7160e01b600052602260045260246000fd5b50919050565b808201808211156102a457634e487b7160e01b600052601160045260246000fdfea2646970667358221220b416b0f5b27fcfb62ef442b9923ba12a28e9c3c344e38dc38d590383b4357ba064736f6c63430008190033a26469706673582212206d58ff6d719921005f0d5d46aff946961bd856006470950f7e3223beadabd7f664736f6c63430008190033","linkReferences":{}},"methodIdentifiers":{"admin()":"f851a440","buyToken(address,uint256)":"68f8fc10","getBuyPrice(address,uint256)":"4635256e","getBuyPriceAfterFee(address,uint256)":"0f026f6d","getPrice(uint256,uint256)":"5cf4ee91","getSellPrice(address,uint256)":"9ae71781","getSellPriceAfterFee(address,uint256)":"2267a89c","isLiquidityAdded(address)":"c961304a","launchToken((string,string,string,string,string,string,string))":"fa1c492e","migrateLiqiudity(address)":"446c7222","protocolFeePercent()":"d6e6eb9f","protocolFeeRecipient()":"64df049e","reserveTarget()":"31ae50bc","sellToken(address,uint256,uint256)":"3e11741f","swapRouter()":"c31c9c07","tokenReserve(address)":"54d39008"},"id":29}