{"abi":[{"type":"constructor","inputs":[{"name":"target","type":"uint256","internalType":"uint256"},{"name":"feeRecipient","type":"address","internalType":"address"},{"name":"feePercent","type":"uint256","internalType":"uint256"},{"name":"router","type":"address","internalType":"address"}],"stateMutability":"nonpayable"},{"type":"function","name":"buyToken","inputs":[{"name":"token","type":"address","internalType":"address"},{"name":"amount","type":"uint256","internalType":"uint256"}],"outputs":[],"stateMutability":"payable"},{"type":"function","name":"getPrice","inputs":[{"name":"supply","type":"uint256","internalType":"uint256"},{"name":"amount","type":"uint256","internalType":"uint256"}],"outputs":[{"name":"","type":"uint256","internalType":"uint256"}],"stateMutability":"pure"},{"type":"function","name":"isLiquidityAdded","inputs":[{"name":"","type":"address","internalType":"address"}],"outputs":[{"name":"","type":"bool","internalType":"bool"}],"stateMutability":"view"},{"type":"function","name":"launchToken","inputs":[{"name":"param","type":"tuple","internalType":"struct BondingCurveAMM.TokenLaunchParam","components":[{"name":"name","type":"string","internalType":"string"},{"name":"symbol","type":"string","internalType":"string"},{"name":"description","type":"string","internalType":"string"},{"name":"image","type":"string","internalType":"string"},{"name":"twitterLink","type":"string","internalType":"string"},{"name":"telegramLink","type":"string","internalType":"string"},{"name":"website","type":"string","internalType":"string"}]}],"outputs":[],"stateMutability":"nonpayable"},{"type":"function","name":"migrateLiqiudity","inputs":[{"name":"_token","type":"address","internalType":"address"}],"outputs":[],"stateMutability":"nonpayable"},{"type":"function","name":"reserveTarget","inputs":[],"outputs":[{"name":"","type":"uint256","internalType":"uint256"}],"stateMutability":"view"},{"type":"function","name":"sellToken","inputs":[{"name":"token","type":"address","internalType":"address"},{"name":"amount","type":"uint256","internalType":"uint256"}],"outputs":[],"stateMutability":"nonpayable"},{"type":"function","name":"tokenReserve","inputs":[{"name":"","type":"address","internalType":"address"}],"outputs":[{"name":"","type":"uint256","internalType":"uint256"}],"stateMutability":"view"},{"type":"event","name":"MigrateLiquidity","inputs":[{"name":"token","type":"address","indexed":true,"internalType":"address"},{"name":"ethAmount","type":"uint256","indexed":false,"internalType":"uint256"},{"name":"tokenAmount","type":"uint256","indexed":false,"internalType":"uint256"},{"name":"timestamp","type":"uint256","indexed":false,"internalType":"uint256"}],"anonymous":false},{"type":"event","name":"TokenLaunch","inputs":[{"name":"launcher","type":"address","indexed":true,"internalType":"address"},{"name":"token","type":"address","indexed":false,"internalType":"address"},{"name":"name","type":"string","indexed":false,"internalType":"string"},{"name":"symbol","type":"string","indexed":false,"internalType":"string"},{"name":"description","type":"string","indexed":false,"internalType":"string"},{"name":"image","type":"string","indexed":false,"internalType":"string"},{"name":"twitterLink","type":"string","indexed":false,"internalType":"string"},{"name":"telegramLink","type":"string","indexed":false,"internalType":"string"},{"name":"website","type":"string","indexed":false,"internalType":"string"},{"name":"timestamp","type":"uint256","indexed":false,"internalType":"uint256"}],"anonymous":false},{"type":"event","name":"Trade","inputs":[{"name":"trader","type":"address","indexed":true,"internalType":"address"},{"name":"token","type":"address","indexed":true,"internalType":"address"},{"name":"amountIn","type":"uint256","indexed":false,"internalType":"uint256"},{"name":"amountOut","type":"uint256","indexed":false,"internalType":"uint256"},{"name":"fee","type":"uint256","indexed":false,"internalType":"uint256"},{"name":"timestamp","type":"uint256","indexed":false,"internalType":"uint256"},{"name":"isBuy","type":"bool","indexed":false,"internalType":"bool"}],"anonymous":false}],"bytecode":{"object":"0x6080604052348015600f57600080fd5b50604051611e53380380611e53833981016040819052602c91608c565b60008054336001600160a01b0319918216179091556004949094556001805485166001600160a01b0394851617905560039190915560028054909316911617905560cd565b80516001600160a01b0381168114608757600080fd5b919050565b6000806000806080858703121560a157600080fd5b8451935060af602086016071565b92506040850151915060c2606086016071565b905092959194509250565b611d77806100dc6000396000f3fe60806040526004361061007b5760003560e01c806368f8fc101161004e57806368f8fc1014610118578063c961304a1461012b578063f464e7db1461016b578063fa1c492e1461018b57600080fd5b806331ae50bc14610080578063446c7222146100a957806354d39008146100cb5780635cf4ee91146100f8575b600080fd5b34801561008c57600080fd5b5061009660045481565b6040519081526020015b60405180910390f35b3480156100b557600080fd5b506100c96100c4366004610d22565b6101ab565b005b3480156100d757600080fd5b506100966100e6366004610d22565b60056020526000908152604090205481565b34801561010457600080fd5b50610096610113366004610d44565b6104e9565b6100c9610126366004610d66565b61060c565b34801561013757600080fd5b5061015b610146366004610d22565b60066020526000908152604090205460ff1681565b60405190151581526020016100a0565b34801561017757600080fd5b506100c9610186366004610d66565b6108ec565b34801561019757600080fd5b506100c96101a6366004610e5c565b610c44565b6000546001600160a01b031633146101fa5760405162461bcd60e51b815260206004820152600d60248201526c139bdd081c195c9b5a5d1d1959609a1b60448201526064015b60405180910390fd5b6004546001600160a01b03821660009081526005602052604090205410156102645760405162461bcd60e51b815260206004820152601a60248201527f7265736572766520746172676574206e6f74207265616368656400000000000060448201526064016101f1565b6001600160a01b03811660008181526005602090815260408083205481516318160ddd60e01b81529151869591949391926318160ddd9260048083019391928290030181865afa1580156102bc573d6000803e3d6000fd5b505050506040513d601f19601f820116820180604052508101906102e09190610fa1565b6040516308934a5f60e31b8152306004820152602481018290529091506001600160a01b0384169063449a52f890604401600060405180830381600087803b15801561032b57600080fd5b505af115801561033f573d6000803e3d6000fd5b505060025460405163095ea7b360e01b81526001600160a01b03918216600482015260248101859052908616925063095ea7b391506044016020604051808303816000875af1158015610396573d6000803e3d6000fd5b505050506040513d601f19601f820116820180604052508101906103ba9190610fba565b506002546001600160a01b031663f305d719838684808360006103de42603c610ff2565b60405160e089901b6001600160e01b03191681526001600160a01b039687166004820152602481019590955260448501939093526064840191909152909216608482015260a481019190915260c40160606040518083038185885af115801561044b573d6000803e3d6000fd5b50505050506040513d601f19601f820116820180604052508101906104709190611005565b5050506001600160a01b03841660008181526006602052604090819020805460ff19166001179055517f6a63e931e5aaaba2b161966b7413f19427e4878d3dc53a46c97519671cf14386906104db908590859042909283526020830191909152604082015260600190565b60405180910390a250505050565b60008083156105445760066104ff600186611033565b61050a906002611046565b610515906001610ff2565b85610521600182611033565b61052b9190611046565b6105359190611046565b61053f919061105d565b610547565b60005b90506000841580156105595750836001145b6105ce5760068461056b600188611033565b6105759190610ff2565b610580906002611046565b61058b906001610ff2565b6105958688610ff2565b866105a160018a611033565b6105ab9190610ff2565b6105b59190611046565b6105bf9190611046565b6105c9919061105d565b6105d1565b60005b905060006105df8383611033565b9050613e806105f682670de0b6b3a7640000611046565b610600919061105d565b93505050505b92915050565b6004546001600160a01b0383166000908152600560205260409020541061066c5760405162461bcd60e51b815260206004820152601460248201527318dd5c9d99481d185c99d95d081c995858da195960621b60448201526064016101f1565b6000826001600160a01b03166318160ddd6040518163ffffffff1660e01b8152600401602060405180830381865afa1580156106ac573d6000803e3d6000fd5b505050506040513d601f19601f820116820180604052508101906106d09190610fa1565b905060006106de82846104e9565b90506000612710600354836106f39190611046565b6106fd919061105d565b90506107098183610ff2565b3410156107585760405162461bcd60e51b815260206004820152601e60248201527f496e73756666696369656e74207061796d656e7420666f72207472616465000060448201526064016101f1565b6001600160a01b03851660009081526005602052604081208054849290610780908490610ff2565b90915550506001546040516000916001600160a01b03169083908381818185875af1925050503d80600081146107d2576040519150601f19603f3d011682016040523d82523d6000602084013e6107d7565b606091505b50506040516308934a5f60e31b8152336004820152602481018790529091506001600160a01b0387169063449a52f890604401600060405180830381600087803b15801561082457600080fd5b505af1158015610838573d6000803e3d6000fd5b50505050806108895760405162461bcd60e51b815260206004820152601b60248201527f556e61626c6520746f2073656e642070726f746f636f6c20666565000000000060448201526064016101f1565b6040805134815260208101879052908101839052426060820152600160808201526001600160a01b0387169033907f3893b12ea2017f00ca6b320ece400190bef0f01352a842b563729af4b14e8f369060a00160405180910390a3505050505050565b6000826001600160a01b03166318160ddd6040518163ffffffff1660e01b8152600401602060405180830381865afa15801561092c573d6000803e3d6000fd5b505050506040513d601f19601f820116820180604052508101906109509190610fa1565b6040516370a0823160e01b815233600482015290915082906001600160a01b038516906370a0823190602401602060405180830381865afa158015610999573d6000803e3d6000fd5b505050506040513d601f19601f820116820180604052508101906109bd9190610fa1565b1015610a175760405162461bcd60e51b815260206004820152602360248201527f696e73756666696369656e742062616c616e636520746f20636f76657220747260448201526261646560e81b60648201526084016101f1565b6000610a2c610a268484611033565b846104e9565b9050600061271060035483610a419190611046565b610a4b919061105d565b6001600160a01b038616600090815260056020526040812080549293508492909190610a78908490611033565b909155505060405163079cc67960e41b8152336004820152602481018590526001600160a01b038616906379cc679090604401600060405180830381600087803b158015610ac557600080fd5b505af1158015610ad9573d6000803e3d6000fd5b5060009250339150610aed90508385611033565b604051600081818185875af1925050503d8060008114610b29576040519150601f19603f3d011682016040523d82523d6000602084013e610b2e565b606091505b50506001546040519192506000916001600160a01b039091169084908381818185875af1925050503d8060008114610b82576040519150601f19603f3d011682016040523d82523d6000602084013e610b87565b606091505b50509050818015610b955750805b610bd85760405162461bcd60e51b8152602060048201526014602482015273556e61626c6520746f2073656e642066756e647360601b60448201526064016101f1565b6001600160a01b038716337f3893b12ea2017f00ca6b320ece400190bef0f01352a842b563729af4b14e8f3688610c0f8789611033565b60408051928352602083019190915281018790524260608201526000608082015260a00160405180910390a350505050505050565b60008160000151826020015130604051610c5d90610cf9565b610c69939291906110c5565b604051809103906000f080158015610c85573d6000803e3d6000fd5b509050336001600160a01b03167f4c3449617a987f0d9b9e9b06cc25e185a3bf4ee8d294d61d2e310a9a0ec498b082846000015185602001518660400151876060015188608001518960a001518a60c0015142604051610ced99989796959493929190611103565b60405180910390a25050565b610b89806111b983390190565b80356001600160a01b0381168114610d1d57600080fd5b919050565b600060208284031215610d3457600080fd5b610d3d82610d06565b9392505050565b60008060408385031215610d5757600080fd5b50508035926020909101359150565b60008060408385031215610d7957600080fd5b610d8283610d06565b946020939093013593505050565b634e487b7160e01b600052604160045260246000fd5b60405160e0810167ffffffffffffffff81118282101715610dc957610dc9610d90565b60405290565b600082601f830112610de057600080fd5b813567ffffffffffffffff80821115610dfb57610dfb610d90565b604051601f8301601f19908116603f01168101908282118183101715610e2357610e23610d90565b81604052838152866020858801011115610e3c57600080fd5b836020870160208301376000602085830101528094505050505092915050565b600060208284031215610e6e57600080fd5b813567ffffffffffffffff80821115610e8657600080fd5b9083019060e08286031215610e9a57600080fd5b610ea2610da6565b823582811115610eb157600080fd5b610ebd87828601610dcf565b825250602083013582811115610ed257600080fd5b610ede87828601610dcf565b602083015250604083013582811115610ef657600080fd5b610f0287828601610dcf565b604083015250606083013582811115610f1a57600080fd5b610f2687828601610dcf565b606083015250608083013582811115610f3e57600080fd5b610f4a87828601610dcf565b60808301525060a083013582811115610f6257600080fd5b610f6e87828601610dcf565b60a08301525060c083013582811115610f8657600080fd5b610f9287828601610dcf565b60c08301525095945050505050565b600060208284031215610fb357600080fd5b5051919050565b600060208284031215610fcc57600080fd5b81518015158114610d3d57600080fd5b634e487b7160e01b600052601160045260246000fd5b8082018082111561060657610606610fdc565b60008060006060848603121561101a57600080fd5b8351925060208401519150604084015190509250925092565b8181038181111561060657610606610fdc565b808202811582820484141761060657610606610fdc565b60008261107a57634e487b7160e01b600052601260045260246000fd5b500490565b6000815180845260005b818110156110a557602081850181015186830182015201611089565b506000602082860101526020601f19601f83011685010191505092915050565b6060815260006110d8606083018661107f565b82810360208401526110ea818661107f565b91505060018060a01b0383166040830152949350505050565b6001600160a01b038a168152610120602082018190526000906111288382018c61107f565b9050828103604084015261113c818b61107f565b90508281036060840152611150818a61107f565b90508281036080840152611164818961107f565b905082810360a0840152611178818861107f565b905082810360c084015261118c818761107f565b905082810360e08401526111a0818661107f565b915050826101008301529a995050505050505050505056fe608060405234801561001057600080fd5b50604051610b89380380610b8983398101604081905261002f91610134565b8282600361003d8382610244565b50600461004a8282610244565b5050600580546001600160a01b0319166001600160a01b03939093169290921790915550610303915050565b634e487b7160e01b600052604160045260246000fd5b600082601f83011261009d57600080fd5b81516001600160401b03808211156100b7576100b7610076565b604051601f8301601f19908116603f011681019082821181831017156100df576100df610076565b81604052838152602092508660208588010111156100fc57600080fd5b600091505b8382101561011e5785820183015181830184015290820190610101565b6000602085830101528094505050505092915050565b60008060006060848603121561014957600080fd5b83516001600160401b038082111561016057600080fd5b61016c8783880161008c565b9450602086015191508082111561018257600080fd5b5061018f8682870161008c565b604086015190935090506001600160a01b03811681146101ae57600080fd5b809150509250925092565b600181811c908216806101cd57607f821691505b6020821081036101ed57634e487b7160e01b600052602260045260246000fd5b50919050565b601f82111561023f576000816000526020600020601f850160051c8101602086101561021c5750805b601f850160051c820191505b8181101561023b57828155600101610228565b5050505b505050565b81516001600160401b0381111561025d5761025d610076565b6102718161026b84546101b9565b846101f3565b602080601f8311600181146102a6576000841561028e5750858301515b600019600386901b1c1916600185901b17855561023b565b600085815260208120601f198616915b828110156102d5578886015182559484019460019091019084016102b6565b50858210156102f35787850151600019600388901b60f8161c191681555b5050505050600190811b01905550565b610877806103126000396000f3fe608060405234801561001057600080fd5b50600436106100a95760003560e01c8063449a52f811610071578063449a52f81461012357806370a082311461013857806379cc67901461016157806395d89b4114610174578063a9059cbb1461017c578063dd62ed3e1461018f57600080fd5b806306fdde03146100ae578063095ea7b3146100cc57806318160ddd146100ef57806323b872dd14610101578063313ce56714610114575b600080fd5b6100b66101c8565b6040516100c391906106c0565b60405180910390f35b6100df6100da36600461072b565b61025a565b60405190151581526020016100c3565b6002545b6040519081526020016100c3565b6100df61010f366004610755565b610274565b604051601281526020016100c3565b61013661013136600461072b565b610298565b005b6100f3610146366004610791565b6001600160a01b031660009081526020819052604090205490565b61013661016f36600461072b565b6102f5565b6100b6610349565b6100df61018a36600461072b565b610358565b6100f361019d3660046107b3565b6001600160a01b03918216600090815260016020908152604080832093909416825291909152205490565b6060600380546101d7906107e6565b80601f0160208091040260200160405190810160405280929190818152602001828054610203906107e6565b80156102505780601f1061022557610100808354040283529160200191610250565b820191906000526020600020905b81548152906001019060200180831161023357829003601f168201915b5050505050905090565b600033610268818585610366565b60019150505b92915050565b600033610282858285610378565b61028d8585856103f6565b506001949350505050565b6005546001600160a01b031633146102e75760405162461bcd60e51b815260206004820152600d60248201526c1b9bdd081c195c9b5a5d1d1959609a1b60448201526064015b60405180910390fd5b6102f18282610455565b5050565b6005546001600160a01b0316331461033f5760405162461bcd60e51b815260206004820152600d60248201526c1b9bdd081c195c9b5a5d1d1959609a1b60448201526064016102de565b6102f1828261048b565b6060600480546101d7906107e6565b6000336102688185856103f6565b61037383838360016104c1565b505050565b6001600160a01b0383811660009081526001602090815260408083209386168352929052205460001981146103f057818110156103e157604051637dc7a0d960e11b81526001600160a01b038416600482015260248101829052604481018390526064016102de565b6103f0848484840360006104c1565b50505050565b6001600160a01b03831661042057604051634b637e8f60e11b8152600060048201526024016102de565b6001600160a01b03821661044a5760405163ec442f0560e01b8152600060048201526024016102de565b610373838383610596565b6001600160a01b03821661047f5760405163ec442f0560e01b8152600060048201526024016102de565b6102f160008383610596565b6001600160a01b0382166104b557604051634b637e8f60e11b8152600060048201526024016102de565b6102f182600083610596565b6001600160a01b0384166104eb5760405163e602df0560e01b8152600060048201526024016102de565b6001600160a01b03831661051557604051634a1406b160e11b8152600060048201526024016102de565b6001600160a01b03808516600090815260016020908152604080832093871683529290522082905580156103f057826001600160a01b0316846001600160a01b03167f8c5be1e5ebec7d5bd14f71427d1e84f3dd0314c0f7b2291e5b200ac8c7c3b9258460405161058891815260200190565b60405180910390a350505050565b6001600160a01b0383166105c15780600260008282546105b69190610820565b909155506106339050565b6001600160a01b038316600090815260208190526040902054818110156106145760405163391434e360e21b81526001600160a01b038516600482015260248101829052604481018390526064016102de565b6001600160a01b03841660009081526020819052604090209082900390555b6001600160a01b03821661064f5760028054829003905561066e565b6001600160a01b03821660009081526020819052604090208054820190555b816001600160a01b0316836001600160a01b03167fddf252ad1be2c89b69c2b068fc378daa952ba7f163c4a11628f55a4df523b3ef836040516106b391815260200190565b60405180910390a3505050565b60006020808352835180602085015260005b818110156106ee578581018301518582016040015282016106d2565b506000604082860101526040601f19601f8301168501019250505092915050565b80356001600160a01b038116811461072657600080fd5b919050565b6000806040838503121561073e57600080fd5b6107478361070f565b946020939093013593505050565b60008060006060848603121561076a57600080fd5b6107738461070f565b92506107816020850161070f565b9150604084013590509250925092565b6000602082840312156107a357600080fd5b6107ac8261070f565b9392505050565b600080604083850312156107c657600080fd5b6107cf8361070f565b91506107dd6020840161070f565b90509250929050565b600181811c908216806107fa57607f821691505b60208210810361081a57634e487b7160e01b600052602260045260246000fd5b50919050565b8082018082111561026e57634e487b7160e01b600052601160045260246000fdfea2646970667358221220f6d35f610cc6f467b25a260d92255b4a0b2a0c31525163d2508d99662ac355f564736f6c63430008190033a264697066735822122095f060b5336e2b06dc462a0031b70fc7082574a8e799a1698daeaad135b9007564736f6c63430008190033","linkReferences":{}},"methodIdentifiers":{"buyToken(address,uint256)":"68f8fc10","getPrice(uint256,uint256)":"5cf4ee91","isLiquidityAdded(address)":"c961304a","launchToken((string,string,string,string,string,string,string))":"fa1c492e","migrateLiqiudity(address)":"446c7222","reserveTarget()":"31ae50bc","sellToken(address,uint256)":"f464e7db","tokenReserve(address)":"54d39008"},"id":6}