{"abi":[{"type":"constructor","inputs":[{"name":"target","type":"uint256","internalType":"uint256"},{"name":"feeRecipient","type":"address","internalType":"address"},{"name":"feePercent","type":"uint256","internalType":"uint256"},{"name":"router","type":"address","internalType":"address"}],"stateMutability":"nonpayable"},{"type":"function","name":"admin","inputs":[],"outputs":[{"name":"","type":"address","internalType":"address"}],"stateMutability":"view"},{"type":"function","name":"buyToken","inputs":[{"name":"token","type":"address","internalType":"address"},{"name":"amount","type":"uint256","internalType":"uint256"}],"outputs":[],"stateMutability":"payable"},{"type":"function","name":"getPrice","inputs":[{"name":"supply","type":"uint256","internalType":"uint256"},{"name":"amount","type":"uint256","internalType":"uint256"}],"outputs":[{"name":"","type":"uint256","internalType":"uint256"}],"stateMutability":"view"},{"type":"function","name":"isLiquidityAdded","inputs":[{"name":"","type":"address","internalType":"address"}],"outputs":[{"name":"","type":"bool","internalType":"bool"}],"stateMutability":"view"},{"type":"function","name":"launchToken","inputs":[{"name":"param","type":"tuple","internalType":"struct BondingCurveAMM.TokenLaunchParam","components":[{"name":"name","type":"string","internalType":"string"},{"name":"symbol","type":"string","internalType":"string"},{"name":"description","type":"string","internalType":"string"},{"name":"image","type":"string","internalType":"string"},{"name":"twitterLink","type":"string","internalType":"string"},{"name":"telegramLink","type":"string","internalType":"string"},{"name":"website","type":"string","internalType":"string"}]}],"outputs":[],"stateMutability":"nonpayable"},{"type":"function","name":"migrateLiqiudity","inputs":[{"name":"_token","type":"address","internalType":"address"}],"outputs":[],"stateMutability":"nonpayable"},{"type":"function","name":"protocolFeePercent","inputs":[],"outputs":[{"name":"","type":"uint256","internalType":"uint256"}],"stateMutability":"view"},{"type":"function","name":"protocolFeeRecipient","inputs":[],"outputs":[{"name":"","type":"address","internalType":"address payable"}],"stateMutability":"view"},{"type":"function","name":"reserveTarget","inputs":[],"outputs":[{"name":"","type":"uint256","internalType":"uint256"}],"stateMutability":"view"},{"type":"function","name":"sellToken","inputs":[{"name":"_token","type":"address","internalType":"address"},{"name":"amountIn","type":"uint256","internalType":"uint256"},{"name":"amountOutMin","type":"uint256","internalType":"uint256"}],"outputs":[],"stateMutability":"nonpayable"},{"type":"function","name":"swapRouter","inputs":[],"outputs":[{"name":"","type":"address","internalType":"contract IUniswapV2Router01"}],"stateMutability":"view"},{"type":"function","name":"tokenReserve","inputs":[{"name":"","type":"address","internalType":"address"}],"outputs":[{"name":"","type":"uint256","internalType":"uint256"}],"stateMutability":"view"},{"type":"event","name":"MigrateLiquidity","inputs":[{"name":"token","type":"address","indexed":true,"internalType":"address"},{"name":"ethAmount","type":"uint256","indexed":false,"internalType":"uint256"},{"name":"tokenAmount","type":"uint256","indexed":false,"internalType":"uint256"},{"name":"timestamp","type":"uint256","indexed":false,"internalType":"uint256"}],"anonymous":false},{"type":"event","name":"TokenLaunch","inputs":[{"name":"launcher","type":"address","indexed":true,"internalType":"address"},{"name":"token","type":"address","indexed":false,"internalType":"address"},{"name":"name","type":"string","indexed":false,"internalType":"string"},{"name":"symbol","type":"string","indexed":false,"internalType":"string"},{"name":"description","type":"string","indexed":false,"internalType":"string"},{"name":"image","type":"string","indexed":false,"internalType":"string"},{"name":"twitterLink","type":"string","indexed":false,"internalType":"string"},{"name":"telegramLink","type":"string","indexed":false,"internalType":"string"},{"name":"website","type":"string","indexed":false,"internalType":"string"},{"name":"timestamp","type":"uint256","indexed":false,"internalType":"uint256"}],"anonymous":false},{"type":"event","name":"Trade","inputs":[{"name":"trader","type":"address","indexed":true,"internalType":"address"},{"name":"token","type":"address","indexed":true,"internalType":"address"},{"name":"amountIn","type":"uint256","indexed":false,"internalType":"uint256"},{"name":"amountOut","type":"uint256","indexed":false,"internalType":"uint256"},{"name":"fee","type":"uint256","indexed":false,"internalType":"uint256"},{"name":"timestamp","type":"uint256","indexed":false,"internalType":"uint256"},{"name":"isBuy","type":"bool","indexed":false,"internalType":"bool"}],"anonymous":false}],"bytecode":{"object":"0x6080604052348015600f57600080fd5b5060405161289d38038061289d833981016040819052602c91608c565b60008054336001600160a01b0319918216179091556004949094556001805485166001600160a01b0394851617905560039190915560028054909316911617905560cd565b80516001600160a01b0381168114608757600080fd5b919050565b6000806000806080858703121560a157600080fd5b8451935060af602086016071565b92506040850151915060c2606086016071565b905092959194509250565b6127c1806100dc6000396000f3fe6080604052600436106100a75760003560e01c806368f8fc101161006457806368f8fc101461019c578063c31c9c07146101af578063c961304a146101cf578063d6e6eb9f1461020f578063f851a44014610225578063fa1c492e1461024557600080fd5b806331ae50bc146100ac5780633e11741f146100d5578063446c7222146100f757806354d39008146101175780635cf4ee911461014457806364df049e14610164575b600080fd5b3480156100b857600080fd5b506100c260045481565b6040519081526020015b60405180910390f35b3480156100e157600080fd5b506100f56100f0366004611590565b610265565b005b34801561010357600080fd5b506100f56101123660046115c5565b610796565b34801561012357600080fd5b506100c26101323660046115c5565b60056020526000908152604090205481565b34801561015057600080fd5b506100c261015f3660046115e9565b610b19565b34801561017057600080fd5b50600154610184906001600160a01b031681565b6040516001600160a01b0390911681526020016100cc565b6100f56101aa36600461160b565b610c54565b3480156101bb57600080fd5b50600254610184906001600160a01b031681565b3480156101db57600080fd5b506101ff6101ea3660046115c5565b60066020526000908152604090205460ff1681565b60405190151581526020016100cc565b34801561021b57600080fd5b506100c260035481565b34801561023157600080fd5b50600054610184906001600160a01b031681565b34801561025157600080fd5b506100f5610260366004611717565b610f0c565b816000036102ab5760405162461bcd60e51b815260206004820152600e60248201526d1a5b9d985b1a5908185b5bdd5b9d60921b60448201526064015b60405180910390fd5b6001600160a01b0383166000908152600660205260408120548190859060ff1615610430576040516323b872dd60e01b8152336004820152306024820152604481018690526000906001600160a01b038316906323b872dd906064016020604051808303816000875af1158015610326573d6000803e3d6000fd5b505050506040513d601f19601f8201168201806040525081019061034a919061185c565b60025460405163095ea7b360e01b81526001600160a01b039182166004820152602481018990529192506000919084169063095ea7b3906044016020604051808303816000875af11580156103a3573d6000803e3d6000fd5b505050506040513d601f19601f820116820180604052508101906103c7919061185c565b90508180156103d35750805b6104175760405162461bcd60e51b81526020600482015260156024820152746661696c656420746f206d6f766520746f6b656e7360581b60448201526064016102a2565b61042388888833610fc1565b9095509350610733915050565b6000816001600160a01b03166318160ddd6040518163ffffffff1660e01b8152600401602060405180830381865afa158015610470573d6000803e3d6000fd5b505050506040513d601f19601f82011682018060405250810190610494919061187e565b6040516370a0823160e01b815233600482015290915086906001600160a01b038416906370a0823190602401602060405180830381865afa1580156104dd573d6000803e3d6000fd5b505050506040513d601f19601f82011682018060405250810190610501919061187e565b101561055b5760405162461bcd60e51b815260206004820152602360248201527f696e73756666696369656e742062616c616e636520746f20636f76657220747260448201526261646560e81b60648201526084016102a2565b600061057061056a88846118ad565b88610b19565b905060006127106003548361058591906118c0565b61058f91906118d7565b6001600160a01b038a166000908152600560205260408120805492935084929091906105bc9084906118ad565b909155505060405163079cc67960e41b8152336004820152602481018990526001600160a01b038516906379cc679090604401600060405180830381600087803b15801561060957600080fd5b505af115801561061d573d6000803e3d6000fd5b5060009250339150610631905083856118ad565b604051600081818185875af1925050503d806000811461066d576040519150601f19603f3d011682016040523d82523d6000602084013e610672565b606091505b50506001546040519192506000916001600160a01b039091169084908381818185875af1925050503d80600081146106c6576040519150601f19603f3d011682016040523d82523d6000602084013e6106cb565b606091505b505090508180156106d95750805b61071c5760405162461bcd60e51b8152602060048201526014602482015273556e61626c6520746f2073656e642066756e647360601b60448201526064016102a2565b829750878461072b91906118ad565b965050505050505b6040805186815260208101849052908101849052426060820152600060808201526001600160a01b0387169033907f3893b12ea2017f00ca6b320ece400190bef0f01352a842b563729af4b14e8f369060a00160405180910390a3505050505050565b6000546001600160a01b031633146107e05760405162461bcd60e51b815260206004820152600d60248201526c139bdd081c195c9b5a5d1d1959609a1b60448201526064016102a2565b6004546001600160a01b038216600090815260056020526040902054101561084a5760405162461bcd60e51b815260206004820152601a60248201527f7265736572766520746172676574206e6f74207265616368656400000000000060448201526064016102a2565b6001600160a01b03811660008181526005602090815260408083205481516318160ddd60e01b81529151869591949391926318160ddd9260048083019391928290030181865afa1580156108a2573d6000803e3d6000fd5b505050506040513d601f19601f820116820180604052508101906108c6919061187e565b6040516308934a5f60e31b8152306004820152602481018290529091506001600160a01b0384169063449a52f890604401600060405180830381600087803b15801561091157600080fd5b505af1158015610925573d6000803e3d6000fd5b505060025460405163095ea7b360e01b81526001600160a01b0391821660048201526024810185905260009350908616915063095ea7b3906044016020604051808303816000875af115801561097f573d6000803e3d6000fd5b505050506040513d601f19601f820116820180604052508101906109a3919061185c565b9050806109ea5760405162461bcd60e51b81526020600482015260156024820152741d1bdad95b88185c1c1c9bdd985b0819985a5b1959605a1b60448201526064016102a2565b6002546001600160a01b031663f305d71984878580836000610a0d42603c6118f9565b60405160e089901b6001600160e01b03191681526001600160a01b039687166004820152602481019590955260448501939093526064840191909152909216608482015260a481019190915260c40160606040518083038185885af1158015610a7a573d6000803e3d6000fd5b50505050506040513d601f19601f82011682018060405250810190610a9f919061190c565b5050506001600160a01b03851660008181526006602052604090819020805460ff19166001179055517f6a63e931e5aaaba2b161966b7413f19427e4878d3dc53a46c97519671cf1438690610b0a908690869042909283526020830191909152604082015260600190565b60405180910390a25050505050565b600080610b2e670de0b6b3a7640000856118d7565b90506000610b44670de0b6b3a7640000856118d7565b905060008215610ba0576006610b5b6001856118ad565b610b669060026118c0565b610b719060016118f9565b84610b7d6001826118ad565b610b8791906118c0565b610b9191906118c0565b610b9b91906118d7565b610ba3565b60005b9050600060066001610bb585876118f9565b610bbf91906118ad565b610bca9060026118c0565b610bd59060016118f9565b610bdf85876118f9565b6001610beb87896118f9565b610bf591906118ad565b610bff91906118c0565b610c0991906118c0565b610c1391906118d7565b90506000610c2183836118ad565b90506508bb2c970000610c3c82670de0b6b3a76400006118c0565b610c4691906118d7565b955050505050505b92915050565b80600003610c955760405162461bcd60e51b815260206004820152600e60248201526d1a5b9d985b1a5908185b5bdd5b9d60921b60448201526064016102a2565b6001600160a01b038216600090815260066020526040812054819060ff1615610cce57610cc48434853361128f565b9092509050610eab565b6004546001600160a01b03851660009081526005602052604090205410610d2e5760405162461bcd60e51b815260206004820152601460248201527318dd5c9d99481d185c99d95d081c995858da195960621b60448201526064016102a2565b6000846001600160a01b03166318160ddd6040518163ffffffff1660e01b8152600401602060405180830381865afa158015610d6e573d6000803e3d6000fd5b505050506040513d601f19601f82011682018060405250810190610d92919061187e565b90506000610da08286610b19565b905061271060035482610db391906118c0565b610dbd91906118d7565b9350849250610dcc84826118f9565b341015610e1b5760405162461bcd60e51b815260206004820152601e60248201527f496e73756666696369656e74207061796d656e7420666f72207472616465000060448201526064016102a2565b6001600160a01b03861660009081526005602052604081208054839290610e439084906118f9565b90915550506040516308934a5f60e31b8152336004820152602481018690526001600160a01b0387169063449a52f890604401600060405180830381600087803b158015610e9057600080fd5b505af1158015610ea4573d6000803e3d6000fd5b5050505050505b6040805134815260208101859052908101839052426060820152600160808201526001600160a01b0385169033907f3893b12ea2017f00ca6b320ece400190bef0f01352a842b563729af4b14e8f369060a00160405180910390a350505050565b60008160000151826020015130604051610f259061156b565b610f3193929190611980565b604051809103906000f080158015610f4d573d6000803e3d6000fd5b509050336001600160a01b03167f4c3449617a987f0d9b9e9b06cc25e185a3bf4ee8d294d61d2e310a9a0ec498b082846000015185602001518660400151876060015188608001518960a001518a60c0015142604051610fb5999897969594939291906119be565b60405180910390a25050565b6040805160028082526060820183526000928392839290916020830190803683370190505090508681600081518110610ffc57610ffc611a73565b6001600160a01b03928316602091820292909201810191909152600254604080516315ab88c960e31b81529051919093169263ad5c46489260048083019391928290030181865afa158015611055573d6000803e3d6000fd5b505050506040513d601f19601f820116820180604052508101906110799190611a89565b8160018151811061108c5761108c611a73565b6001600160a01b039283166020918202929092010152600254600091166318cbafe5888885306110bd42603c6118f9565b6040518663ffffffff1660e01b81526004016110dd959493929190611aeb565b6000604051808303816000875af11580156110fc573d6000803e3d6000fd5b505050506040513d6000823e601f3d908101601f191682016040526111249190810190611b27565b90506000816001835161113791906118ad565b8151811061114757611147611a73565b6020026020010151905060006127106003548361116491906118c0565b61116e91906118d7565b905060006001600160a01b03881661118683856118ad565b604051600081818185875af1925050503d80600081146111c2576040519150601f19603f3d011682016040523d82523d6000602084013e6111c7565b606091505b50506001546040519192506000916001600160a01b039091169084908381818185875af1925050503d806000811461121b576040519150601f19603f3d011682016040523d82523d6000602084013e611220565b606091505b5050905081801561122e5750805b6112715760405162461bcd60e51b8152602060048201526014602482015273756e61626c6520746f2073656e642066756e647360601b60448201526064016102a2565b8261127c81866118ad565b9750975050505050505094509492505050565b600080843410156112ed5760405162461bcd60e51b815260206004820152602260248201527f696e73756666696369656e74206574682070726f766964656420666f72207377604482015261061760f41b60648201526084016102a2565b60006127106003548761130091906118c0565b61130a91906118d7565b60408051600280825260608201835292935060009290916020830190803683375050600254604080516315ab88c960e31b815290519394506001600160a01b039091169263ad5c4648925060048083019260209291908290030181865afa158015611379573d6000803e3d6000fd5b505050506040513d601f19601f8201168201806040525081019061139d9190611a89565b816000815181106113b0576113b0611a73565b60200260200101906001600160a01b031690816001600160a01b03168152505087816001815181106113e4576113e4611a73565b6001600160a01b03928316602091820292909201015260025460009116637ff36ab5611410858b6118ad565b89858a61141e42603c6118f9565b6040518663ffffffff1660e01b815260040161143d9493929190611bcd565b60006040518083038185885af115801561145b573d6000803e3d6000fd5b50505050506040513d6000823e601f3d908101601f191682016040526114849190810190611b27565b90506000816001835161149791906118ad565b815181106114a7576114a7611a73565b60209081029190910101516001546040519192506000916001600160a01b039091169086908381818185875af1925050503d8060008114611504576040519150601f19603f3d011682016040523d82523d6000602084013e611509565b606091505b505090508061155a5760405162461bcd60e51b815260206004820152601b60248201527f556e61626c6520746f2073656e642070726f746f636f6c20666565000000000060448201526064016102a2565b509299929850919650505050505050565b610b8980611c0383390190565b6001600160a01b038116811461158d57600080fd5b50565b6000806000606084860312156115a557600080fd5b83356115b081611578565b95602085013595506040909401359392505050565b6000602082840312156115d757600080fd5b81356115e281611578565b9392505050565b600080604083850312156115fc57600080fd5b50508035926020909101359150565b6000806040838503121561161e57600080fd5b823561162981611578565b946020939093013593505050565b634e487b7160e01b600052604160045260246000fd5b60405160e0810167ffffffffffffffff8111828210171561167057611670611637565b60405290565b604051601f8201601f1916810167ffffffffffffffff8111828210171561169f5761169f611637565b604052919050565b600082601f8301126116b857600080fd5b813567ffffffffffffffff8111156116d2576116d2611637565b6116e5601f8201601f1916602001611676565b8181528460208386010111156116fa57600080fd5b816020850160208301376000918101602001919091529392505050565b60006020828403121561172957600080fd5b813567ffffffffffffffff8082111561174157600080fd5b9083019060e0828603121561175557600080fd5b61175d61164d565b82358281111561176c57600080fd5b611778878286016116a7565b82525060208301358281111561178d57600080fd5b611799878286016116a7565b6020830152506040830135828111156117b157600080fd5b6117bd878286016116a7565b6040830152506060830135828111156117d557600080fd5b6117e1878286016116a7565b6060830152506080830135828111156117f957600080fd5b611805878286016116a7565b60808301525060a08301358281111561181d57600080fd5b611829878286016116a7565b60a08301525060c08301358281111561184157600080fd5b61184d878286016116a7565b60c08301525095945050505050565b60006020828403121561186e57600080fd5b815180151581146115e257600080fd5b60006020828403121561189057600080fd5b5051919050565b634e487b7160e01b600052601160045260246000fd5b81810381811115610c4e57610c4e611897565b8082028115828204841417610c4e57610c4e611897565b6000826118f457634e487b7160e01b600052601260045260246000fd5b500490565b80820180821115610c4e57610c4e611897565b60008060006060848603121561192157600080fd5b8351925060208401519150604084015190509250925092565b6000815180845260005b8181101561196057602081850181015186830182015201611944565b506000602082860101526020601f19601f83011685010191505092915050565b606081526000611993606083018661193a565b82810360208401526119a5818661193a565b91505060018060a01b0383166040830152949350505050565b6001600160a01b038a168152610120602082018190526000906119e38382018c61193a565b905082810360408401526119f7818b61193a565b90508281036060840152611a0b818a61193a565b90508281036080840152611a1f818961193a565b905082810360a0840152611a33818861193a565b905082810360c0840152611a47818761193a565b905082810360e0840152611a5b818661193a565b915050826101008301529a9950505050505050505050565b634e487b7160e01b600052603260045260246000fd5b600060208284031215611a9b57600080fd5b81516115e281611578565b60008151808452602080850194506020840160005b83811015611ae05781516001600160a01b031687529582019590820190600101611abb565b509495945050505050565b85815284602082015260a060408201526000611b0a60a0830186611aa6565b6001600160a01b0394909416606083015250608001529392505050565b60006020808385031215611b3a57600080fd5b825167ffffffffffffffff80821115611b5257600080fd5b818501915085601f830112611b6657600080fd5b815181811115611b7857611b78611637565b8060051b9150611b89848301611676565b8181529183018401918481019088841115611ba357600080fd5b938501935b83851015611bc157845182529385019390850190611ba8565b98975050505050505050565b848152608060208201526000611be66080830186611aa6565b6001600160a01b0394909416604083015250606001529291505056fe608060405234801561001057600080fd5b50604051610b89380380610b8983398101604081905261002f91610134565b8282600361003d8382610244565b50600461004a8282610244565b5050600580546001600160a01b0319166001600160a01b03939093169290921790915550610303915050565b634e487b7160e01b600052604160045260246000fd5b600082601f83011261009d57600080fd5b81516001600160401b03808211156100b7576100b7610076565b604051601f8301601f19908116603f011681019082821181831017156100df576100df610076565b81604052838152602092508660208588010111156100fc57600080fd5b600091505b8382101561011e5785820183015181830184015290820190610101565b6000602085830101528094505050505092915050565b60008060006060848603121561014957600080fd5b83516001600160401b038082111561016057600080fd5b61016c8783880161008c565b9450602086015191508082111561018257600080fd5b5061018f8682870161008c565b604086015190935090506001600160a01b03811681146101ae57600080fd5b809150509250925092565b600181811c908216806101cd57607f821691505b6020821081036101ed57634e487b7160e01b600052602260045260246000fd5b50919050565b601f82111561023f576000816000526020600020601f850160051c8101602086101561021c5750805b601f850160051c820191505b8181101561023b57828155600101610228565b5050505b505050565b81516001600160401b0381111561025d5761025d610076565b6102718161026b84546101b9565b846101f3565b602080601f8311600181146102a6576000841561028e5750858301515b600019600386901b1c1916600185901b17855561023b565b600085815260208120601f198616915b828110156102d5578886015182559484019460019091019084016102b6565b50858210156102f35787850151600019600388901b60f8161c191681555b5050505050600190811b01905550565b610877806103126000396000f3fe608060405234801561001057600080fd5b50600436106100a95760003560e01c8063449a52f811610071578063449a52f81461012357806370a082311461013857806379cc67901461016157806395d89b4114610174578063a9059cbb1461017c578063dd62ed3e1461018f57600080fd5b806306fdde03146100ae578063095ea7b3146100cc57806318160ddd146100ef57806323b872dd14610101578063313ce56714610114575b600080fd5b6100b66101c8565b6040516100c391906106c0565b60405180910390f35b6100df6100da36600461072b565b61025a565b60405190151581526020016100c3565b6002545b6040519081526020016100c3565b6100df61010f366004610755565b610274565b604051601281526020016100c3565b61013661013136600461072b565b610298565b005b6100f3610146366004610791565b6001600160a01b031660009081526020819052604090205490565b61013661016f36600461072b565b6102f5565b6100b6610349565b6100df61018a36600461072b565b610358565b6100f361019d3660046107b3565b6001600160a01b03918216600090815260016020908152604080832093909416825291909152205490565b6060600380546101d7906107e6565b80601f0160208091040260200160405190810160405280929190818152602001828054610203906107e6565b80156102505780601f1061022557610100808354040283529160200191610250565b820191906000526020600020905b81548152906001019060200180831161023357829003601f168201915b5050505050905090565b600033610268818585610366565b60019150505b92915050565b600033610282858285610378565b61028d8585856103f6565b506001949350505050565b6005546001600160a01b031633146102e75760405162461bcd60e51b815260206004820152600d60248201526c1b9bdd081c195c9b5a5d1d1959609a1b60448201526064015b60405180910390fd5b6102f18282610455565b5050565b6005546001600160a01b0316331461033f5760405162461bcd60e51b815260206004820152600d60248201526c1b9bdd081c195c9b5a5d1d1959609a1b60448201526064016102de565b6102f1828261048b565b6060600480546101d7906107e6565b6000336102688185856103f6565b61037383838360016104c1565b505050565b6001600160a01b0383811660009081526001602090815260408083209386168352929052205460001981146103f057818110156103e157604051637dc7a0d960e11b81526001600160a01b038416600482015260248101829052604481018390526064016102de565b6103f0848484840360006104c1565b50505050565b6001600160a01b03831661042057604051634b637e8f60e11b8152600060048201526024016102de565b6001600160a01b03821661044a5760405163ec442f0560e01b8152600060048201526024016102de565b610373838383610596565b6001600160a01b03821661047f5760405163ec442f0560e01b8152600060048201526024016102de565b6102f160008383610596565b6001600160a01b0382166104b557604051634b637e8f60e11b8152600060048201526024016102de565b6102f182600083610596565b6001600160a01b0384166104eb5760405163e602df0560e01b8152600060048201526024016102de565b6001600160a01b03831661051557604051634a1406b160e11b8152600060048201526024016102de565b6001600160a01b03808516600090815260016020908152604080832093871683529290522082905580156103f057826001600160a01b0316846001600160a01b03167f8c5be1e5ebec7d5bd14f71427d1e84f3dd0314c0f7b2291e5b200ac8c7c3b9258460405161058891815260200190565b60405180910390a350505050565b6001600160a01b0383166105c15780600260008282546105b69190610820565b909155506106339050565b6001600160a01b038316600090815260208190526040902054818110156106145760405163391434e360e21b81526001600160a01b038516600482015260248101829052604481018390526064016102de565b6001600160a01b03841660009081526020819052604090209082900390555b6001600160a01b03821661064f5760028054829003905561066e565b6001600160a01b03821660009081526020819052604090208054820190555b816001600160a01b0316836001600160a01b03167fddf252ad1be2c89b69c2b068fc378daa952ba7f163c4a11628f55a4df523b3ef836040516106b391815260200190565b60405180910390a3505050565b60006020808352835180602085015260005b818110156106ee578581018301518582016040015282016106d2565b506000604082860101526040601f19601f8301168501019250505092915050565b80356001600160a01b038116811461072657600080fd5b919050565b6000806040838503121561073e57600080fd5b6107478361070f565b946020939093013593505050565b60008060006060848603121561076a57600080fd5b6107738461070f565b92506107816020850161070f565b9150604084013590509250925092565b6000602082840312156107a357600080fd5b6107ac8261070f565b9392505050565b600080604083850312156107c657600080fd5b6107cf8361070f565b91506107dd6020840161070f565b90509250929050565b600181811c908216806107fa57607f821691505b60208210810361081a57634e487b7160e01b600052602260045260246000fd5b50919050565b8082018082111561026e57634e487b7160e01b600052601160045260246000fdfea2646970667358221220bdc624884401172e3836769d68de97d87a24b4721b615d5c91f62b8f590ada2f64736f6c63430008190033a2646970667358221220533875b900984d9fd3be1ca00483a0bc07fe6db967203dc2b569de3871ffe86e64736f6c63430008190033","linkReferences":{}},"methodIdentifiers":{"admin()":"f851a440","buyToken(address,uint256)":"68f8fc10","getPrice(uint256,uint256)":"5cf4ee91","isLiquidityAdded(address)":"c961304a","launchToken((string,string,string,string,string,string,string))":"fa1c492e","migrateLiqiudity(address)":"446c7222","protocolFeePercent()":"d6e6eb9f","protocolFeeRecipient()":"64df049e","reserveTarget()":"31ae50bc","sellToken(address,uint256,uint256)":"3e11741f","swapRouter()":"c31c9c07","tokenReserve(address)":"54d39008"},"id":29}