{"abi":[{"type":"constructor","inputs":[{"name":"target","type":"uint256","internalType":"uint256"},{"name":"feeRecipient","type":"address","internalType":"address"},{"name":"feePercent","type":"uint256","internalType":"uint256"}],"stateMutability":"nonpayable"},{"type":"function","name":"buyToken","inputs":[{"name":"token","type":"address","internalType":"address"},{"name":"amount","type":"uint256","internalType":"uint256"}],"outputs":[],"stateMutability":"payable"},{"type":"function","name":"getPrice","inputs":[{"name":"supply","type":"uint256","internalType":"uint256"},{"name":"amount","type":"uint256","internalType":"uint256"}],"outputs":[{"name":"","type":"uint256","internalType":"uint256"}],"stateMutability":"pure"},{"type":"function","name":"launchToken","inputs":[{"name":"param","type":"tuple","internalType":"struct BondingCurveAMM.TokenLaunchParam","components":[{"name":"name","type":"string","internalType":"string"},{"name":"symbol","type":"string","internalType":"string"},{"name":"description","type":"string","internalType":"string"},{"name":"image","type":"string","internalType":"string"},{"name":"twitterLink","type":"string","internalType":"string"},{"name":"telegramLink","type":"string","internalType":"string"},{"name":"website","type":"string","internalType":"string"}]}],"outputs":[],"stateMutability":"nonpayable"},{"type":"function","name":"migrateLiqiudity","inputs":[{"name":"token","type":"address","internalType":"address"}],"outputs":[],"stateMutability":"nonpayable"},{"type":"function","name":"reserveTarget","inputs":[],"outputs":[{"name":"","type":"uint256","internalType":"uint256"}],"stateMutability":"view"},{"type":"function","name":"sellToken","inputs":[{"name":"token","type":"address","internalType":"address"},{"name":"amount","type":"uint256","internalType":"uint256"}],"outputs":[],"stateMutability":"nonpayable"},{"type":"function","name":"tokenReserve","inputs":[{"name":"","type":"address","internalType":"address"}],"outputs":[{"name":"","type":"uint256","internalType":"uint256"}],"stateMutability":"view"},{"type":"event","name":"LiquidityMigrate","inputs":[],"anonymous":false},{"type":"event","name":"TokenLaunch","inputs":[{"name":"launcher","type":"address","indexed":true,"internalType":"address"},{"name":"token","type":"address","indexed":false,"internalType":"address"},{"name":"name","type":"string","indexed":false,"internalType":"string"},{"name":"symbol","type":"string","indexed":false,"internalType":"string"},{"name":"description","type":"string","indexed":false,"internalType":"string"},{"name":"image","type":"string","indexed":false,"internalType":"string"},{"name":"twitterLink","type":"string","indexed":false,"internalType":"string"},{"name":"telegramLink","type":"string","indexed":false,"internalType":"string"},{"name":"website","type":"string","indexed":false,"internalType":"string"},{"name":"timeStamp","type":"uint256","indexed":false,"internalType":"uint256"}],"anonymous":false},{"type":"event","name":"Trade","inputs":[{"name":"trader","type":"address","indexed":true,"internalType":"address"},{"name":"token","type":"address","indexed":true,"internalType":"address"},{"name":"amountIn","type":"uint256","indexed":false,"internalType":"uint256"},{"name":"amountOut","type":"uint256","indexed":false,"internalType":"uint256"},{"name":"fee","type":"uint256","indexed":false,"internalType":"uint256"},{"name":"timeStamp","type":"uint256","indexed":false,"internalType":"uint256"},{"name":"isBuy","type":"bool","indexed":false,"internalType":"bool"}],"anonymous":false}],"bytecode":{"object":"0x6080604052348015600f57600080fd5b50604051611ad1380380611ad1833981016040819052602c916068565b60008054336001600160a01b031991821617909155600393909355600180549093166001600160a01b03929092169190911790915560025560ac565b600080600060608486031215607c57600080fd5b835160208501519093506001600160a01b0381168114609a57600080fd5b80925050604084015190509250925092565b611a16806100bb6000396000f3fe6080604052600436106100705760003560e01c80635cf4ee911161004e5780635cf4ee91146100ec57806368f8fc101461010c578063f464e7db1461011f578063fa1c492e1461013f57600080fd5b806331ae50bc14610075578063446c72221461009d57806354d39008146100bf575b600080fd5b34801561008157600080fd5b5061008b60035481565b60405190815260200160405180910390f35b3480156100a957600080fd5b506100bd6100b8366004610a11565b61015f565b005b3480156100cb57600080fd5b5061008b6100da366004610a11565b60046020526000908152604090205481565b3480156100f857600080fd5b5061008b610107366004610a33565b6101d8565b6100bd61011a366004610a55565b6102fb565b34801561012b57600080fd5b506100bd61013a366004610a55565b6105db565b34801561014b57600080fd5b506100bd61015a366004610b4b565b610933565b6000546001600160a01b031633146101ae5760405162461bcd60e51b815260206004820152600d60248201526c139bdd081c195c9b5a5d1d1959609a1b60448201526064015b60405180910390fd5b6003546001600160a01b03821660009081526004602052604090205410156101d557600080fd5b50565b60008083156102335760066101ee600186610ca6565b6101f9906002610cb9565b610204906001610cd0565b85610210600182610ca6565b61021a9190610cb9565b6102249190610cb9565b61022e9190610ce3565b610236565b60005b90506000841580156102485750836001145b6102bd5760068461025a600188610ca6565b6102649190610cd0565b61026f906002610cb9565b61027a906001610cd0565b6102848688610cd0565b8661029060018a610ca6565b61029a9190610cd0565b6102a49190610cb9565b6102ae9190610cb9565b6102b89190610ce3565b6102c0565b60005b905060006102ce8383610ca6565b9050613e806102e582670de0b6b3a7640000610cb9565b6102ef9190610ce3565b93505050505b92915050565b6003546001600160a01b0383166000908152600460205260409020541061035b5760405162461bcd60e51b815260206004820152601460248201527318dd5c9d99481d185c99d95d081c995858da195960621b60448201526064016101a5565b6000826001600160a01b03166318160ddd6040518163ffffffff1660e01b8152600401602060405180830381865afa15801561039b573d6000803e3d6000fd5b505050506040513d601f19601f820116820180604052508101906103bf9190610d05565b905060006103cd82846101d8565b90506000612710600254836103e29190610cb9565b6103ec9190610ce3565b90506103f88183610cd0565b3410156104475760405162461bcd60e51b815260206004820152601e60248201527f496e73756666696369656e74207061796d656e7420666f72207472616465000060448201526064016101a5565b6001600160a01b0385166000908152600460205260408120805484929061046f908490610cd0565b90915550506001546040516000916001600160a01b03169083908381818185875af1925050503d80600081146104c1576040519150601f19603f3d011682016040523d82523d6000602084013e6104c6565b606091505b50506040516308934a5f60e31b8152336004820152602481018790529091506001600160a01b0387169063449a52f890604401600060405180830381600087803b15801561051357600080fd5b505af1158015610527573d6000803e3d6000fd5b50505050806105785760405162461bcd60e51b815260206004820152601b60248201527f556e61626c6520746f2073656e642070726f746f636f6c20666565000000000060448201526064016101a5565b6040805134815260208101879052908101839052426060820152600160808201526001600160a01b0387169033907f3893b12ea2017f00ca6b320ece400190bef0f01352a842b563729af4b14e8f369060a00160405180910390a3505050505050565b6000826001600160a01b03166318160ddd6040518163ffffffff1660e01b8152600401602060405180830381865afa15801561061b573d6000803e3d6000fd5b505050506040513d601f19601f8201168201806040525081019061063f9190610d05565b6040516370a0823160e01b815233600482015290915082906001600160a01b038516906370a0823190602401602060405180830381865afa158015610688573d6000803e3d6000fd5b505050506040513d601f19601f820116820180604052508101906106ac9190610d05565b10156107065760405162461bcd60e51b815260206004820152602360248201527f696e73756666696369656e742062616c616e636520746f20636f76657220747260448201526261646560e81b60648201526084016101a5565b600061071b6107158484610ca6565b846101d8565b90506000612710600254836107309190610cb9565b61073a9190610ce3565b6001600160a01b038616600090815260046020526040812080549293508492909190610767908490610ca6565b909155505060405163079cc67960e41b8152336004820152602481018590526001600160a01b038616906379cc679090604401600060405180830381600087803b1580156107b457600080fd5b505af11580156107c8573d6000803e3d6000fd5b50600092503391506107dc90508385610ca6565b604051600081818185875af1925050503d8060008114610818576040519150601f19603f3d011682016040523d82523d6000602084013e61081d565b606091505b50506001546040519192506000916001600160a01b039091169084908381818185875af1925050503d8060008114610871576040519150601f19603f3d011682016040523d82523d6000602084013e610876565b606091505b505090508180156108845750805b6108c75760405162461bcd60e51b8152602060048201526014602482015273556e61626c6520746f2073656e642066756e647360601b60448201526064016101a5565b6001600160a01b038716337f3893b12ea2017f00ca6b320ece400190bef0f01352a842b563729af4b14e8f36886108fe8789610ca6565b60408051928352602083019190915281018790524260608201526000608082015260a00160405180910390a350505050505050565b6000816000015182602001513060405161094c906109e8565b61095893929190610d64565b604051809103906000f080158015610974573d6000803e3d6000fd5b509050336001600160a01b03167f4c3449617a987f0d9b9e9b06cc25e185a3bf4ee8d294d61d2e310a9a0ec498b082846000015185602001518660400151876060015188608001518960a001518a60c00151426040516109dc99989796959493929190610da2565b60405180910390a25050565b610b8980610e5883390190565b80356001600160a01b0381168114610a0c57600080fd5b919050565b600060208284031215610a2357600080fd5b610a2c826109f5565b9392505050565b60008060408385031215610a4657600080fd5b50508035926020909101359150565b60008060408385031215610a6857600080fd5b610a71836109f5565b946020939093013593505050565b634e487b7160e01b600052604160045260246000fd5b60405160e0810167ffffffffffffffff81118282101715610ab857610ab8610a7f565b60405290565b600082601f830112610acf57600080fd5b813567ffffffffffffffff80821115610aea57610aea610a7f565b604051601f8301601f19908116603f01168101908282118183101715610b1257610b12610a7f565b81604052838152866020858801011115610b2b57600080fd5b836020870160208301376000602085830101528094505050505092915050565b600060208284031215610b5d57600080fd5b813567ffffffffffffffff80821115610b7557600080fd5b9083019060e08286031215610b8957600080fd5b610b91610a95565b823582811115610ba057600080fd5b610bac87828601610abe565b825250602083013582811115610bc157600080fd5b610bcd87828601610abe565b602083015250604083013582811115610be557600080fd5b610bf187828601610abe565b604083015250606083013582811115610c0957600080fd5b610c1587828601610abe565b606083015250608083013582811115610c2d57600080fd5b610c3987828601610abe565b60808301525060a083013582811115610c5157600080fd5b610c5d87828601610abe565b60a08301525060c083013582811115610c7557600080fd5b610c8187828601610abe565b60c08301525095945050505050565b634e487b7160e01b600052601160045260246000fd5b818103818111156102f5576102f5610c90565b80820281158282048414176102f5576102f5610c90565b808201808211156102f5576102f5610c90565b600082610d0057634e487b7160e01b600052601260045260246000fd5b500490565b600060208284031215610d1757600080fd5b5051919050565b6000815180845260005b81811015610d4457602081850181015186830182015201610d28565b506000602082860101526020601f19601f83011685010191505092915050565b606081526000610d776060830186610d1e565b8281036020840152610d898186610d1e565b91505060018060a01b0383166040830152949350505050565b6001600160a01b038a16815261012060208201819052600090610dc78382018c610d1e565b90508281036040840152610ddb818b610d1e565b90508281036060840152610def818a610d1e565b90508281036080840152610e038189610d1e565b905082810360a0840152610e178188610d1e565b905082810360c0840152610e2b8187610d1e565b905082810360e0840152610e3f8186610d1e565b915050826101008301529a995050505050505050505056fe608060405234801561001057600080fd5b50604051610b89380380610b8983398101604081905261002f91610134565b8282600361003d8382610244565b50600461004a8282610244565b5050600580546001600160a01b0319166001600160a01b03939093169290921790915550610303915050565b634e487b7160e01b600052604160045260246000fd5b600082601f83011261009d57600080fd5b81516001600160401b03808211156100b7576100b7610076565b604051601f8301601f19908116603f011681019082821181831017156100df576100df610076565b81604052838152602092508660208588010111156100fc57600080fd5b600091505b8382101561011e5785820183015181830184015290820190610101565b6000602085830101528094505050505092915050565b60008060006060848603121561014957600080fd5b83516001600160401b038082111561016057600080fd5b61016c8783880161008c565b9450602086015191508082111561018257600080fd5b5061018f8682870161008c565b604086015190935090506001600160a01b03811681146101ae57600080fd5b809150509250925092565b600181811c908216806101cd57607f821691505b6020821081036101ed57634e487b7160e01b600052602260045260246000fd5b50919050565b601f82111561023f576000816000526020600020601f850160051c8101602086101561021c5750805b601f850160051c820191505b8181101561023b57828155600101610228565b5050505b505050565b81516001600160401b0381111561025d5761025d610076565b6102718161026b84546101b9565b846101f3565b602080601f8311600181146102a6576000841561028e5750858301515b600019600386901b1c1916600185901b17855561023b565b600085815260208120601f198616915b828110156102d5578886015182559484019460019091019084016102b6565b50858210156102f35787850151600019600388901b60f8161c191681555b5050505050600190811b01905550565b610877806103126000396000f3fe608060405234801561001057600080fd5b50600436106100a95760003560e01c8063449a52f811610071578063449a52f81461012357806370a082311461013857806379cc67901461016157806395d89b4114610174578063a9059cbb1461017c578063dd62ed3e1461018f57600080fd5b806306fdde03146100ae578063095ea7b3146100cc57806318160ddd146100ef57806323b872dd14610101578063313ce56714610114575b600080fd5b6100b66101c8565b6040516100c391906106c0565b60405180910390f35b6100df6100da36600461072b565b61025a565b60405190151581526020016100c3565b6002545b6040519081526020016100c3565b6100df61010f366004610755565b610274565b604051601281526020016100c3565b61013661013136600461072b565b610298565b005b6100f3610146366004610791565b6001600160a01b031660009081526020819052604090205490565b61013661016f36600461072b565b6102f5565b6100b6610349565b6100df61018a36600461072b565b610358565b6100f361019d3660046107b3565b6001600160a01b03918216600090815260016020908152604080832093909416825291909152205490565b6060600380546101d7906107e6565b80601f0160208091040260200160405190810160405280929190818152602001828054610203906107e6565b80156102505780601f1061022557610100808354040283529160200191610250565b820191906000526020600020905b81548152906001019060200180831161023357829003601f168201915b5050505050905090565b600033610268818585610366565b60019150505b92915050565b600033610282858285610378565b61028d8585856103f6565b506001949350505050565b6005546001600160a01b031633146102e75760405162461bcd60e51b815260206004820152600d60248201526c1b9bdd081c195c9b5a5d1d1959609a1b60448201526064015b60405180910390fd5b6102f18282610455565b5050565b6005546001600160a01b0316331461033f5760405162461bcd60e51b815260206004820152600d60248201526c1b9bdd081c195c9b5a5d1d1959609a1b60448201526064016102de565b6102f1828261048b565b6060600480546101d7906107e6565b6000336102688185856103f6565b61037383838360016104c1565b505050565b6001600160a01b0383811660009081526001602090815260408083209386168352929052205460001981146103f057818110156103e157604051637dc7a0d960e11b81526001600160a01b038416600482015260248101829052604481018390526064016102de565b6103f0848484840360006104c1565b50505050565b6001600160a01b03831661042057604051634b637e8f60e11b8152600060048201526024016102de565b6001600160a01b03821661044a5760405163ec442f0560e01b8152600060048201526024016102de565b610373838383610596565b6001600160a01b03821661047f5760405163ec442f0560e01b8152600060048201526024016102de565b6102f160008383610596565b6001600160a01b0382166104b557604051634b637e8f60e11b8152600060048201526024016102de565b6102f182600083610596565b6001600160a01b0384166104eb5760405163e602df0560e01b8152600060048201526024016102de565b6001600160a01b03831661051557604051634a1406b160e11b8152600060048201526024016102de565b6001600160a01b03808516600090815260016020908152604080832093871683529290522082905580156103f057826001600160a01b0316846001600160a01b03167f8c5be1e5ebec7d5bd14f71427d1e84f3dd0314c0f7b2291e5b200ac8c7c3b9258460405161058891815260200190565b60405180910390a350505050565b6001600160a01b0383166105c15780600260008282546105b69190610820565b909155506106339050565b6001600160a01b038316600090815260208190526040902054818110156106145760405163391434e360e21b81526001600160a01b038516600482015260248101829052604481018390526064016102de565b6001600160a01b03841660009081526020819052604090209082900390555b6001600160a01b03821661064f5760028054829003905561066e565b6001600160a01b03821660009081526020819052604090208054820190555b816001600160a01b0316836001600160a01b03167fddf252ad1be2c89b69c2b068fc378daa952ba7f163c4a11628f55a4df523b3ef836040516106b391815260200190565b60405180910390a3505050565b60006020808352835180602085015260005b818110156106ee578581018301518582016040015282016106d2565b506000604082860101526040601f19601f8301168501019250505092915050565b80356001600160a01b038116811461072657600080fd5b919050565b6000806040838503121561073e57600080fd5b6107478361070f565b946020939093013593505050565b60008060006060848603121561076a57600080fd5b6107738461070f565b92506107816020850161070f565b9150604084013590509250925092565b6000602082840312156107a357600080fd5b6107ac8261070f565b9392505050565b600080604083850312156107c657600080fd5b6107cf8361070f565b91506107dd6020840161070f565b90509250929050565b600181811c908216806107fa57607f821691505b60208210810361081a57634e487b7160e01b600052602260045260246000fd5b50919050565b8082018082111561026e57634e487b7160e01b600052601160045260246000fdfea264697066735822122013eab9b60795b2943c7102ba06a8364673fe21e1bbcdb67de0d0602458a1080a64736f6c63430008190033a2646970667358221220427218dc3deba7100c63ecd18d484744b6912479f47947f4505e768b8689af0264736f6c63430008190033","linkReferences":{}},"methodIdentifiers":{"buyToken(address,uint256)":"68f8fc10","getPrice(uint256,uint256)":"5cf4ee91","launchToken((string,string,string,string,string,string,string))":"fa1c492e","migrateLiqiudity(address)":"446c7222","reserveTarget()":"31ae50bc","sellToken(address,uint256)":"f464e7db","tokenReserve(address)":"54d39008"},"id":5}