{"abi":[{"type":"constructor","inputs":[{"name":"target","type":"uint256","internalType":"uint256"},{"name":"feeRecipient","type":"address","internalType":"address"},{"name":"feePercent","type":"uint256","internalType":"uint256"},{"name":"router","type":"address","internalType":"address"}],"stateMutability":"nonpayable"},{"type":"function","name":"buyToken","inputs":[{"name":"token","type":"address","internalType":"address"},{"name":"amount","type":"uint256","internalType":"uint256"}],"outputs":[],"stateMutability":"payable"},{"type":"function","name":"getPrice","inputs":[{"name":"supply","type":"uint256","internalType":"uint256"},{"name":"amount","type":"uint256","internalType":"uint256"}],"outputs":[{"name":"","type":"uint256","internalType":"uint256"}],"stateMutability":"pure"},{"type":"function","name":"isLiquidityAdded","inputs":[{"name":"","type":"address","internalType":"address"}],"outputs":[{"name":"","type":"bool","internalType":"bool"}],"stateMutability":"view"},{"type":"function","name":"launchToken","inputs":[{"name":"param","type":"tuple","internalType":"struct BondingCurveAMM.TokenLaunchParam","components":[{"name":"name","type":"string","internalType":"string"},{"name":"symbol","type":"string","internalType":"string"},{"name":"description","type":"string","internalType":"string"},{"name":"image","type":"string","internalType":"string"},{"name":"twitterLink","type":"string","internalType":"string"},{"name":"telegramLink","type":"string","internalType":"string"},{"name":"website","type":"string","internalType":"string"}]}],"outputs":[],"stateMutability":"nonpayable"},{"type":"function","name":"migrateLiqiudity","inputs":[{"name":"_token","type":"address","internalType":"address"}],"outputs":[],"stateMutability":"nonpayable"},{"type":"function","name":"reserveTarget","inputs":[],"outputs":[{"name":"","type":"uint256","internalType":"uint256"}],"stateMutability":"view"},{"type":"function","name":"sellToken","inputs":[{"name":"_token","type":"address","internalType":"address"},{"name":"amountIn","type":"uint256","internalType":"uint256"},{"name":"amountOutMin","type":"uint256","internalType":"uint256"}],"outputs":[],"stateMutability":"nonpayable"},{"type":"function","name":"tokenReserve","inputs":[{"name":"","type":"address","internalType":"address"}],"outputs":[{"name":"","type":"uint256","internalType":"uint256"}],"stateMutability":"view"},{"type":"event","name":"MigrateLiquidity","inputs":[{"name":"token","type":"address","indexed":true,"internalType":"address"},{"name":"ethAmount","type":"uint256","indexed":false,"internalType":"uint256"},{"name":"tokenAmount","type":"uint256","indexed":false,"internalType":"uint256"},{"name":"timestamp","type":"uint256","indexed":false,"internalType":"uint256"}],"anonymous":false},{"type":"event","name":"TokenLaunch","inputs":[{"name":"launcher","type":"address","indexed":true,"internalType":"address"},{"name":"token","type":"address","indexed":false,"internalType":"address"},{"name":"name","type":"string","indexed":false,"internalType":"string"},{"name":"symbol","type":"string","indexed":false,"internalType":"string"},{"name":"description","type":"string","indexed":false,"internalType":"string"},{"name":"image","type":"string","indexed":false,"internalType":"string"},{"name":"twitterLink","type":"string","indexed":false,"internalType":"string"},{"name":"telegramLink","type":"string","indexed":false,"internalType":"string"},{"name":"website","type":"string","indexed":false,"internalType":"string"},{"name":"timestamp","type":"uint256","indexed":false,"internalType":"uint256"}],"anonymous":false},{"type":"event","name":"Trade","inputs":[{"name":"trader","type":"address","indexed":true,"internalType":"address"},{"name":"token","type":"address","indexed":true,"internalType":"address"},{"name":"amountIn","type":"uint256","indexed":false,"internalType":"uint256"},{"name":"amountOut","type":"uint256","indexed":false,"internalType":"uint256"},{"name":"fee","type":"uint256","indexed":false,"internalType":"uint256"},{"name":"timestamp","type":"uint256","indexed":false,"internalType":"uint256"},{"name":"isBuy","type":"bool","indexed":false,"internalType":"bool"}],"anonymous":false}],"bytecode":{"object":"0x6080604052348015600f57600080fd5b50604051612664380380612664833981016040819052602c91608c565b60008054336001600160a01b0319918216179091556004949094556001805485166001600160a01b0394851617905560039190915560028054909316911617905560cd565b80516001600160a01b0381168114608757600080fd5b919050565b6000806000806080858703121560a157600080fd5b8451935060af602086016071565b92506040850151915060c2606086016071565b905092959194509250565b612588806100dc6000396000f3fe60806040526004361061007b5760003560e01c80635cf4ee911161004e5780635cf4ee911461011857806368f8fc1014610138578063c961304a1461014b578063fa1c492e1461018b57600080fd5b806331ae50bc146100805780633e11741f146100a9578063446c7222146100cb57806354d39008146100eb575b600080fd5b34801561008c57600080fd5b5061009660045481565b6040519081526020015b60405180910390f35b3480156100b557600080fd5b506100c96100c436600461137a565b6101ab565b005b3480156100d757600080fd5b506100c96100e63660046113ad565b61069b565b3480156100f757600080fd5b506100966101063660046113ad565b60056020526000908152604090205481565b34801561012457600080fd5b506100966101333660046113cf565b610a1e565b6100c96101463660046113f1565b610b41565b34801561015757600080fd5b5061017b6101663660046113ad565b60066020526000908152604090205460ff1681565b60405190151581526020016100a0565b34801561019757600080fd5b506100c96101a63660046114fb565b610db8565b6001600160a01b0383166000908152600660205260408120548190859060ff1615610335576040516323b872dd60e01b8152336004820152306024820152604481018690526000906001600160a01b038316906323b872dd906064016020604051808303816000875af1158015610226573d6000803e3d6000fd5b505050506040513d601f19601f8201168201806040525081019061024a9190611640565b60025460405163095ea7b360e01b81526001600160a01b039182166004820152602481018990529192506000919084169063095ea7b3906044016020604051808303816000875af11580156102a3573d6000803e3d6000fd5b505050506040513d601f19601f820116820180604052508101906102c79190611640565b90508180156102d35750805b61031c5760405162461bcd60e51b81526020600482015260156024820152746661696c656420746f206d6f766520746f6b656e7360581b60448201526064015b60405180910390fd5b61032888888833610e6d565b9095509350610638915050565b6000816001600160a01b03166318160ddd6040518163ffffffff1660e01b8152600401602060405180830381865afa158015610375573d6000803e3d6000fd5b505050506040513d601f19601f820116820180604052508101906103999190611662565b6040516370a0823160e01b815233600482015290915086906001600160a01b038416906370a0823190602401602060405180830381865afa1580156103e2573d6000803e3d6000fd5b505050506040513d601f19601f820116820180604052508101906104069190611662565b10156104605760405162461bcd60e51b815260206004820152602360248201527f696e73756666696369656e742062616c616e636520746f20636f76657220747260448201526261646560e81b6064820152608401610313565b600061047561046f8884611691565b88610a1e565b905060006127106003548361048a91906116a4565b61049491906116bb565b6001600160a01b038a166000908152600560205260408120805492935084929091906104c1908490611691565b909155505060405163079cc67960e41b8152336004820152602481018990526001600160a01b038516906379cc679090604401600060405180830381600087803b15801561050e57600080fd5b505af1158015610522573d6000803e3d6000fd5b506000925033915061053690508385611691565b604051600081818185875af1925050503d8060008114610572576040519150601f19603f3d011682016040523d82523d6000602084013e610577565b606091505b50506001546040519192506000916001600160a01b039091169084908381818185875af1925050503d80600081146105cb576040519150601f19603f3d011682016040523d82523d6000602084013e6105d0565b606091505b505090508180156105de5750805b6106215760405162461bcd60e51b8152602060048201526014602482015273556e61626c6520746f2073656e642066756e647360601b6044820152606401610313565b82975087846106309190611691565b965050505050505b6040805186815260208101849052908101849052426060820152600060808201526001600160a01b0387169033907f3893b12ea2017f00ca6b320ece400190bef0f01352a842b563729af4b14e8f369060a00160405180910390a3505050505050565b6000546001600160a01b031633146106e55760405162461bcd60e51b815260206004820152600d60248201526c139bdd081c195c9b5a5d1d1959609a1b6044820152606401610313565b6004546001600160a01b038216600090815260056020526040902054101561074f5760405162461bcd60e51b815260206004820152601a60248201527f7265736572766520746172676574206e6f7420726561636865640000000000006044820152606401610313565b6001600160a01b03811660008181526005602090815260408083205481516318160ddd60e01b81529151869591949391926318160ddd9260048083019391928290030181865afa1580156107a7573d6000803e3d6000fd5b505050506040513d601f19601f820116820180604052508101906107cb9190611662565b6040516308934a5f60e31b8152306004820152602481018290529091506001600160a01b0384169063449a52f890604401600060405180830381600087803b15801561081657600080fd5b505af115801561082a573d6000803e3d6000fd5b505060025460405163095ea7b360e01b81526001600160a01b0391821660048201526024810185905260009350908616915063095ea7b3906044016020604051808303816000875af1158015610884573d6000803e3d6000fd5b505050506040513d601f19601f820116820180604052508101906108a89190611640565b9050806108ef5760405162461bcd60e51b81526020600482015260156024820152741d1bdad95b88185c1c1c9bdd985b0819985a5b1959605a1b6044820152606401610313565b6002546001600160a01b031663f305d7198487858083600061091242603c6116dd565b60405160e089901b6001600160e01b03191681526001600160a01b039687166004820152602481019590955260448501939093526064840191909152909216608482015260a481019190915260c40160606040518083038185885af115801561097f573d6000803e3d6000fd5b50505050506040513d601f19601f820116820180604052508101906109a491906116f0565b5050506001600160a01b03851660008181526006602052604090819020805460ff19166001179055517f6a63e931e5aaaba2b161966b7413f19427e4878d3dc53a46c97519671cf1438690610a0f908690869042909283526020830191909152604082015260600190565b60405180910390a25050505050565b6000808315610a79576006610a34600186611691565b610a3f9060026116a4565b610a4a9060016116dd565b85610a56600182611691565b610a6091906116a4565b610a6a91906116a4565b610a7491906116bb565b610a7c565b60005b9050600084158015610a8e5750836001145b610b0357600684610aa0600188611691565b610aaa91906116dd565b610ab59060026116a4565b610ac09060016116dd565b610aca86886116dd565b86610ad660018a611691565b610ae091906116dd565b610aea91906116a4565b610af491906116a4565b610afe91906116bb565b610b06565b60005b90506000610b148383611691565b9050613e80610b2b82670de0b6b3a76400006116a4565b610b3591906116bb565b93505050505b92915050565b6001600160a01b038216600090815260066020526040812054819060ff1615610b7a57610b70843485336110e0565b9092509050610d57565b6004546001600160a01b03851660009081526005602052604090205410610bda5760405162461bcd60e51b815260206004820152601460248201527318dd5c9d99481d185c99d95d081c995858da195960621b6044820152606401610313565b6000846001600160a01b03166318160ddd6040518163ffffffff1660e01b8152600401602060405180830381865afa158015610c1a573d6000803e3d6000fd5b505050506040513d601f19601f82011682018060405250810190610c3e9190611662565b90506000610c4c8286610a1e565b905061271060035482610c5f91906116a4565b610c6991906116bb565b9350849250610c7884826116dd565b341015610cc75760405162461bcd60e51b815260206004820152601e60248201527f496e73756666696369656e74207061796d656e7420666f7220747261646500006044820152606401610313565b6001600160a01b03861660009081526005602052604081208054839290610cef9084906116dd565b90915550506040516308934a5f60e31b8152336004820152602481018690526001600160a01b0387169063449a52f890604401600060405180830381600087803b158015610d3c57600080fd5b505af1158015610d50573d6000803e3d6000fd5b5050505050505b6040805134815260208101859052908101839052426060820152600160808201526001600160a01b0385169033907f3893b12ea2017f00ca6b320ece400190bef0f01352a842b563729af4b14e8f369060a00160405180910390a350505050565b60008160000151826020015130604051610dd190611351565b610ddd93929190611764565b604051809103906000f080158015610df9573d6000803e3d6000fd5b509050336001600160a01b03167f4c3449617a987f0d9b9e9b06cc25e185a3bf4ee8d294d61d2e310a9a0ec498b082846000015185602001518660400151876060015188608001518960a001518a60c0015142604051610e61999897969594939291906117a2565b60405180910390a25050565b604080516002808252606082018352600092839283929091602083019080368337019050509050600081600081518110610ea957610ea9611857565b60200260200101906001600160a01b031690816001600160a01b0316815250508681600181518110610edd57610edd611857565b6001600160a01b039283166020918202929092010152600254600091166318cbafe588888530610f0e42603c6116dd565b6040518663ffffffff1660e01b8152600401610f2e9594939291906118b2565b6000604051808303816000875af1158015610f4d573d6000803e3d6000fd5b505050506040513d6000823e601f3d908101601f19168201604052610f7591908101906118ee565b905060008160018351610f889190611691565b81518110610f9857610f98611857565b60200260200101519050600061271060035483610fb591906116a4565b610fbf91906116bb565b905060006001600160a01b038816610fd78385611691565b604051600081818185875af1925050503d8060008114611013576040519150601f19603f3d011682016040523d82523d6000602084013e611018565b606091505b50506001546040519192506000916001600160a01b039091169084908381818185875af1925050503d806000811461106c576040519150601f19603f3d011682016040523d82523d6000602084013e611071565b606091505b5050905081801561107f5750805b6110c25760405162461bcd60e51b8152602060048201526014602482015273756e61626c6520746f2073656e642066756e647360601b6044820152606401610313565b826110cd8186611691565b9750975050505050505094509492505050565b6000808434101561113e5760405162461bcd60e51b815260206004820152602260248201527f696e73756666696369656e74206574682070726f766964656420666f72207377604482015261061760f41b6064820152608401610313565b60006127106003548761115191906116a4565b61115b91906116bb565b604080516002808252606082018352929350600092909160208301908036833701905050905060008160008151811061119657611196611857565b60200260200101906001600160a01b031690816001600160a01b03168152505087816001815181106111ca576111ca611857565b6001600160a01b03928316602091820292909201015260025460009116637ff36ab56111f6858b611691565b89858a61120442603c6116dd565b6040518663ffffffff1660e01b81526004016112239493929190611994565b60006040518083038185885af1158015611241573d6000803e3d6000fd5b50505050506040513d6000823e601f3d908101601f1916820160405261126a91908101906118ee565b90506000816001835161127d9190611691565b8151811061128d5761128d611857565b60209081029190910101516001546040519192506000916001600160a01b039091169086908381818185875af1925050503d80600081146112ea576040519150601f19603f3d011682016040523d82523d6000602084013e6112ef565b606091505b50509050806113405760405162461bcd60e51b815260206004820152601b60248201527f556e61626c6520746f2073656e642070726f746f636f6c2066656500000000006044820152606401610313565b509299929850919650505050505050565b610b89806119ca83390190565b80356001600160a01b038116811461137557600080fd5b919050565b60008060006060848603121561138f57600080fd5b6113988461135e565b95602085013595506040909401359392505050565b6000602082840312156113bf57600080fd5b6113c88261135e565b9392505050565b600080604083850312156113e257600080fd5b50508035926020909101359150565b6000806040838503121561140457600080fd5b61140d8361135e565b946020939093013593505050565b634e487b7160e01b600052604160045260246000fd5b60405160e0810167ffffffffffffffff811182821017156114545761145461141b565b60405290565b604051601f8201601f1916810167ffffffffffffffff811182821017156114835761148361141b565b604052919050565b600082601f83011261149c57600080fd5b813567ffffffffffffffff8111156114b6576114b661141b565b6114c9601f8201601f191660200161145a565b8181528460208386010111156114de57600080fd5b816020850160208301376000918101602001919091529392505050565b60006020828403121561150d57600080fd5b813567ffffffffffffffff8082111561152557600080fd5b9083019060e0828603121561153957600080fd5b611541611431565b82358281111561155057600080fd5b61155c8782860161148b565b82525060208301358281111561157157600080fd5b61157d8782860161148b565b60208301525060408301358281111561159557600080fd5b6115a18782860161148b565b6040830152506060830135828111156115b957600080fd5b6115c58782860161148b565b6060830152506080830135828111156115dd57600080fd5b6115e98782860161148b565b60808301525060a08301358281111561160157600080fd5b61160d8782860161148b565b60a08301525060c08301358281111561162557600080fd5b6116318782860161148b565b60c08301525095945050505050565b60006020828403121561165257600080fd5b815180151581146113c857600080fd5b60006020828403121561167457600080fd5b5051919050565b634e487b7160e01b600052601160045260246000fd5b81810381811115610b3b57610b3b61167b565b8082028115828204841417610b3b57610b3b61167b565b6000826116d857634e487b7160e01b600052601260045260246000fd5b500490565b80820180821115610b3b57610b3b61167b565b60008060006060848603121561170557600080fd5b8351925060208401519150604084015190509250925092565b6000815180845260005b8181101561174457602081850181015186830182015201611728565b506000602082860101526020601f19601f83011685010191505092915050565b606081526000611777606083018661171e565b8281036020840152611789818661171e565b91505060018060a01b0383166040830152949350505050565b6001600160a01b038a168152610120602082018190526000906117c78382018c61171e565b905082810360408401526117db818b61171e565b905082810360608401526117ef818a61171e565b90508281036080840152611803818961171e565b905082810360a0840152611817818861171e565b905082810360c084015261182b818761171e565b905082810360e084015261183f818661171e565b915050826101008301529a9950505050505050505050565b634e487b7160e01b600052603260045260246000fd5b60008151808452602080850194506020840160005b838110156118a75781516001600160a01b031687529582019590820190600101611882565b509495945050505050565b85815284602082015260a0604082015260006118d160a083018661186d565b6001600160a01b0394909416606083015250608001529392505050565b6000602080838503121561190157600080fd5b825167ffffffffffffffff8082111561191957600080fd5b818501915085601f83011261192d57600080fd5b81518181111561193f5761193f61141b565b8060051b915061195084830161145a565b818152918301840191848101908884111561196a57600080fd5b938501935b838510156119885784518252938501939085019061196f565b98975050505050505050565b8481526080602082015260006119ad608083018661186d565b6001600160a01b0394909416604083015250606001529291505056fe608060405234801561001057600080fd5b50604051610b89380380610b8983398101604081905261002f91610134565b8282600361003d8382610244565b50600461004a8282610244565b5050600580546001600160a01b0319166001600160a01b03939093169290921790915550610303915050565b634e487b7160e01b600052604160045260246000fd5b600082601f83011261009d57600080fd5b81516001600160401b03808211156100b7576100b7610076565b604051601f8301601f19908116603f011681019082821181831017156100df576100df610076565b81604052838152602092508660208588010111156100fc57600080fd5b600091505b8382101561011e5785820183015181830184015290820190610101565b6000602085830101528094505050505092915050565b60008060006060848603121561014957600080fd5b83516001600160401b038082111561016057600080fd5b61016c8783880161008c565b9450602086015191508082111561018257600080fd5b5061018f8682870161008c565b604086015190935090506001600160a01b03811681146101ae57600080fd5b809150509250925092565b600181811c908216806101cd57607f821691505b6020821081036101ed57634e487b7160e01b600052602260045260246000fd5b50919050565b601f82111561023f576000816000526020600020601f850160051c8101602086101561021c5750805b601f850160051c820191505b8181101561023b57828155600101610228565b5050505b505050565b81516001600160401b0381111561025d5761025d610076565b6102718161026b84546101b9565b846101f3565b602080601f8311600181146102a6576000841561028e5750858301515b600019600386901b1c1916600185901b17855561023b565b600085815260208120601f198616915b828110156102d5578886015182559484019460019091019084016102b6565b50858210156102f35787850151600019600388901b60f8161c191681555b5050505050600190811b01905550565b610877806103126000396000f3fe608060405234801561001057600080fd5b50600436106100a95760003560e01c8063449a52f811610071578063449a52f81461012357806370a082311461013857806379cc67901461016157806395d89b4114610174578063a9059cbb1461017c578063dd62ed3e1461018f57600080fd5b806306fdde03146100ae578063095ea7b3146100cc57806318160ddd146100ef57806323b872dd14610101578063313ce56714610114575b600080fd5b6100b66101c8565b6040516100c391906106c0565b60405180910390f35b6100df6100da36600461072b565b61025a565b60405190151581526020016100c3565b6002545b6040519081526020016100c3565b6100df61010f366004610755565b610274565b604051601281526020016100c3565b61013661013136600461072b565b610298565b005b6100f3610146366004610791565b6001600160a01b031660009081526020819052604090205490565b61013661016f36600461072b565b6102f5565b6100b6610349565b6100df61018a36600461072b565b610358565b6100f361019d3660046107b3565b6001600160a01b03918216600090815260016020908152604080832093909416825291909152205490565b6060600380546101d7906107e6565b80601f0160208091040260200160405190810160405280929190818152602001828054610203906107e6565b80156102505780601f1061022557610100808354040283529160200191610250565b820191906000526020600020905b81548152906001019060200180831161023357829003601f168201915b5050505050905090565b600033610268818585610366565b60019150505b92915050565b600033610282858285610378565b61028d8585856103f6565b506001949350505050565b6005546001600160a01b031633146102e75760405162461bcd60e51b815260206004820152600d60248201526c1b9bdd081c195c9b5a5d1d1959609a1b60448201526064015b60405180910390fd5b6102f18282610455565b5050565b6005546001600160a01b0316331461033f5760405162461bcd60e51b815260206004820152600d60248201526c1b9bdd081c195c9b5a5d1d1959609a1b60448201526064016102de565b6102f1828261048b565b6060600480546101d7906107e6565b6000336102688185856103f6565b61037383838360016104c1565b505050565b6001600160a01b0383811660009081526001602090815260408083209386168352929052205460001981146103f057818110156103e157604051637dc7a0d960e11b81526001600160a01b038416600482015260248101829052604481018390526064016102de565b6103f0848484840360006104c1565b50505050565b6001600160a01b03831661042057604051634b637e8f60e11b8152600060048201526024016102de565b6001600160a01b03821661044a5760405163ec442f0560e01b8152600060048201526024016102de565b610373838383610596565b6001600160a01b03821661047f5760405163ec442f0560e01b8152600060048201526024016102de565b6102f160008383610596565b6001600160a01b0382166104b557604051634b637e8f60e11b8152600060048201526024016102de565b6102f182600083610596565b6001600160a01b0384166104eb5760405163e602df0560e01b8152600060048201526024016102de565b6001600160a01b03831661051557604051634a1406b160e11b8152600060048201526024016102de565b6001600160a01b03808516600090815260016020908152604080832093871683529290522082905580156103f057826001600160a01b0316846001600160a01b03167f8c5be1e5ebec7d5bd14f71427d1e84f3dd0314c0f7b2291e5b200ac8c7c3b9258460405161058891815260200190565b60405180910390a350505050565b6001600160a01b0383166105c15780600260008282546105b69190610820565b909155506106339050565b6001600160a01b038316600090815260208190526040902054818110156106145760405163391434e360e21b81526001600160a01b038516600482015260248101829052604481018390526064016102de565b6001600160a01b03841660009081526020819052604090209082900390555b6001600160a01b03821661064f5760028054829003905561066e565b6001600160a01b03821660009081526020819052604090208054820190555b816001600160a01b0316836001600160a01b03167fddf252ad1be2c89b69c2b068fc378daa952ba7f163c4a11628f55a4df523b3ef836040516106b391815260200190565b60405180910390a3505050565b60006020808352835180602085015260005b818110156106ee578581018301518582016040015282016106d2565b506000604082860101526040601f19601f8301168501019250505092915050565b80356001600160a01b038116811461072657600080fd5b919050565b6000806040838503121561073e57600080fd5b6107478361070f565b946020939093013593505050565b60008060006060848603121561076a57600080fd5b6107738461070f565b92506107816020850161070f565b9150604084013590509250925092565b6000602082840312156107a357600080fd5b6107ac8261070f565b9392505050565b600080604083850312156107c657600080fd5b6107cf8361070f565b91506107dd6020840161070f565b90509250929050565b600181811c908216806107fa57607f821691505b60208210810361081a57634e487b7160e01b600052602260045260246000fd5b50919050565b8082018082111561026e57634e487b7160e01b600052601160045260246000fdfea2646970667358221220bdc624884401172e3836769d68de97d87a24b4721b615d5c91f62b8f590ada2f64736f6c63430008190033a26469706673582212204ac79347d4b51e27d5adb432bbb34a137f976569a2f72173d27604c88fc0d84864736f6c63430008190033","linkReferences":{}},"methodIdentifiers":{"buyToken(address,uint256)":"68f8fc10","getPrice(uint256,uint256)":"5cf4ee91","isLiquidityAdded(address)":"c961304a","launchToken((string,string,string,string,string,string,string))":"fa1c492e","migrateLiqiudity(address)":"446c7222","reserveTarget()":"31ae50bc","sellToken(address,uint256,uint256)":"3e11741f","tokenReserve(address)":"54d39008"},"id":26}