{"abi":[{"type":"constructor","inputs":[{"name":"_tradingFeeRate","type":"uint256","internalType":"uint256"},{"name":"_migrationFeeRate","type":"uint256","internalType":"uint256"},{"name":"_creationFee","type":"uint256","internalType":"uint256"},{"name":"_initVirtualEthReserve","type":"uint256","internalType":"uint256"},{"name":"feeRecipient","type":"address","internalType":"address"},{"name":"router","type":"address","internalType":"address"}],"stateMutability":"nonpayable"},{"type":"function","name":"CURVE_CONSTANT","inputs":[],"outputs":[{"name":"","type":"uint256","internalType":"uint256"}],"stateMutability":"view"},{"type":"function","name":"FEE_DENOMINATOR","inputs":[],"outputs":[{"name":"","type":"uint256","internalType":"uint256"}],"stateMutability":"view"},{"type":"function","name":"INIT_REAL_TOKEN_RESERVE","inputs":[],"outputs":[{"name":"","type":"uint256","internalType":"uint256"}],"stateMutability":"view"},{"type":"function","name":"INIT_VIRTUAL_TOKEN_RESERVE","inputs":[],"outputs":[{"name":"","type":"uint256","internalType":"uint256"}],"stateMutability":"view"},{"type":"function","name":"MAX_FEE","inputs":[],"outputs":[{"name":"","type":"uint256","internalType":"uint256"}],"stateMutability":"view"},{"type":"function","name":"TOTAL_SUPPLY","inputs":[],"outputs":[{"name":"","type":"uint256","internalType":"uint256"}],"stateMutability":"view"},{"type":"function","name":"admin","inputs":[],"outputs":[{"name":"","type":"address","internalType":"address"}],"stateMutability":"view"},{"type":"function","name":"calcAmountOutFromEth","inputs":[{"name":"token","type":"address","internalType":"address"},{"name":"amountIn","type":"uint256","internalType":"uint256"}],"outputs":[{"name":"amountOut","type":"uint256","internalType":"uint256"}],"stateMutability":"view"},{"type":"function","name":"calcAmountOutFromToken","inputs":[{"name":"token","type":"address","internalType":"address"},{"name":"amountIn","type":"uint256","internalType":"uint256"}],"outputs":[{"name":"amountOut","type":"uint256","internalType":"uint256"}],"stateMutability":"view"},{"type":"function","name":"creationFee","inputs":[],"outputs":[{"name":"","type":"uint256","internalType":"uint256"}],"stateMutability":"view"},{"type":"function","name":"initVirtualEthReserve","inputs":[],"outputs":[{"name":"","type":"uint256","internalType":"uint256"}],"stateMutability":"view"},{"type":"function","name":"launchToken","inputs":[{"name":"param","type":"tuple","internalType":"struct TokenLaunchParam","components":[{"name":"name","type":"string","internalType":"string"},{"name":"symbol","type":"string","internalType":"string"},{"name":"description","type":"string","internalType":"string"},{"name":"image","type":"string","internalType":"string"},{"name":"twitterLink","type":"string","internalType":"string"},{"name":"telegramLink","type":"string","internalType":"string"},{"name":"website","type":"string","internalType":"string"}]}],"outputs":[{"name":"","type":"address","internalType":"address"}],"stateMutability":"payable"},{"type":"function","name":"migrationFeeRate","inputs":[],"outputs":[{"name":"","type":"uint256","internalType":"uint256"}],"stateMutability":"view"},{"type":"function","name":"migrationThreshold","inputs":[],"outputs":[{"name":"","type":"uint256","internalType":"uint256"}],"stateMutability":"view"},{"type":"function","name":"paused","inputs":[],"outputs":[{"name":"","type":"bool","internalType":"bool"}],"stateMutability":"view"},{"type":"function","name":"protocolFeeRecipient","inputs":[],"outputs":[{"name":"","type":"address","internalType":"address payable"}],"stateMutability":"view"},{"type":"function","name":"setAdmin","inputs":[{"name":"newAdmin","type":"address","internalType":"address"}],"outputs":[],"stateMutability":"nonpayable"},{"type":"function","name":"setCreationFee","inputs":[{"name":"value","type":"uint256","internalType":"uint256"}],"outputs":[],"stateMutability":"nonpayable"},{"type":"function","name":"setInitVirtualEthReserve","inputs":[{"name":"value","type":"uint256","internalType":"uint256"}],"outputs":[],"stateMutability":"nonpayable"},{"type":"function","name":"setMigrationFeeRate","inputs":[{"name":"value","type":"uint256","internalType":"uint256"}],"outputs":[],"stateMutability":"nonpayable"},{"type":"function","name":"setPaused","inputs":[{"name":"_val","type":"bool","internalType":"bool"}],"outputs":[],"stateMutability":"nonpayable"},{"type":"function","name":"setProtocolFeeRecipient","inputs":[{"name":"recpt","type":"address","internalType":"address"}],"outputs":[],"stateMutability":"nonpayable"},{"type":"function","name":"setTradingFeeRate","inputs":[{"name":"value","type":"uint256","internalType":"uint256"}],"outputs":[],"stateMutability":"nonpayable"},{"type":"function","name":"swapEthForTokens","inputs":[{"name":"token","type":"address","internalType":"address"},{"name":"amountIn","type":"uint256","internalType":"uint256"},{"name":"amountOutMin","type":"uint256","internalType":"uint256"},{"name":"deadline","type":"uint256","internalType":"uint256"}],"outputs":[{"name":"amountOut","type":"uint256","internalType":"uint256"}],"stateMutability":"payable"},{"type":"function","name":"swapRouter","inputs":[],"outputs":[{"name":"","type":"address","internalType":"contract IUniswapV2Router01"}],"stateMutability":"view"},{"type":"function","name":"swapTokensForEth","inputs":[{"name":"token","type":"address","internalType":"address"},{"name":"amountIn","type":"uint256","internalType":"uint256"},{"name":"amountOutMin","type":"uint256","internalType":"uint256"},{"name":"deadline","type":"uint256","internalType":"uint256"}],"outputs":[{"name":"amountOut","type":"uint256","internalType":"uint256"}],"stateMutability":"nonpayable"},{"type":"function","name":"tokenPool","inputs":[{"name":"","type":"address","internalType":"address"}],"outputs":[{"name":"token","type":"address","internalType":"contract RampToken"},{"name":"tokenReserve","type":"uint256","internalType":"uint256"},{"name":"virtualTokenReserve","type":"uint256","internalType":"uint256"},{"name":"ethReserve","type":"uint256","internalType":"uint256"},{"name":"virtualEthReserve","type":"uint256","internalType":"uint256"},{"name":"lastPrice","type":"uint256","internalType":"uint256"},{"name":"lastMcapInEth","type":"uint256","internalType":"uint256"},{"name":"lastTimestamp","type":"uint256","internalType":"uint256"},{"name":"lastBlock","type":"uint256","internalType":"uint256"},{"name":"creator","type":"address","internalType":"address"},{"name":"migrated","type":"bool","internalType":"bool"}],"stateMutability":"view"},{"type":"function","name":"tradingFeeRate","inputs":[],"outputs":[{"name":"","type":"uint256","internalType":"uint256"}],"stateMutability":"view"},{"type":"event","name":"MigrateLiquidity","inputs":[{"name":"token","type":"address","indexed":true,"internalType":"address"},{"name":"ethAmount","type":"uint256","indexed":false,"internalType":"uint256"},{"name":"tokenAmount","type":"uint256","indexed":false,"internalType":"uint256"},{"name":"fee","type":"uint256","indexed":false,"internalType":"uint256"},{"name":"timestamp","type":"uint256","indexed":false,"internalType":"uint256"}],"anonymous":false},{"type":"event","name":"PriceUpdate","inputs":[{"name":"token","type":"address","indexed":true,"internalType":"address"},{"name":"trader","type":"address","indexed":true,"internalType":"address"},{"name":"price","type":"uint256","indexed":false,"internalType":"uint256"},{"name":"mcapEth","type":"uint256","indexed":false,"internalType":"uint256"},{"name":"timestamp","type":"uint256","indexed":false,"internalType":"uint256"}],"anonymous":false},{"type":"event","name":"TokenLaunch","inputs":[{"name":"creator","type":"address","indexed":true,"internalType":"address"},{"name":"token","type":"address","indexed":false,"internalType":"address"},{"name":"name","type":"string","indexed":false,"internalType":"string"},{"name":"symbol","type":"string","indexed":false,"internalType":"string"},{"name":"description","type":"string","indexed":false,"internalType":"string"},{"name":"image","type":"string","indexed":false,"internalType":"string"},{"name":"twitterLink","type":"string","indexed":false,"internalType":"string"},{"name":"telegramLink","type":"string","indexed":false,"internalType":"string"},{"name":"website","type":"string","indexed":false,"internalType":"string"},{"name":"timestamp","type":"uint256","indexed":false,"internalType":"uint256"}],"anonymous":false},{"type":"event","name":"Trade","inputs":[{"name":"trader","type":"address","indexed":true,"internalType":"address"},{"name":"token","type":"address","indexed":true,"internalType":"address"},{"name":"amountIn","type":"uint256","indexed":false,"internalType":"uint256"},{"name":"amountOut","type":"uint256","indexed":false,"internalType":"uint256"},{"name":"fee","type":"uint256","indexed":false,"internalType":"uint256"},{"name":"timestamp","type":"uint256","indexed":false,"internalType":"uint256"},{"name":"isBuy","type":"bool","indexed":false,"internalType":"bool"}],"anonymous":false},{"type":"error","name":"DeadlineExceeded","inputs":[]},{"type":"error","name":"FeeTooHigh","inputs":[]},{"type":"error","name":"InsufficientOutput","inputs":[]},{"type":"error","name":"InsufficientPayment","inputs":[]},{"type":"error","name":"InvalidAmountIn","inputs":[]},{"type":"error","name":"InvalidToken","inputs":[]},{"type":"error","name":"NotPermitted","inputs":[]},{"type":"error","name":"Paused","inputs":[]},{"type":"error","name":"ReentrancyGuardReentrantCall","inputs":[]}],"bytecode":{"object":"0x60a03461011f57601f612f4f38819003918201601f19168301916001600160401b038311848410176101245780849260c09460405283398101031261011f57805190602081015191604082015160608301519361006a60a06100636080870161013a565b950161013a565b9260016000553360018060a01b0319600754161760075560055560065560045560018060a01b0380911660805260085491169060018060a81b03191617600855806001556b037790968dc8efffd100000080820290828204148215171561010957806ae787216768429d21800000916003550490810390811161010957600255604051612e00908161014f823960805181818161068e0152610a810152f35b634e487b7160e01b600052601160045260246000fd5b600080fd5b634e487b7160e01b600052604160045260246000fd5b51906001600160a01b038216820361011f5756fe6080604081815260048036101561001557600080fd5b600092833560e01c908163045b8d7814611378575080631091f67c1461133f57806316c38b3c146112e857806329b53cee14611257578063320a0060146112385780634b103bfa146112115780635c975abb146111ea57806364df049e146111c15780636577327e14611148578063704b6c02146111005780638238e9da146110505780638365546714610df0578063902d55a514610dc957806390bc1e8514610daa578063a134ddf714610d83578063a4c821e614610d3d578063b242483e146107bf578063b7d8622514610792578063bc063e1a14610775578063c1edd5bc146106bd578063c31c9c0714610679578063d73792a91461065c578063dce0b4e41461063f578063e01df1a814610620578063e05f024e14610601578063e521cb92146105a5578063f851a440146105785763fa1c492e1461015757600080fd5b6020916003199183833601126105745780359267ffffffffffffffff908185116105705760e090853603011261056c5782519060e082018281108282111761055957845284830135818111610555576101b590843691880101611415565b82526024850135818111610555576101d290843691880101611415565b908683019182526044860135818111610551576101f490853691890101611415565b90858401918252606487013581811161054d57610216908636918a0101611415565b966060850197885260848101358281116105495761023990873691840101611415565b6080860190815260a48201358381116105455761025b90883691850101611415565b9160a0870192835260c481013590848211610541578861027e9236920101611415565b9260c0870193845260085460ff8160a01c166105315788548034106105215780610508575b5050865186518a51926117e280850193918411858510176104f4576102f98f8695946102ec6b033b2e3c9fd0803ce8000000956080956115e98a3960a0885260a08801906114cf565b91868303908701526114cf565b308e85015233606085015292015203908cf080156104ea5760018060a01b031698898c5260098b52888c20978a6001600160601b0360a01b8a54161789556b029009752660ad62af80000060018a01556b037790968dc8efffd1000000908160028b01558d60038b015560015480918b0155670de0b6b3a7640000907812725dd1d243aba0e75fe645cc4873f9e65afe688c928e1f2181118202158302156104e6578c9d9e509b999a9b0204968760058b01556103b588611532565b998a6006820155426007820155436008820155600901805460ff60a01b193316906affffffffffffffffffffff60a81b1617905551955194519051915192519351948a51968d61012080918c8b528a01528801610411916114cf565b8781038c890152610421916114cf565b8681036060880152610432916114cf565b8581036080870152610443916114cf565b84810360a0860152610454916114cf565b83810360c0850152610465916114cf565b82810360e0840152610476916114cf565b9042610100820152803392037f4c3449617a987f0d9b9e9b06cc25e185a3bf4ee8d294d61d2e310a9a0ec498b091a28351908152602081019290925242604083015233917feadf1668b2f8926f6538c3b24fceb72251daa320b74c8c36da738cce051c48c090606090a351908152f35b8e80fd5b88513d8d823e3d90fd5b50634e487b7160e01b8f5260418b5260248ffd5b61051a916001600160a01b0316611568565b38806102a3565b8a5163cd1c886760e01b81528a90fd5b89516313d0ff5960e31b81528990fd5b8c80fd5b8b80fd5b8a80fd5b8980fd5b8880fd5b8780fd5b634e487b7160e01b885260418452602488fd5b8580fd5b8680fd5b8480fd5b5050346105a157816003193601126105a15760075490516001600160a01b039091168152602090f35b5080fd5b50346105fd5760203660031901126105fd576105bf611394565b6007546001600160a01b039391929190841633036105f0575050166001600160601b0360a01b600854161760085580f35b516339218f3b60e01b8152fd5b8280fd5b5050346105a157816003193601126105a1576020906006549051908152f35b5050346105a157816003193601126105a1576020906005549051908152f35b50346105fd57826003193601126105fd5760209250549051908152f35b5050346105a157816003193601126105a157602090516127108152f35b5050346105a157816003193601126105a157517f00000000000000000000000000000000000000000000000000000000000000006001600160a01b03168152602090f35b5091346107725781600319360112610772576106d7611394565b60243580156107625792809261074161072e61072660019561070c60209a996127106107056005548361146c565b0490611495565b90878060a01b03169889865260098b5286862001546114c2565b6003546114a2565b8683526009885260028484200154611495565b9481526009865220015480831161075a575b5051908152f35b915038610753565b505050516365719fe160e11b8152fd5b80fd5b5050346105a157816003193601126105a157602090516103e88152f35b5090346105fd5760203660031901126105fd576007546001600160a01b031633036105f057508035905580f35b50906107ca366113af565b9492916107d561150f565b6008549560ff8760a01c16610d2d574211610d1d578695813410610d0d578115610cfd5790610818929161271061080e6005548461146c565b0493848093611495565b946001600160a01b0392839261083091908416611568565b169485895260096020526009878a20015460ff8160a01c161561089f575b6020898960018d8b8b8b85519182528688830152858201524260608201528360808201527f3893b12ea2017f00ca6b320ece400190bef0f01352a842b563729af4b14e8f3660a03392a35551908152f35b9297509091821615610ca25784885260096020526108c28482888b2001546114c2565b6108ce816003546114a2565b868a5260096020526108e68160028a8d200154611495565b98878b5260096020526001898c200154808b11610cf5575b508910610ce5579061093661092b600393898d5260096020528a8d209380878601558160028601556115b3565b806005840155611532565b6006820155426007820155436008820155016109538582546114c2565b9055848852600960205260018689200161096e888254611495565b90556020886044885163a9059cbb60e01b815233858201528a602482015282895af13d15601f3d1160018b511416171615610cb0578488526009602052858820857feadf1668b2f8926f6538c3b24fceb72251daa320b74c8c36da738cce051c48c06109fe60066005850154940154938a5191829133964291846040919493926060820195825260208201520152565b0390a3848852600960205285882060038101546002541115610a21575b8061084e565b60090154821615610ca2578488526009602052612710610a566003888b2042600782015543600882015501546006549061146c565b0490610a66828460085416611568565b8589526009602052610a7e826003898c200154611495565b927f000000000000000000000000000000000000000000000000000000000000000016604460208b8a519283809263095ea7b360e01b825286888301526aab24c7796fd2da3880000060248301528c5af1908115610c98578b91610c5d575b5015610c2257603c420190814211610c0f578a60c489876060948d51968795869463f305d71960e01b86528a8601526aab24c7796fd2da3880000060248601526aab24c7796fd2da388000006044860152836064860152608485015260a48401525af18015610c0557610bda575b50947f65c231e936d70d7a41e58177a7ba86c5618d417ad6e22b2b8890566c2dede5c360808a9694839694886001809b60209f8e898252602060099052812091600983018460a01b60ff60a01b1982541617905582015582600282015582600382015501558a519182526aab24c7796fd2da388000008d8301528a820152426060820152a29193819397610a1b565b606090813d8311610bfe575b610bf081836113dd565b810103126105515738610b4b565b503d610be6565b88513d8c823e3d90fd5b634e487b7160e01b8b526011835260248bfd5b875162461bcd60e51b815260208184015260156024820152741d1bdad95b88185c1c1c9bdd985b0819985a5b1959605a1b6044820152606490fd5b90506020813d602011610c90575b81610c78602093836113dd565b81010312610549575180151581036105495738610add565b3d9150610c6b565b89513d8d823e3d90fd5b855163c1ab6dc160e01b8152fd5b606490602087519162461bcd60e51b8352820152600f60248201526e1514905394d1915497d19052531151608a1b6044820152fd5b875163bb2875c360e01b81528390fd5b9950386108fe565b85516365719fe160e11b81528590fd5b855163cd1c886760e01b81528590fd5b845163559895a360e01b81528490fd5b85516313d0ff5960e31b81528590fd5b50346105fd5760203660031901126105fd57600754813592906001600160a01b031633036105f0576103e88311610d7657505060065580f35b5163cd4e616760e01b8152fd5b5050346105a157816003193601126105a157602090516b037790968dc8efffd10000008152f35b5050346105a157816003193601126105a1576020906002549051908152f35b5050346105a157816003193601126105a157602090516b033b2e3c9fd0803ce80000008152f35b50823461077257610e00366113af565b610e0e96939694929461150f565b60ff60085460a01c1661104057421161103057819380156110205760018060a01b038097169081845260099660209780895280878720015460ff8160a01c1615610e60575b89898960018a5551908152f35b8a919293949598501615611011578785606488516323b872dd60e01b8152338682015230602482015286604482015282885af13d15601f3d11600188511416171615610fd7579081600189610f0561092b898397610eec8b898f610ed08e848852868b52600283892001546114c2565b9585610ede886003546114a2565b9a8b95835252200154611495565b988b8d52528b8b209381600286015580888601556115b3565b600682015542600782015543600882015501610f228582546114c2565b90558486528852600386862001610f3a838254611495565b9055610f56612710610f4e6005548561146c565b048093611495565b968710610fc95750610f718160019697989960085416611568565b610f7b8733611568565b85519182528688830152858201524260608201528260808201527f3893b12ea2017f00ca6b320ece400190bef0f01352a842b563729af4b14e8f3660a03392a3849392918680808080610e53565b855163bb2875c360e01b8152fd5b855162461bcd60e51b815280830189905260146024820152731514905394d1915497d19493d357d1905253115160621b6044820152606490fd5b50845163c1ab6dc160e01b8152fd5b83516365719fe160e11b81528690fd5b825163559895a360e01b81528590fd5b83516313d0ff5960e31b81528690fd5b50346105fd5760203660031901126105fd576101609260ff91906001600160a01b039084908261107e611394565b1681526009602052208181541694600182015493600283015490600384015490840154600585015491600686015493600787015495600960088901549801549981519c8d5260208d01528b015260608a0152608089015260a088015260c087015260e0860152610100850152811661012084015260a01c161515610140820152f35b5090346105fd5760203660031901126105fd5761111b611394565b600754926001600160a01b039283851633036105f057505016906001600160601b0360a01b161760075580f35b509134610772578160031936011261077257611162611394565b906024359182156107625791602094846111ab9361119c6107266111ba9760018060a01b03169586845260098b52600285852001546114c2565b93815260098852200154611495565b6127106107056005548361146c565b9051908152f35b5050346105a157816003193601126105a15760085490516001600160a01b039091168152602090f35b5050346105a157816003193601126105a15760209060ff60085460a01c1690519015158152f35b5050346105a157816003193601126105a157602090516b029009752660ad62af8000008152f35b5050346105a157816003193601126105a1576020906001549051908152f35b509190346105a15760203660031901126105a157600754833591906001600160a01b031633036112d95750806001556b037790968dc8efffd1000000928382029382850414821517156112c657506ae787216768429d21800000836112c0939460035504611495565b60025580f35b634e487b7160e01b835260119052602482fd5b516339218f3b60e01b81528390fd5b50346105fd5760203660031901126105fd5780359182151580930361133b576007546001600160a01b031633036105f05750506008805460ff60a01b191660a09290921b60ff60a01b1691909117905580f35b8380fd5b50346105fd5760203660031901126105fd57600754813592906001600160a01b031633036105f0576103e88311610d7657505060055580f35b8490346105a157816003193601126105a1576020906003548152f35b600435906001600160a01b03821682036113aa57565b600080fd5b60809060031901126113aa576004356001600160a01b03811681036113aa5790602435906044359060643590565b90601f8019910116810190811067ffffffffffffffff8211176113ff57604052565b634e487b7160e01b600052604160045260246000fd5b81601f820112156113aa5780359067ffffffffffffffff82116113ff576040519261144a601f8401601f1916602001856113dd565b828452602083830101116113aa57816000926020809301838601378301015290565b8181029291811591840414171561147f57565b634e487b7160e01b600052601160045260246000fd5b9190820391821161147f57565b81156114ac570490565b634e487b7160e01b600052601260045260246000fd5b9190820180921161147f57565b919082519283825260005b8481106114fb575050826000602080949584010152601f8019910116010190565b6020818301810151848301820152016114da565b600260005414611520576002600055565b604051633ee5aeb560e01b8152600490fd5b670de0b6b3a7640000906b033b2e3c9fd0803ce800000060001982900481118202158302156113aa570290808204910615150190565b600080809381935af11561157857565b60405162461bcd60e51b815260206004820152601360248201527211551217d514905394d1915497d19052531151606a1b6044820152606490fd5b670de0b6b3a7640000907812725dd1d243aba0e75fe645cc4873f9e65afe688c928e1f2181118202158302156113aa5702049056fe6101a0604090808252346104b6576117e2803803809161001f82856104bb565b833981019060a0818303126104b65780516001600160401b0392908381116104b6578161004d918401610501565b60209182840151908582116104b657610067918501610501565b94610073818501610555565b92608061008260608701610555565b95015190825197838901898110898211176103cd578452600197888a52828a0198603160f81b8a5286518281116103cd5760038054918383811c931680156104ac575b8784101461049657601f92838111610450575b5080878482116001146103ee576000916103e3575b5060001982841b1c191690841b1781555b8451918483116103cd5760049586548581811c911680156103c3575b898210146103ae57828111610368575b5087918411600114610302579383949184926000956102f7575b50501b92600019911b1c19161782555b61015d86610569565b98610120998a5261016d8b6106fa565b966101409788528481519101209a8b60e0525190206101009a818c524660a052865191858301917f8b73c3c69bb8fe3d512ecc4cf759cc79239f7b179b0ffacaa9a75d522b39400f83528884015260608301524660808301523060a083015260a0825260c0820192828410908411176102e257828752815190206080523060c05260ff196008541660085561016097885261018098895233156102cb575050600254908382018092116102b657506000917fddf252ad1be2c89b69c2b068fc378daa952ba7f163c4a11628f55a4df523b3ef9160025533835282815284832084815401905584519384523393a35193610fa29586610840873960805186610b0e015260a05186610bda015260c05186610ad8015260e05186610b5d01525185610b830152518461045f0152518361048901525182818161030101526105b4015251816108c90152f35b601190634e487b7160e01b6000525260246000fd5b63ec442f0560e01b8252600060c490910152602490fd5b604184634e487b7160e01b6000525260246000fd5b015193503880610144565b9190601f198416928760005284896000209460005b8b898383106103515750505010610337575b50505050811b018255610154565b01519060f884600019921b161c1916905538808080610329565b868601518955909701969485019488935001610317565b87600052886000208380870160051c8201928b88106103a5575b0160051c019086905b82811061039957505061012a565b6000815501869061038b565b92508192610382565b602288634e487b7160e01b6000525260246000fd5b90607f169061011a565b634e487b7160e01b600052604160045260246000fd5b90508a0151386100ed565b60008481528981208794509190601f198416908b8f5b838310610439575050508311610421575b5050811b0181556100fe565b8c015160001983861b60f8161c191690553880610415565b840151855589969094019392830192018b8f610404565b82600052876000208480840160051c8201928a851061048d575b0160051c019085905b8281106104815750506100d8565b60008155018590610473565b9250819261046a565b634e487b7160e01b600052602260045260246000fd5b92607f16926100c5565b600080fd5b601f909101601f19168101906001600160401b038211908210176103cd57604052565b60005b8381106104f15750506000910152565b81810151838201526020016104e1565b81601f820112156104b65780516001600160401b0381116103cd5760405192610534601f8301601f1916602001856104bb565b818452602082840101116104b65761055291602080850191016104de565b90565b51906001600160a01b03821682036104b657565b805160209190828110156105e4575090601f8251116105a4578082519201519080831061059557501790565b82600019910360031b1b161790565b6044906105d69260405193849263305a27a960e01b8452806004850152825192839182602487015286860191016104de565b601f01601f19168101030190fd5b6001600160401b0381116103cd576005928354926001938481811c911680156106f0575b8382101461049657601f81116106bc575b5081601f8411600114610656575092829391839260009461064b575b50501b916000199060031b1c191617905560ff90565b015192503880610635565b919083601f1981168760005284600020946000905b888383106106a25750505010610689575b505050811b01905560ff90565b015160001960f88460031b161c1916905538808061067c565b85870151885590960195948501948793509081019061066b565b8560005284601f846000209201871c820191601f8601881c015b8281106106e4575050610619565b600081550185906106d6565b90607f1690610608565b8051602090818110156107245750601f8251116105a4578082519201519080831061059557501790565b906001600160401b0382116103cd57600654926001938481811c91168015610835575b8382101461049657601f81116107fe575b5081601f8411600114610796575092829391839260009461078b575b50501b916000199060031b1c19161760065560ff90565b015192503880610774565b919083601f198116600660005284600020946000905b888383106107e457505050106107cb575b505050811b0160065560ff90565b015160001960f88460031b161c191690553880806107bd565b8587015188559096019594850194879350908101906107ac565b600660005284601f84600020920160051c820191601f860160051c015b828110610829575050610758565b6000815501859061081b565b90607f169061074756fe608060408181526004918236101561001657600080fd5b600092833560e01c91826302d05d3f146108b55750816306fdde03146107da578163095ea7b31461079457816318160ddd1461077557816323b872dd1461067e578163313ce5671461066257816331a18ea11461063e5781633644e5151461061a57816370a08231146105e35781637165485d1461059f5781637ecebe001461056757816384b0196e1461044757816395d89b4114610357578163a71406b6146102df578163a9059cbb146102ae578163d505accf1461012b575063dd62ed3e146100e057600080fd5b34610127578060031936011261012757806020926100fc610938565b610104610953565b6001600160a01b0391821683526001865283832091168252845220549051908152f35b5080fd5b839150346101275760e036600319011261012757610147610938565b61014f610953565b906044359260643560843560ff811681036102aa5760ff600854161561029a578142116102835760018060a01b0390818516928389526007602052898920908154916001830190558a519060208201927f6e71edae12b1b97f4d1f60370fef10105fa2faae0126114a169c64845d6126c98452868d840152858a1660608401528a608084015260a083015260c082015260c0815260e0810181811067ffffffffffffffff821117610270578b5251902061023e916102359161020f610ad5565b908c519161190160f01b83526002830152602282015260c43591604260a4359220610e57565b90929192610ee7565b168181036102555786610252878787610c00565b80f35b87516325c0072360e11b815292830152602482015260449150fd5b634e487b7160e01b8b526041875260248bfd5b875163313c898160e11b8152808401839052602490fd5b875163ad8c648b60e01b81528390fd5b8680fd5b5050346101275780600319360112610127576020906102d86102ce610938565b60243590336109f7565b5160018152f35b9050346103535760203660031901126103535780359182151580930361034f577f00000000000000000000000000000000000000000000000000000000000000006001600160a01b0316330361034257505060ff80196008541691161760085580f35b516363f46cb560e01b8152fd5b8380fd5b8280fd5b91905034610353578260031936011261035357805183819490845461037b81610969565b918285526020966001928860018216918260001461041d5750506001146103c2575b85886103be896103af848a03856109d5565b519282849384528301906108f8565b0390f35b815286935091907f8a35acfbc15ff81a39ae7d344fd709f28e8600b4aa8c65c6b64bfe7fe36bd19b5b82841061040557505050820101816103af6103be3861039d565b8054848a0186015288955087949093019281016103eb565b60ff19168882015294151560051b870190940194508593506103af92506103be915038905061039d565b919050346103535782600319360112610353576104837f0000000000000000000000000000000000000000000000000000000000000000610c93565b926104ad7f0000000000000000000000000000000000000000000000000000000000000000610d97565b90825192602092602085019585871067ffffffffffffffff881117610554575092602061050a8388966104fd998b9996528686528151998a99600f60f81b8b5260e0868c015260e08b01906108f8565b91898303908a01526108f8565b924660608801523060808801528460a088015286840360c088015251928381520193925b82811061053d57505050500390f35b83518552869550938101939281019260010161052e565b634e487b7160e01b845260419052602483fd5b5050346101275760203660031901126101275760209181906001600160a01b0361058f610938565b1681526007845220549051908152f35b505034610127578160031936011261012757517f00000000000000000000000000000000000000000000000000000000000000006001600160a01b03168152602090f35b5050346101275760203660031901126101275760209181906001600160a01b0361060b610938565b16815280845220549051908152f35b505034610127578160031936011261012757602090610637610ad5565b9051908152f35b50503461012757816003193601126101275760209060ff6008541690519015158152f35b5050346101275781600319360112610127576020905160128152f35b905082346107725760603660031901126107725761069a610938565b6106a2610953565b916044359360018060a01b0383168083526001602052868320338452602052868320549160001983036106de575b6020886102d88989896109f7565b86831061074657811561072f573315610718575082526001602090815286832033845281529186902090859003905582906102d8876106d0565b8751634a1406b160e11b8152908101849052602490fd5b875163e602df0560e01b8152908101849052602490fd5b8751637dc7a0d960e11b8152339181019182526020820193909352604081018790528291506060010390fd5b80fd5b5050346101275781600319360112610127576020906002549051908152f35b828434610772578160031936011261077257506107af610938565b9160ff60085416156107cc57506102d86020926024359033610c00565b905163ad8c648b60e01b8152fd5b82843461077257806003193601126107725781519182826003546107fd81610969565b908184526020956001918760018216918260001461088e575050600114610832575b5050506103be92916103af9103856109d5565b9190869350600383527fc2575a0e9e593c00f959f8c92f12db2869c3395a3b0502d05e2516446f71f85b5b82841061087657505050820101816103af6103be61081f565b8054848a01860152889550879490930192810161085d565b60ff19168782015293151560051b860190930193508492506103af91506103be905061081f565b8490346101275781600319360112610127577f00000000000000000000000000000000000000000000000000000000000000006001600160a01b03168152602090f35b919082519283825260005b848110610924575050826000602080949584010152601f8019910116010190565b602081830181015184830182015201610903565b600435906001600160a01b038216820361094e57565b600080fd5b602435906001600160a01b038216820361094e57565b90600182811c92168015610999575b602083101461098357565b634e487b7160e01b600052602260045260246000fd5b91607f1691610978565b6040810190811067ffffffffffffffff8211176109bf57604052565b634e487b7160e01b600052604160045260246000fd5b90601f8019910116810190811067ffffffffffffffff8211176109bf57604052565b916001600160a01b03808416928315610abc5716928315610aa35760009083825281602052604082205490838210610a71575091604082827fddf252ad1be2c89b69c2b068fc378daa952ba7f163c4a11628f55a4df523b3ef958760209652828652038282205586815220818154019055604051908152a3565b60405163391434e360e21b81526001600160a01b03919091166004820152602481019190915260448101839052606490fd5b60405163ec442f0560e01b815260006004820152602490fd5b604051634b637e8f60e11b815260006004820152602490fd5b307f00000000000000000000000000000000000000000000000000000000000000006001600160a01b03161480610bd7575b15610b30577f000000000000000000000000000000000000000000000000000000000000000090565b60405160208101907f8b73c3c69bb8fe3d512ecc4cf759cc79239f7b179b0ffacaa9a75d522b39400f82527f000000000000000000000000000000000000000000000000000000000000000060408201527f000000000000000000000000000000000000000000000000000000000000000060608201524660808201523060a082015260a0815260c0810181811067ffffffffffffffff8211176109bf5760405251902090565b507f00000000000000000000000000000000000000000000000000000000000000004614610b07565b6001600160a01b03908116918215610c7a5716918215610c615760207f8c5be1e5ebec7d5bd14f71427d1e84f3dd0314c0f7b2291e5b200ac8c7c3b925918360005260018252604060002085600052825280604060002055604051908152a3565b604051634a1406b160e11b815260006004820152602490fd5b60405163e602df0560e01b815260006004820152602490fd5b60ff8114610cd15760ff811690601f8211610cbf5760405191610cb5836109a3565b8252602082015290565b604051632cd44ac360e21b8152600490fd5b50604051600554816000610ce483610969565b80835292602090600190818116908115610d735750600114610d12575b5050610d0f925003826109d5565b90565b91509260056000527f036b6384b5eca791c62761152d0c79bb0604c104a5fb6f4eb0703f3154bb3db0936000925b828410610d5b5750610d0f9450505081016020013880610d01565b85548785018301529485019486945092810192610d40565b91505060209250610d0f94915060ff191682840152151560051b8201013880610d01565b60ff8114610db95760ff811690601f8211610cbf5760405191610cb5836109a3565b50604051600654816000610dcc83610969565b80835292602090600190818116908115610d735750600114610df6575050610d0f925003826109d5565b91509260066000527ff652222313e28459528d920b65115c16c04f3efc82aaedc97be59f3f377c0d3f936000925b828410610e3f5750610d0f9450505081016020013880610d01565b85548785018301529485019486945092810192610e24565b91907f7fffffffffffffffffffffffffffffff5d576e7357a4501ddfe92f46681b20a08411610edb57926020929160ff608095604051948552168484015260408301526060820152600092839182805260015afa15610ecf5780516001600160a01b03811615610ec657918190565b50809160019190565b604051903d90823e3d90fd5b50505060009160039190565b6004811015610f565780610ef9575050565b60018103610f135760405163f645eedf60e01b8152600490fd5b60028103610f345760405163fce698f760e01b815260048101839052602490fd5b600314610f3e5750565b602490604051906335e2f38360e21b82526004820152fd5b634e487b7160e01b600052602160045260246000fdfea26469706673582212202400dbd92366523f6564f6cb06e34d7dae628e0e496bed6ce1a69ea50075abf164736f6c63430008190033a2646970667358221220e98ca26d379c10260064b0f4414c727392ffc83e374f31bbff72076720d8566b64736f6c63430008190033","linkReferences":{}},"methodIdentifiers":{"CURVE_CONSTANT()":"045b8d78","FEE_DENOMINATOR()":"d73792a9","INIT_REAL_TOKEN_RESERVE()":"4b103bfa","INIT_VIRTUAL_TOKEN_RESERVE()":"a134ddf7","MAX_FEE()":"bc063e1a","TOTAL_SUPPLY()":"902d55a5","admin()":"f851a440","calcAmountOutFromEth(address,uint256)":"c1edd5bc","calcAmountOutFromToken(address,uint256)":"6577327e","creationFee()":"dce0b4e4","initVirtualEthReserve()":"320a0060","launchToken((string,string,string,string,string,string,string))":"fa1c492e","migrationFeeRate()":"e05f024e","migrationThreshold()":"90bc1e85","paused()":"5c975abb","protocolFeeRecipient()":"64df049e","setAdmin(address)":"704b6c02","setCreationFee(uint256)":"b7d86225","setInitVirtualEthReserve(uint256)":"29b53cee","setMigrationFeeRate(uint256)":"a4c821e6","setPaused(bool)":"16c38b3c","setProtocolFeeRecipient(address)":"e521cb92","setTradingFeeRate(uint256)":"1091f67c","swapEthForTokens(address,uint256,uint256,uint256)":"b242483e","swapRouter()":"c31c9c07","swapTokensForEth(address,uint256,uint256,uint256)":"83655467","tokenPool(address)":"8238e9da","tradingFeeRate()":"e01df1a8"},"id":45}