{"abi":[{"type":"constructor","inputs":[{"name":"_tradingFeeRate","type":"uint256","internalType":"uint256"},{"name":"_migrationFeeRate","type":"uint256","internalType":"uint256"},{"name":"_creationFee","type":"uint256","internalType":"uint256"},{"name":"_initVirtualEthReserve","type":"uint256","internalType":"uint256"},{"name":"feeRecipient","type":"address","internalType":"address"},{"name":"router","type":"address","internalType":"address"},{"name":"factory","type":"address","internalType":"address"}],"stateMutability":"nonpayable"},{"type":"function","name":"CURVE_CONSTANT","inputs":[],"outputs":[{"name":"","type":"uint256","internalType":"uint256"}],"stateMutability":"view"},{"type":"function","name":"FEE_DENOMINATOR","inputs":[],"outputs":[{"name":"","type":"uint256","internalType":"uint256"}],"stateMutability":"view"},{"type":"function","name":"INIT_REAL_TOKEN_RESERVE","inputs":[],"outputs":[{"name":"","type":"uint256","internalType":"uint256"}],"stateMutability":"view"},{"type":"function","name":"INIT_VIRTUAL_TOKEN_RESERVE","inputs":[],"outputs":[{"name":"","type":"uint256","internalType":"uint256"}],"stateMutability":"view"},{"type":"function","name":"MAX_FEE","inputs":[],"outputs":[{"name":"","type":"uint256","internalType":"uint256"}],"stateMutability":"view"},{"type":"function","name":"TOTAL_SUPPLY","inputs":[],"outputs":[{"name":"","type":"uint256","internalType":"uint256"}],"stateMutability":"view"},{"type":"function","name":"admin","inputs":[],"outputs":[{"name":"","type":"address","internalType":"address"}],"stateMutability":"view"},{"type":"function","name":"calcAmountOutFromEth","inputs":[{"name":"token","type":"address","internalType":"address"},{"name":"amountIn","type":"uint256","internalType":"uint256"}],"outputs":[{"name":"amountOut","type":"uint256","internalType":"uint256"}],"stateMutability":"view"},{"type":"function","name":"calcAmountOutFromToken","inputs":[{"name":"token","type":"address","internalType":"address"},{"name":"amountIn","type":"uint256","internalType":"uint256"}],"outputs":[{"name":"amountOut","type":"uint256","internalType":"uint256"}],"stateMutability":"view"},{"type":"function","name":"creationFee","inputs":[],"outputs":[{"name":"","type":"uint256","internalType":"uint256"}],"stateMutability":"view"},{"type":"function","name":"initVirtualEthReserve","inputs":[],"outputs":[{"name":"","type":"uint256","internalType":"uint256"}],"stateMutability":"view"},{"type":"function","name":"launchToken","inputs":[{"name":"param","type":"tuple","internalType":"struct TokenLaunchParam","components":[{"name":"name","type":"string","internalType":"string"},{"name":"symbol","type":"string","internalType":"string"},{"name":"description","type":"string","internalType":"string"},{"name":"image","type":"string","internalType":"string"},{"name":"twitterLink","type":"string","internalType":"string"},{"name":"telegramLink","type":"string","internalType":"string"},{"name":"website","type":"string","internalType":"string"}]}],"outputs":[{"name":"","type":"address","internalType":"address"}],"stateMutability":"payable"},{"type":"function","name":"migrationFeeRate","inputs":[],"outputs":[{"name":"","type":"uint256","internalType":"uint256"}],"stateMutability":"view"},{"type":"function","name":"migrationThreshold","inputs":[],"outputs":[{"name":"","type":"uint256","internalType":"uint256"}],"stateMutability":"view"},{"type":"function","name":"paused","inputs":[],"outputs":[{"name":"","type":"bool","internalType":"bool"}],"stateMutability":"view"},{"type":"function","name":"protocolFeeRecipient","inputs":[],"outputs":[{"name":"","type":"address","internalType":"address payable"}],"stateMutability":"view"},{"type":"function","name":"setAdmin","inputs":[{"name":"newAdmin","type":"address","internalType":"address"}],"outputs":[],"stateMutability":"nonpayable"},{"type":"function","name":"setCreationFee","inputs":[{"name":"value","type":"uint256","internalType":"uint256"}],"outputs":[],"stateMutability":"nonpayable"},{"type":"function","name":"setInitVirtualEthReserve","inputs":[{"name":"value","type":"uint256","internalType":"uint256"}],"outputs":[],"stateMutability":"nonpayable"},{"type":"function","name":"setMigrationFeeRate","inputs":[{"name":"value","type":"uint256","internalType":"uint256"}],"outputs":[],"stateMutability":"nonpayable"},{"type":"function","name":"setPaused","inputs":[{"name":"_val","type":"bool","internalType":"bool"}],"outputs":[],"stateMutability":"nonpayable"},{"type":"function","name":"setProtocolFeeRecipient","inputs":[{"name":"recpt","type":"address","internalType":"address"}],"outputs":[],"stateMutability":"nonpayable"},{"type":"function","name":"setTradingFeeRate","inputs":[{"name":"value","type":"uint256","internalType":"uint256"}],"outputs":[],"stateMutability":"nonpayable"},{"type":"function","name":"swapEthForTokens","inputs":[{"name":"token","type":"address","internalType":"address"},{"name":"amountIn","type":"uint256","internalType":"uint256"},{"name":"amountOutMin","type":"uint256","internalType":"uint256"},{"name":"deadline","type":"uint256","internalType":"uint256"}],"outputs":[{"name":"amountOut","type":"uint256","internalType":"uint256"}],"stateMutability":"payable"},{"type":"function","name":"swapRouter","inputs":[],"outputs":[{"name":"","type":"address","internalType":"contract IUniswapV2Router02"}],"stateMutability":"view"},{"type":"function","name":"swapTokensForEth","inputs":[{"name":"token","type":"address","internalType":"address"},{"name":"amountIn","type":"uint256","internalType":"uint256"},{"name":"amountOutMin","type":"uint256","internalType":"uint256"},{"name":"deadline","type":"uint256","internalType":"uint256"}],"outputs":[{"name":"amountOut","type":"uint256","internalType":"uint256"}],"stateMutability":"nonpayable"},{"type":"function","name":"tokenPool","inputs":[{"name":"","type":"address","internalType":"address"}],"outputs":[{"name":"token","type":"address","internalType":"contract RampToken"},{"name":"tokenReserve","type":"uint256","internalType":"uint256"},{"name":"virtualTokenReserve","type":"uint256","internalType":"uint256"},{"name":"ethReserve","type":"uint256","internalType":"uint256"},{"name":"virtualEthReserve","type":"uint256","internalType":"uint256"},{"name":"lastPrice","type":"uint256","internalType":"uint256"},{"name":"lastMcapInEth","type":"uint256","internalType":"uint256"},{"name":"lastTimestamp","type":"uint256","internalType":"uint256"},{"name":"lastBlock","type":"uint256","internalType":"uint256"},{"name":"creator","type":"address","internalType":"address"},{"name":"migrated","type":"bool","internalType":"bool"}],"stateMutability":"view"},{"type":"function","name":"tradingFeeRate","inputs":[],"outputs":[{"name":"","type":"uint256","internalType":"uint256"}],"stateMutability":"view"},{"type":"function","name":"uniswapV2Factory","inputs":[],"outputs":[{"name":"","type":"address","internalType":"contract IUniswapV2Factory"}],"stateMutability":"view"},{"type":"event","name":"MigrateLiquidity","inputs":[{"name":"token","type":"address","indexed":true,"internalType":"address"},{"name":"pair","type":"address","indexed":true,"internalType":"address"},{"name":"ethAmount","type":"uint256","indexed":false,"internalType":"uint256"},{"name":"tokenAmount","type":"uint256","indexed":false,"internalType":"uint256"},{"name":"fee","type":"uint256","indexed":false,"internalType":"uint256"},{"name":"timestamp","type":"uint256","indexed":false,"internalType":"uint256"}],"anonymous":false},{"type":"event","name":"PriceUpdate","inputs":[{"name":"token","type":"address","indexed":true,"internalType":"address"},{"name":"trader","type":"address","indexed":true,"internalType":"address"},{"name":"price","type":"uint256","indexed":false,"internalType":"uint256"},{"name":"mcapEth","type":"uint256","indexed":false,"internalType":"uint256"},{"name":"timestamp","type":"uint256","indexed":false,"internalType":"uint256"}],"anonymous":false},{"type":"event","name":"TokenLaunch","inputs":[{"name":"creator","type":"address","indexed":true,"internalType":"address"},{"name":"token","type":"address","indexed":false,"internalType":"address"},{"name":"name","type":"string","indexed":false,"internalType":"string"},{"name":"symbol","type":"string","indexed":false,"internalType":"string"},{"name":"description","type":"string","indexed":false,"internalType":"string"},{"name":"image","type":"string","indexed":false,"internalType":"string"},{"name":"twitterLink","type":"string","indexed":false,"internalType":"string"},{"name":"telegramLink","type":"string","indexed":false,"internalType":"string"},{"name":"website","type":"string","indexed":false,"internalType":"string"},{"name":"timestamp","type":"uint256","indexed":false,"internalType":"uint256"}],"anonymous":false},{"type":"event","name":"Trade","inputs":[{"name":"trader","type":"address","indexed":true,"internalType":"address"},{"name":"token","type":"address","indexed":true,"internalType":"address"},{"name":"amountIn","type":"uint256","indexed":false,"internalType":"uint256"},{"name":"amountOut","type":"uint256","indexed":false,"internalType":"uint256"},{"name":"fee","type":"uint256","indexed":false,"internalType":"uint256"},{"name":"timestamp","type":"uint256","indexed":false,"internalType":"uint256"},{"name":"isBuy","type":"bool","indexed":false,"internalType":"bool"}],"anonymous":false},{"type":"error","name":"DeadlineExceeded","inputs":[]},{"type":"error","name":"FeeTooHigh","inputs":[]},{"type":"error","name":"InsufficientOutput","inputs":[]},{"type":"error","name":"InsufficientPayment","inputs":[]},{"type":"error","name":"InvalidAmountIn","inputs":[]},{"type":"error","name":"InvalidToken","inputs":[]},{"type":"error","name":"NotPermitted","inputs":[]},{"type":"error","name":"Paused","inputs":[]},{"type":"error","name":"ReentrancyGuardReentrantCall","inputs":[]}],"bytecode":{"object":"0x60c03461015057601f61321f38819003918201601f19168301916001600160401b038311848410176101555780849260e09460405283398101031261015057805160208201519060408301519260608101519361005e6080830161016b565b9361007760c061007060a0860161016b565b940161016b565b9360016000553360018060a01b0319600754161760075560055560065560045560018060a01b0391828092166080521660a05260085491169060018060a81b03191617600855806001556b037790968dc8efffd100000080820290828204148215171561013a57806ae787216768429d21800000916003550490810390811161013a5760025560405161309f908161018082396080518181816106b601528181610b8801528181610bf90152610cfb015260a051818181610c6601526114340152f35b634e487b7160e01b600052601160045260246000fd5b600080fd5b634e487b7160e01b600052604160045260246000fd5b51906001600160a01b03821682036101505756fe608080604052600436101561001357600080fd5b600090813560e01c908163045b8d78146115b2575080631091f67c1461157b57806316c38b3c1461152657806329b53cee146114a8578063320a00601461148a5780634b103bfa1461146357806359d0f7131461141e5780635c975abb146113f857806364df049e146113cf5780636577327e14611353578063704b6c021461130e5780638238e9da1461125b5780638365546714611044578063902d55a51461101d57806390bc1e8514610fff578063a134ddf714610fd8578063a4c821e614610f8f578063b242483e146107e9578063b7d86225146107bc578063bc063e1a1461079f578063c1edd5bc146106e5578063c31c9c07146106a0578063d73792a914610683578063dce0b4e414610665578063e01df1a814610647578063e05f024e14610629578063e521cb92146105d1578063f851a440146105a55763fa1c492e1461016057600080fd5b602060031981813601126105a1576004359067ffffffffffffffff9081831161059d5760e09083360301126105995760405160e081018181108382111761058357604052826004013582811161057f576101c09060043691860101611639565b8152602483013582811161057f576101de9060043691860101611639565b848201908152604484013583811161057b576102009060043691870101611639565b604083019081526064850135848111610577576102239060043691880101611639565b93606084019485526084860135818111610573576102479060043691890101611639565b956080850196875260a481013582811161056f5761026b9060043691840101611639565b9060a0860191825260c48101359083821161056b57600461028f9236920101611639565b9160c0860192835260085460ff8160a01c1661055957600454803410610547578061052e575b5050855185516040519261183e808501939184118585101761051a5761030c8d8695946102ff6b033b2e3c9fd0803ce80000009560809561182c8a3960a0885260a08801906116f3565b91868303908701526116f3565b92306040820152336060820152015203908af0801561050f5760018060a01b031696878a526009895260408a2096886001600160601b0360a01b8954161788556b029009752660ad62af80000060018901556b037790968dc8efffd10000008060028a01558b60038a01556001548060048b0155670de0b6b3a7640000907812725dd1d243aba0e75fe645cc4873f9e65afe688c928e1f21811182021583021561050b578b9c9d509a999a0204968760058b01556103c988611756565b998a6006820155426007820155436008820155600901805460ff60a01b193316906affffffffffffffffffffff60a81b161790555195519451905191519251935194604051968c61012080918c8b528a01528801610426916116f3565b8781036040890152610437916116f3565b8681036060880152610448916116f3565b8581036080870152610459916116f3565b84810360a086015261046a916116f3565b83810360c085015261047b916116f3565b82810360e084015261048c916116f3565b9042610100820152803392037f4c3449617a987f0d9b9e9b06cc25e185a3bf4ee8d294d61d2e310a9a0ec498b091a26040518091339442906104df92846040919493926060820195825260208201520152565b037feadf1668b2f8926f6538c3b24fceb72251daa320b74c8c36da738cce051c48c091a3604051908152f35b8d80fd5b6040513d8b823e3d90fd5b634e487b7160e01b8e52604160045260248efd5b610540916001600160a01b031661178c565b38806102b5565b60405163cd1c886760e01b8152600490fd5b6040516313d0ff5960e31b8152600490fd5b8a80fd5b8980fd5b8880fd5b8780fd5b8680fd5b8580fd5b634e487b7160e01b600052604160045260246000fd5b8380fd5b8480fd5b8280fd5b50346105ce57806003193601126105ce576007546040516001600160a01b039091168152602090f35b80fd5b50346105ce5760203660031901126105ce576105eb6115ce565b6007546001600160a01b0391908216330361061757166001600160601b0360a01b600854161760085580f35b6040516339218f3b60e01b8152600490fd5b50346105ce57806003193601126105ce576020600654604051908152f35b50346105ce57806003193601126105ce576020600554604051908152f35b50346105ce57806003193601126105ce576020600454604051908152f35b50346105ce57806003193601126105ce5760206040516127108152f35b50346105ce57806003193601126105ce576040517f00000000000000000000000000000000000000000000000000000000000000006001600160a01b03168152602090f35b50346105ce5760403660031901126105ce576106ff6115ce565b60243591821561078d57604060019161076a61075761074f61073360209861271061072c60055483611690565b04906116b9565b96868060a01b03169687855260098952600486862001546116e6565b6003546116c6565b85835260098752600284842001546116b9565b93815260098552200154808211610785575b50604051908152f35b90503861077c565b6040516365719fe160e11b8152600490fd5b50346105ce57806003193601126105ce5760206040516103e88152f35b50346105ce5760203660031901126105ce576007546001600160a01b031633036106175760043560045580f35b506107f3366115e9565b916107ff939193611733565b6008549260ff8460a01c16610559574211610f7d57849381341061054757811561078d576108526108439261271061083960055483611690565b04938480926116b9565b956001600160a01b031661178c565b6001600160a01b03831686526009602081905260408720015460a081901c60ff16156108d5575b60208660018988888860405192835285878401526040830152426060830152836080830152838060a01b0316907f3893b12ea2017f00ca6b320ece400190bef0f01352a842b563729af4b14e8f3660a03392a355604051908152f35b9094506001600160a01b031615610f1a576001600160a01b03821685526009602052604085206004015461090a9084906116e6565b610916816003546116c6565b9060018060a01b0384168752600960205261093882600260408a2001546116b9565b6001600160a01b038516885260096020526040882060010154909690808811610f75575b508610610f635761099d61099260039360018060a01b0387168a52600960205260408a20938060048601558160028601556117f6565b806005840155611756565b6006820155426007820155436008820155016109ba8482546116e6565b90556001600160a01b038216855260096020526040852060010180546109e19086906116b9565b905560405163a9059cbb60e01b8152336004820152602481018590526020908690604490826001600160a01b0387165af13d15601f3d11600188511416171615610f2c576001600160a01b038216808652600960209081526040808820600581015460069091015482519182529281019290925242908201523391907feadf1668b2f8926f6538c3b24fceb72251daa320b74c8c36da738cce051c48c090606090a36001600160a01b038216855260096020526040852060038101546002541115610aad575b80610879565b600901546001600160a01b031615610f1a576001600160a01b03821685526009602052604085204260078201554360088201556003015460065461271091610af59190611690565b04610b0a8160018060a01b036008541661178c565b6001600160a01b038316865260096020526040862060030154610b2e9082906116b9565b906001600160a01b0384163b1561057b5760405163538a035b60e11b8152600160048201528781602481836001600160a01b038a165af18015610e4657610eea575b5060405163095ea7b360e01b81526001600160a01b037f0000000000000000000000000000000000000000000000000000000000000000811660048301526aab24c7796fd2da388000006024830152602090829060449082908c908a165af1908115610e46578891610eaf575b5015610e72576040516315ab88c960e31b8152906020826004817f00000000000000000000000000000000000000000000000000000000000000006001600160a01b03165afa918215610e46578892610e51575b506040516364e329cb60e11b81526001600160a01b038681166004830152928316602482015291602090839060449082908c907f0000000000000000000000000000000000000000000000000000000000000000165af1918215610e46578892610e15575b50603c42014211610e015760405163f305d71960e01b81526001600160a01b0386811660048301526aab24c7796fd2da3880000060248301819052604483015260648201859052608482018a905242603c0160a4830152606090829060c490829088907f0000000000000000000000000000000000000000000000000000000000000000165af1801561050f57610dd6575b506001600160a01b03808616808a52600960208181526040808d20928301805460ff60a01b1916600160a01b179055600483018d9055600283018d9055600383018d905560019283018d905580519788526aab24c7796fd2da388000008883015287019490945242606087015292999297929692959294929391909116917f975531bb29dbf7996fcd8e163f4189c89f5aa16ef8c6c1178c8c3e59a67b7e0190608090a39193509194610aa7565b606090813d8311610dfa575b610dec8183611617565b810103126105775738610d28565b503d610de2565b634e487b7160e01b88526011600452602488fd5b610e3891925060203d602011610e3f575b610e308183611617565b8101906117d7565b9038610c96565b503d610e26565b6040513d8a823e3d90fd5b610e6b91925060203d602011610e3f57610e308183611617565b9038610c31565b60405162461bcd60e51b81526020600482015260156024820152741d1bdad95b88185c1c1c9bdd985b0819985a5b1959605a1b6044820152606490fd5b90506020813d602011610ee2575b81610eca60209383611617565b81010312610577575180151581036105775738610bdd565b3d9150610ebd565b67ffffffffffffffff8198929811610f06576040529538610b70565b634e487b7160e01b82526041600452602482fd5b60405163c1ab6dc160e01b8152600490fd5b60405162461bcd60e51b815260206004820152600f60248201526e1514905394d1915497d19052531151608a1b6044820152606490fd5b60405163bb2875c360e01b8152600490fd5b96503861095c565b60405163559895a360e01b8152600490fd5b50346105ce5760203660031901126105ce57600754600435906001600160a01b03163303610617576103e88111610fc65760065580f35b60405163cd4e616760e01b8152600490fd5b50346105ce57806003193601126105ce5760206040516b037790968dc8efffd10000008152f35b50346105ce57806003193601126105ce576020600254604051908152f35b50346105ce57806003193601126105ce5760206040516b033b2e3c9fd0803ce80000008152f35b50346105ce57611053366115e9565b6110609491939294611733565b60ff60085460a01c16610559574211610f7d578091841561078d576001600160a01b0390811680835260096020818152604085208201549097919060a081901c60ff16156110b7575b888760018855604051908152f35b84965093909192931615610f1a57868460646040516323b872dd60e01b815233600482015230602482015285604482015282875af13d15601f3d1160018751141617161561121f578284528087526111168260026040872001546116e6565b906001611125836003546116c6565b858752828a5261115f61099261114283600460408c2001546116b9565b95888a52858d5260408a20938160028601558060048601556117f6565b60068201554260078201554360088201550161117c8482546116e6565b90558385528752600360408520016111958282546116b9565b90556111b16127106111a960055484611690565b0480926116b9565b958610610f63576111c8816001966008541661178c565b6111d2863361178c565b604051918252858783015260408201524260608201528260808201527f3893b12ea2017f00ca6b320ece400190bef0f01352a842b563729af4b14e8f3660a03392a38291388080806110a9565b60405162461bcd60e51b81526004810188905260146024820152731514905394d1915497d19493d357d1905253115160621b6044820152606490fd5b50346105ce5760203660031901126105ce57610160906001600160a01b039060ff90604090836112896115ce565b168152600960205220828154169260018201549160028101546003820154600483015460058401549060068501549260078601549460096008880154970154986040519b8c5260208c015260408b015260608a0152608089015260a088015260c087015260e0860152610100850152811661012084015260a01c161515610140820152f35b50346105ce5760203660031901126105ce576113286115ce565b600754906001600160a01b039081831633036106175716906001600160601b0360a01b161760075580f35b50346105ce5760403660031901126105ce5761136d6115ce565b9060243591821561078d57602092600460406113c7946113a961074f6113b89660018060a01b03169586845260098a52600285852001546116e6565b938152600987522001546116b9565b61271061072c60055483611690565b604051908152f35b50346105ce57806003193601126105ce576008546040516001600160a01b039091168152602090f35b50346105ce57806003193601126105ce57602060ff60085460a01c166040519015158152f35b50346105ce57806003193601126105ce576040517f00000000000000000000000000000000000000000000000000000000000000006001600160a01b03168152602090f35b50346105ce57806003193601126105ce5760206040516b029009752660ad62af8000008152f35b50346105ce57806003193601126105ce576020600154604051908152f35b50346105ce5760203660031901126105ce57600754600435906001600160a01b0316330361061757806001556b037790968dc8efffd100000080820290828204148215171561151257906ae787216768429d218000008261150c93600355046116b9565b60025580f35b634e487b7160e01b83526011600452602483fd5b50346105ce5760203660031901126105ce57600435801515809103611577576007546001600160a01b03163303610617576008805460ff60a01b191660a09290921b60ff60a01b1691909117905580f35b5080fd5b50346105ce5760203660031901126105ce57600754600435906001600160a01b03163303610617576103e88111610fc65760055580f35b9050346115775781600319360112611577576020906003548152f35b600435906001600160a01b03821682036115e457565b600080fd5b60809060031901126115e4576004356001600160a01b03811681036115e45790602435906044359060643590565b90601f8019910116810190811067ffffffffffffffff82111761058357604052565b81601f820112156115e45780359067ffffffffffffffff8211610583576040519261166e601f8401601f191660200185611617565b828452602083830101116115e457816000926020809301838601378301015290565b818102929181159184041417156116a357565b634e487b7160e01b600052601160045260246000fd5b919082039182116116a357565b81156116d0570490565b634e487b7160e01b600052601260045260246000fd5b919082018092116116a357565b919082519283825260005b84811061171f575050826000602080949584010152601f8019910116010190565b6020818301810151848301820152016116fe565b600260005414611744576002600055565b604051633ee5aeb560e01b8152600490fd5b670de0b6b3a7640000906b033b2e3c9fd0803ce800000060001982900481118202158302156115e4570290808204910615150190565b600080809381935af11561179c57565b60405162461bcd60e51b815260206004820152601360248201527211551217d514905394d1915497d19052531151606a1b6044820152606490fd5b908160209103126115e457516001600160a01b03811681036115e45790565b670de0b6b3a7640000907812725dd1d243aba0e75fe645cc4873f9e65afe688c928e1f2181118202158302156115e45702049056fe6101a0604090808252346104bd5761183e803803809161001f82856104c2565b833981019060a0818303126104bd5780516001600160401b0392908381116104bd578161004d918401610508565b60209182840151908582116104bd57610067918501610508565b9461007381850161055c565b9260806100826060870161055c565b95015190825197838901898110898211176103d4578452600197888a52828a0198603160f81b8a5286518281116103d45760038054918383811c931680156104b3575b8784101461049d57601f92838111610457575b5080878482116001146103f5576000916103ea575b5060001982841b1c191690841b1781555b8451918483116103d45760049586548581811c911680156103ca575b898210146103b55782811161036f575b5087918411600114610309579383949184926000956102fe575b50501b92600019911b1c19161782555b61015d86610570565b98610120998a5261016d8b610701565b966101409788528481519101209a8b60e0525190206101009a818c524660a052865191858301917f8b73c3c69bb8fe3d512ecc4cf759cc79239f7b179b0ffacaa9a75d522b39400f83528884015260608301524660808301523060a083015260a0825260c0820192828410908411176102e957828752815190206080523060c05260ff196008541660085561016097885261018098895233156102d2575050600254908382018092116102bd57506000917fddf252ad1be2c89b69c2b068fc378daa952ba7f163c4a11628f55a4df523b3ef9160025533835282815284832084815401905584519384523393a35193610ff79586610847873960805186610b63015260a05186610c2f015260c05186610b2d015260e05186610bb201525185610bd80152518461045f01525183610489015251828181610301015281816105b401526109f1015251816108b50152f35b601190634e487b7160e01b6000525260246000fd5b63ec442f0560e01b8252600060c490910152602490fd5b604184634e487b7160e01b6000525260246000fd5b015193503880610144565b9190601f198416928760005284896000209460005b8b89838310610358575050501061033e575b50505050811b018255610154565b01519060f884600019921b161c1916905538808080610330565b86860151895590970196948501948893500161031e565b87600052886000208380870160051c8201928b88106103ac575b0160051c019086905b8281106103a057505061012a565b60008155018690610392565b92508192610389565b602288634e487b7160e01b6000525260246000fd5b90607f169061011a565b634e487b7160e01b600052604160045260246000fd5b90508a0151386100ed565b60008481528981208794509190601f198416908b8f5b838310610440575050508311610428575b5050811b0181556100fe565b8c015160001983861b60f8161c19169055388061041c565b840151855589969094019392830192018b8f61040b565b82600052876000208480840160051c8201928a8510610494575b0160051c019085905b8281106104885750506100d8565b6000815501859061047a565b92508192610471565b634e487b7160e01b600052602260045260246000fd5b92607f16926100c5565b600080fd5b601f909101601f19168101906001600160401b038211908210176103d457604052565b60005b8381106104f85750506000910152565b81810151838201526020016104e8565b81601f820112156104bd5780516001600160401b0381116103d4576040519261053b601f8301601f1916602001856104c2565b818452602082840101116104bd5761055991602080850191016104e5565b90565b51906001600160a01b03821682036104bd57565b805160209190828110156105eb575090601f8251116105ab578082519201519080831061059c57501790565b82600019910360031b1b161790565b6044906105dd9260405193849263305a27a960e01b8452806004850152825192839182602487015286860191016104e5565b601f01601f19168101030190fd5b6001600160401b0381116103d4576005928354926001938481811c911680156106f7575b8382101461049d57601f81116106c3575b5081601f841160011461065d5750928293918392600094610652575b50501b916000199060031b1c191617905560ff90565b01519250388061063c565b919083601f1981168760005284600020946000905b888383106106a95750505010610690575b505050811b01905560ff90565b015160001960f88460031b161c19169055388080610683565b858701518855909601959485019487935090810190610672565b8560005284601f846000209201871c820191601f8601881c015b8281106106eb575050610620565b600081550185906106dd565b90607f169061060f565b80516020908181101561072b5750601f8251116105ab578082519201519080831061059c57501790565b906001600160401b0382116103d457600654926001938481811c9116801561083c575b8382101461049d57601f8111610805575b5081601f841160011461079d5750928293918392600094610792575b50501b916000199060031b1c19161760065560ff90565b01519250388061077b565b919083601f198116600660005284600020946000905b888383106107eb57505050106107d2575b505050811b0160065560ff90565b015160001960f88460031b161c191690553880806107c4565b8587015188559096019594850194879350908101906107b3565b600660005284601f84600020920160051c820191601f860160051c015b82811061083057505061075f565b60008155018590610822565b90607f169061074e56fe608060408181526004918236101561001657600080fd5b600092833560e01c91826302d05d3f146108a15750816306fdde03146107c6578163095ea7b31461079457816318160ddd1461077557816323b872dd1461067e578163313ce5671461066257816331a18ea11461063e5781633644e5151461061a57816370a08231146105e35781637165485d1461059f5781637ecebe001461056757816384b0196e1461044757816395d89b4114610357578163a71406b6146102df578163a9059cbb146102ae578163d505accf1461012b575063dd62ed3e146100e057600080fd5b34610127578060031936011261012757806020926100fc610924565b61010461093f565b6001600160a01b0391821683526001865283832091168252845220549051908152f35b5080fd5b839150346101275760e036600319011261012757610147610924565b61014f61093f565b906044359260643560843560ff811681036102aa5760ff600854161561029a578142116102835760018060a01b0390818516928389526007602052898920908154916001830190558a519060208201927f6e71edae12b1b97f4d1f60370fef10105fa2faae0126114a169c64845d6126c98452868d840152858a1660608401528a608084015260a083015260c082015260c0815260e0810181811067ffffffffffffffff821117610270578b5251902061023e916102359161020f610b2a565b908c519161190160f01b83526002830152602282015260c43591604260a4359220610eac565b90929192610f3c565b168181036102555786610252878787610c55565b80f35b87516325c0072360e11b815292830152602482015260449150fd5b634e487b7160e01b8b526041875260248bfd5b875163313c898160e11b8152808401839052602490fd5b875163ad8c648b60e01b81528390fd5b8680fd5b5050346101275780600319360112610127576020906102d86102ce610924565b6024359033610a4c565b5160018152f35b9050346103535760203660031901126103535780359182151580930361034f577f00000000000000000000000000000000000000000000000000000000000000006001600160a01b0316330361034257505060ff80196008541691161760085580f35b516363f46cb560e01b8152fd5b8380fd5b8280fd5b91905034610353578260031936011261035357805183819490845461037b81610955565b918285526020966001928860018216918260001461041d5750506001146103c2575b85886103be896103af848a03856109c1565b519282849384528301906108e4565b0390f35b815286935091907f8a35acfbc15ff81a39ae7d344fd709f28e8600b4aa8c65c6b64bfe7fe36bd19b5b82841061040557505050820101816103af6103be3861039d565b8054848a0186015288955087949093019281016103eb565b60ff19168882015294151560051b870190940194508593506103af92506103be915038905061039d565b919050346103535782600319360112610353576104837f0000000000000000000000000000000000000000000000000000000000000000610ce8565b926104ad7f0000000000000000000000000000000000000000000000000000000000000000610dec565b90825192602092602085019585871067ffffffffffffffff881117610554575092602061050a8388966104fd998b9996528686528151998a99600f60f81b8b5260e0868c015260e08b01906108e4565b91898303908a01526108e4565b924660608801523060808801528460a088015286840360c088015251928381520193925b82811061053d57505050500390f35b83518552869550938101939281019260010161052e565b634e487b7160e01b845260419052602483fd5b5050346101275760203660031901126101275760209181906001600160a01b0361058f610924565b1681526007845220549051908152f35b505034610127578160031936011261012757517f00000000000000000000000000000000000000000000000000000000000000006001600160a01b03168152602090f35b5050346101275760203660031901126101275760209181906001600160a01b0361060b610924565b16815280845220549051908152f35b505034610127578160031936011261012757602090610637610b2a565b9051908152f35b50503461012757816003193601126101275760209060ff6008541690519015158152f35b5050346101275781600319360112610127576020905160128152f35b905082346107725760603660031901126107725761069a610924565b6106a261093f565b916044359360018060a01b0383168083526001602052868320338452602052868320549160001983036106de575b6020886102d8898989610a4c565b86831061074657811561072f573315610718575082526001602090815286832033845281529186902090859003905582906102d8876106d0565b8751634a1406b160e11b8152908101849052602490fd5b875163e602df0560e01b8152908101849052602490fd5b8751637dc7a0d960e11b8152339181019182526020820193909352604081018790528291506060010390fd5b80fd5b5050346101275781600319360112610127576020906002549051908152f35b5050346101275780600319360112610127576020906107bd6107b4610924565b602435906109e3565b90519015158152f35b82843461077257806003193601126107725781519182826003546107e981610955565b908184526020956001918760018216918260001461087a57505060011461081e575b5050506103be92916103af9103856109c1565b9190869350600383527fc2575a0e9e593c00f959f8c92f12db2869c3395a3b0502d05e2516446f71f85b5b82841061086257505050820101816103af6103be61080b565b8054848a018601528895508794909301928101610849565b60ff19168782015293151560051b860190930193508492506103af91506103be905061080b565b8490346101275781600319360112610127577f00000000000000000000000000000000000000000000000000000000000000006001600160a01b03168152602090f35b919082519283825260005b848110610910575050826000602080949584010152601f8019910116010190565b6020818301810151848301820152016108ef565b600435906001600160a01b038216820361093a57565b600080fd5b602435906001600160a01b038216820361093a57565b90600182811c92168015610985575b602083101461096f57565b634e487b7160e01b600052602260045260246000fd5b91607f1691610964565b6040810190811067ffffffffffffffff8211176109ab57604052565b634e487b7160e01b600052604160045260246000fd5b90601f8019910116810190811067ffffffffffffffff8211176109ab57604052565b906001600160a01b038083167f0000000000000000000000000000000000000000000000000000000000000000909116148015610a40575b610a315760405163ad8c648b60e01b8152600490fd5b610a3b9133610c55565b600190565b5060ff60085416610a1b565b916001600160a01b03808416928315610b115716928315610af85760009083825281602052604082205490838210610ac6575091604082827fddf252ad1be2c89b69c2b068fc378daa952ba7f163c4a11628f55a4df523b3ef958760209652828652038282205586815220818154019055604051908152a3565b60405163391434e360e21b81526001600160a01b03919091166004820152602481019190915260448101839052606490fd5b60405163ec442f0560e01b815260006004820152602490fd5b604051634b637e8f60e11b815260006004820152602490fd5b307f00000000000000000000000000000000000000000000000000000000000000006001600160a01b03161480610c2c575b15610b85577f000000000000000000000000000000000000000000000000000000000000000090565b60405160208101907f8b73c3c69bb8fe3d512ecc4cf759cc79239f7b179b0ffacaa9a75d522b39400f82527f000000000000000000000000000000000000000000000000000000000000000060408201527f000000000000000000000000000000000000000000000000000000000000000060608201524660808201523060a082015260a0815260c0810181811067ffffffffffffffff8211176109ab5760405251902090565b507f00000000000000000000000000000000000000000000000000000000000000004614610b5c565b6001600160a01b03908116918215610ccf5716918215610cb65760207f8c5be1e5ebec7d5bd14f71427d1e84f3dd0314c0f7b2291e5b200ac8c7c3b925918360005260018252604060002085600052825280604060002055604051908152a3565b604051634a1406b160e11b815260006004820152602490fd5b60405163e602df0560e01b815260006004820152602490fd5b60ff8114610d265760ff811690601f8211610d145760405191610d0a8361098f565b8252602082015290565b604051632cd44ac360e21b8152600490fd5b50604051600554816000610d3983610955565b80835292602090600190818116908115610dc85750600114610d67575b5050610d64925003826109c1565b90565b91509260056000527f036b6384b5eca791c62761152d0c79bb0604c104a5fb6f4eb0703f3154bb3db0936000925b828410610db05750610d649450505081016020013880610d56565b85548785018301529485019486945092810192610d95565b91505060209250610d6494915060ff191682840152151560051b8201013880610d56565b60ff8114610e0e5760ff811690601f8211610d145760405191610d0a8361098f565b50604051600654816000610e2183610955565b80835292602090600190818116908115610dc85750600114610e4b575050610d64925003826109c1565b91509260066000527ff652222313e28459528d920b65115c16c04f3efc82aaedc97be59f3f377c0d3f936000925b828410610e945750610d649450505081016020013880610d56565b85548785018301529485019486945092810192610e79565b91907f7fffffffffffffffffffffffffffffff5d576e7357a4501ddfe92f46681b20a08411610f3057926020929160ff608095604051948552168484015260408301526060820152600092839182805260015afa15610f245780516001600160a01b03811615610f1b57918190565b50809160019190565b604051903d90823e3d90fd5b50505060009160039190565b6004811015610fab5780610f4e575050565b60018103610f685760405163f645eedf60e01b8152600490fd5b60028103610f895760405163fce698f760e01b815260048101839052602490fd5b600314610f935750565b602490604051906335e2f38360e21b82526004820152fd5b634e487b7160e01b600052602160045260246000fdfea2646970667358221220f7cc8e66c14588fcaaa301e0efc5838bc7d5a238db77c59c60d1c4e13142fbda64736f6c63430008190033a264697066735822122079890781cd52abbba6acae3845fab2caa56b22c4c629ba5043c43e0b1b0eca3e64736f6c63430008190033","linkReferences":{}},"methodIdentifiers":{"CURVE_CONSTANT()":"045b8d78","FEE_DENOMINATOR()":"d73792a9","INIT_REAL_TOKEN_RESERVE()":"4b103bfa","INIT_VIRTUAL_TOKEN_RESERVE()":"a134ddf7","MAX_FEE()":"bc063e1a","TOTAL_SUPPLY()":"902d55a5","admin()":"f851a440","calcAmountOutFromEth(address,uint256)":"c1edd5bc","calcAmountOutFromToken(address,uint256)":"6577327e","creationFee()":"dce0b4e4","initVirtualEthReserve()":"320a0060","launchToken((string,string,string,string,string,string,string))":"fa1c492e","migrationFeeRate()":"e05f024e","migrationThreshold()":"90bc1e85","paused()":"5c975abb","protocolFeeRecipient()":"64df049e","setAdmin(address)":"704b6c02","setCreationFee(uint256)":"b7d86225","setInitVirtualEthReserve(uint256)":"29b53cee","setMigrationFeeRate(uint256)":"a4c821e6","setPaused(bool)":"16c38b3c","setProtocolFeeRecipient(address)":"e521cb92","setTradingFeeRate(uint256)":"1091f67c","swapEthForTokens(address,uint256,uint256,uint256)":"b242483e","swapRouter()":"c31c9c07","swapTokensForEth(address,uint256,uint256,uint256)":"83655467","tokenPool(address)":"8238e9da","tradingFeeRate()":"e01df1a8","uniswapV2Factory()":"59d0f713"},"id":47}