{"abi":[{"type":"constructor","inputs":[{"name":"name","type":"string","internalType":"string"},{"name":"symbol","type":"string","internalType":"string"},{"name":"_curve","type":"address","internalType":"address"},{"name":"_creator","type":"address","internalType":"address"},{"name":"_supply","type":"uint256","internalType":"uint256"}],"stateMutability":"nonpayable"},{"type":"function","name":"DOMAIN_SEPARATOR","inputs":[],"outputs":[{"name":"","type":"bytes32","internalType":"bytes32"}],"stateMutability":"view"},{"type":"function","name":"allowance","inputs":[{"name":"owner","type":"address","internalType":"address"},{"name":"spender","type":"address","internalType":"address"}],"outputs":[{"name":"","type":"uint256","internalType":"uint256"}],"stateMutability":"view"},{"type":"function","name":"approve","inputs":[{"name":"spender","type":"address","internalType":"address"},{"name":"amount","type":"uint256","internalType":"uint256"}],"outputs":[{"name":"","type":"bool","internalType":"bool"}],"stateMutability":"nonpayable"},{"type":"function","name":"balanceOf","inputs":[{"name":"account","type":"address","internalType":"address"}],"outputs":[{"name":"","type":"uint256","internalType":"uint256"}],"stateMutability":"view"},{"type":"function","name":"creator","inputs":[],"outputs":[{"name":"","type":"address","internalType":"address"}],"stateMutability":"view"},{"type":"function","name":"curve","inputs":[],"outputs":[{"name":"","type":"address","internalType":"address"}],"stateMutability":"view"},{"type":"function","name":"decimals","inputs":[],"outputs":[{"name":"","type":"uint8","internalType":"uint8"}],"stateMutability":"view"},{"type":"function","name":"eip712Domain","inputs":[],"outputs":[{"name":"fields","type":"bytes1","internalType":"bytes1"},{"name":"name","type":"string","internalType":"string"},{"name":"version","type":"string","internalType":"string"},{"name":"chainId","type":"uint256","internalType":"uint256"},{"name":"verifyingContract","type":"address","internalType":"address"},{"name":"salt","type":"bytes32","internalType":"bytes32"},{"name":"extensions","type":"uint256[]","internalType":"uint256[]"}],"stateMutability":"view"},{"type":"function","name":"isApprovable","inputs":[],"outputs":[{"name":"","type":"bool","internalType":"bool"}],"stateMutability":"view"},{"type":"function","name":"name","inputs":[],"outputs":[{"name":"","type":"string","internalType":"string"}],"stateMutability":"view"},{"type":"function","name":"nonces","inputs":[{"name":"owner","type":"address","internalType":"address"}],"outputs":[{"name":"","type":"uint256","internalType":"uint256"}],"stateMutability":"view"},{"type":"function","name":"permit","inputs":[{"name":"owner","type":"address","internalType":"address"},{"name":"spender","type":"address","internalType":"address"},{"name":"value","type":"uint256","internalType":"uint256"},{"name":"deadline","type":"uint256","internalType":"uint256"},{"name":"v","type":"uint8","internalType":"uint8"},{"name":"r","type":"bytes32","internalType":"bytes32"},{"name":"s","type":"bytes32","internalType":"bytes32"}],"outputs":[],"stateMutability":"nonpayable"},{"type":"function","name":"setIsApprovable","inputs":[{"name":"_val","type":"bool","internalType":"bool"}],"outputs":[],"stateMutability":"nonpayable"},{"type":"function","name":"symbol","inputs":[],"outputs":[{"name":"","type":"string","internalType":"string"}],"stateMutability":"view"},{"type":"function","name":"totalSupply","inputs":[],"outputs":[{"name":"","type":"uint256","internalType":"uint256"}],"stateMutability":"view"},{"type":"function","name":"transfer","inputs":[{"name":"to","type":"address","internalType":"address"},{"name":"value","type":"uint256","internalType":"uint256"}],"outputs":[{"name":"","type":"bool","internalType":"bool"}],"stateMutability":"nonpayable"},{"type":"function","name":"transferFrom","inputs":[{"name":"from","type":"address","internalType":"address"},{"name":"to","type":"address","internalType":"address"},{"name":"value","type":"uint256","internalType":"uint256"}],"outputs":[{"name":"","type":"bool","internalType":"bool"}],"stateMutability":"nonpayable"},{"type":"event","name":"Approval","inputs":[{"name":"owner","type":"address","indexed":true,"internalType":"address"},{"name":"spender","type":"address","indexed":true,"internalType":"address"},{"name":"value","type":"uint256","indexed":false,"internalType":"uint256"}],"anonymous":false},{"type":"event","name":"EIP712DomainChanged","inputs":[],"anonymous":false},{"type":"event","name":"Transfer","inputs":[{"name":"from","type":"address","indexed":true,"internalType":"address"},{"name":"to","type":"address","indexed":true,"internalType":"address"},{"name":"value","type":"uint256","indexed":false,"internalType":"uint256"}],"anonymous":false},{"type":"error","name":"ECDSAInvalidSignature","inputs":[]},{"type":"error","name":"ECDSAInvalidSignatureLength","inputs":[{"name":"length","type":"uint256","internalType":"uint256"}]},{"type":"error","name":"ECDSAInvalidSignatureS","inputs":[{"name":"s","type":"bytes32","internalType":"bytes32"}]},{"type":"error","name":"ERC20InsufficientAllowance","inputs":[{"name":"spender","type":"address","internalType":"address"},{"name":"allowance","type":"uint256","internalType":"uint256"},{"name":"needed","type":"uint256","internalType":"uint256"}]},{"type":"error","name":"ERC20InsufficientBalance","inputs":[{"name":"sender","type":"address","internalType":"address"},{"name":"balance","type":"uint256","internalType":"uint256"},{"name":"needed","type":"uint256","internalType":"uint256"}]},{"type":"error","name":"ERC20InvalidApprover","inputs":[{"name":"approver","type":"address","internalType":"address"}]},{"type":"error","name":"ERC20InvalidReceiver","inputs":[{"name":"receiver","type":"address","internalType":"address"}]},{"type":"error","name":"ERC20InvalidSender","inputs":[{"name":"sender","type":"address","internalType":"address"}]},{"type":"error","name":"ERC20InvalidSpender","inputs":[{"name":"spender","type":"address","internalType":"address"}]},{"type":"error","name":"ERC2612ExpiredSignature","inputs":[{"name":"deadline","type":"uint256","internalType":"uint256"}]},{"type":"error","name":"ERC2612InvalidSigner","inputs":[{"name":"signer","type":"address","internalType":"address"},{"name":"owner","type":"address","internalType":"address"}]},{"type":"error","name":"InvalidAccountNonce","inputs":[{"name":"account","type":"address","internalType":"address"},{"name":"currentNonce","type":"uint256","internalType":"uint256"}]},{"type":"error","name":"InvalidShortString","inputs":[]},{"type":"error","name":"NotApprovable","inputs":[]},{"type":"error","name":"NotRampBondingCurve","inputs":[]},{"type":"error","name":"StringTooLong","inputs":[{"name":"str","type":"string","internalType":"string"}]}],"bytecode":{"object":"0x6101a0604090808252346104b6576117e2803803809161001f82856104bb565b833981019060a0818303126104b65780516001600160401b0392908381116104b6578161004d918401610501565b60209182840151908582116104b657610067918501610501565b94610073818501610555565b92608061008260608701610555565b95015190825197838901898110898211176103cd578452600197888a52828a0198603160f81b8a5286518281116103cd5760038054918383811c931680156104ac575b8784101461049657601f92838111610450575b5080878482116001146103ee576000916103e3575b5060001982841b1c191690841b1781555b8451918483116103cd5760049586548581811c911680156103c3575b898210146103ae57828111610368575b5087918411600114610302579383949184926000956102f7575b50501b92600019911b1c19161782555b61015d86610569565b98610120998a5261016d8b6106fa565b966101409788528481519101209a8b60e0525190206101009a818c524660a052865191858301917f8b73c3c69bb8fe3d512ecc4cf759cc79239f7b179b0ffacaa9a75d522b39400f83528884015260608301524660808301523060a083015260a0825260c0820192828410908411176102e257828752815190206080523060c05260ff196008541660085561016097885261018098895233156102cb575050600254908382018092116102b657506000917fddf252ad1be2c89b69c2b068fc378daa952ba7f163c4a11628f55a4df523b3ef9160025533835282815284832084815401905584519384523393a35193610fa29586610840873960805186610b0e015260a05186610bda015260c05186610ad8015260e05186610b5d01525185610b830152518461045f0152518361048901525182818161030101526105b4015251816108c90152f35b601190634e487b7160e01b6000525260246000fd5b63ec442f0560e01b8252600060c490910152602490fd5b604184634e487b7160e01b6000525260246000fd5b015193503880610144565b9190601f198416928760005284896000209460005b8b898383106103515750505010610337575b50505050811b018255610154565b01519060f884600019921b161c1916905538808080610329565b868601518955909701969485019488935001610317565b87600052886000208380870160051c8201928b88106103a5575b0160051c019086905b82811061039957505061012a565b6000815501869061038b565b92508192610382565b602288634e487b7160e01b6000525260246000fd5b90607f169061011a565b634e487b7160e01b600052604160045260246000fd5b90508a0151386100ed565b60008481528981208794509190601f198416908b8f5b838310610439575050508311610421575b5050811b0181556100fe565b8c015160001983861b60f8161c191690553880610415565b840151855589969094019392830192018b8f610404565b82600052876000208480840160051c8201928a851061048d575b0160051c019085905b8281106104815750506100d8565b60008155018590610473565b9250819261046a565b634e487b7160e01b600052602260045260246000fd5b92607f16926100c5565b600080fd5b601f909101601f19168101906001600160401b038211908210176103cd57604052565b60005b8381106104f15750506000910152565b81810151838201526020016104e1565b81601f820112156104b65780516001600160401b0381116103cd5760405192610534601f8301601f1916602001856104bb565b818452602082840101116104b65761055291602080850191016104de565b90565b51906001600160a01b03821682036104b657565b805160209190828110156105e4575090601f8251116105a4578082519201519080831061059557501790565b82600019910360031b1b161790565b6044906105d69260405193849263305a27a960e01b8452806004850152825192839182602487015286860191016104de565b601f01601f19168101030190fd5b6001600160401b0381116103cd576005928354926001938481811c911680156106f0575b8382101461049657601f81116106bc575b5081601f8411600114610656575092829391839260009461064b575b50501b916000199060031b1c191617905560ff90565b015192503880610635565b919083601f1981168760005284600020946000905b888383106106a25750505010610689575b505050811b01905560ff90565b015160001960f88460031b161c1916905538808061067c565b85870151885590960195948501948793509081019061066b565b8560005284601f846000209201871c820191601f8601881c015b8281106106e4575050610619565b600081550185906106d6565b90607f1690610608565b8051602090818110156107245750601f8251116105a4578082519201519080831061059557501790565b906001600160401b0382116103cd57600654926001938481811c91168015610835575b8382101461049657601f81116107fe575b5081601f8411600114610796575092829391839260009461078b575b50501b916000199060031b1c19161760065560ff90565b015192503880610774565b919083601f198116600660005284600020946000905b888383106107e457505050106107cb575b505050811b0160065560ff90565b015160001960f88460031b161c191690553880806107bd565b8587015188559096019594850194879350908101906107ac565b600660005284601f84600020920160051c820191601f860160051c015b828110610829575050610758565b6000815501859061081b565b90607f169061074756fe608060408181526004918236101561001657600080fd5b600092833560e01c91826302d05d3f146108b55750816306fdde03146107da578163095ea7b31461079457816318160ddd1461077557816323b872dd1461067e578163313ce5671461066257816331a18ea11461063e5781633644e5151461061a57816370a08231146105e35781637165485d1461059f5781637ecebe001461056757816384b0196e1461044757816395d89b4114610357578163a71406b6146102df578163a9059cbb146102ae578163d505accf1461012b575063dd62ed3e146100e057600080fd5b34610127578060031936011261012757806020926100fc610938565b610104610953565b6001600160a01b0391821683526001865283832091168252845220549051908152f35b5080fd5b839150346101275760e036600319011261012757610147610938565b61014f610953565b906044359260643560843560ff811681036102aa5760ff600854161561029a578142116102835760018060a01b0390818516928389526007602052898920908154916001830190558a519060208201927f6e71edae12b1b97f4d1f60370fef10105fa2faae0126114a169c64845d6126c98452868d840152858a1660608401528a608084015260a083015260c082015260c0815260e0810181811067ffffffffffffffff821117610270578b5251902061023e916102359161020f610ad5565b908c519161190160f01b83526002830152602282015260c43591604260a4359220610e57565b90929192610ee7565b168181036102555786610252878787610c00565b80f35b87516325c0072360e11b815292830152602482015260449150fd5b634e487b7160e01b8b526041875260248bfd5b875163313c898160e11b8152808401839052602490fd5b875163ad8c648b60e01b81528390fd5b8680fd5b5050346101275780600319360112610127576020906102d86102ce610938565b60243590336109f7565b5160018152f35b9050346103535760203660031901126103535780359182151580930361034f577f00000000000000000000000000000000000000000000000000000000000000006001600160a01b0316330361034257505060ff80196008541691161760085580f35b516363f46cb560e01b8152fd5b8380fd5b8280fd5b91905034610353578260031936011261035357805183819490845461037b81610969565b918285526020966001928860018216918260001461041d5750506001146103c2575b85886103be896103af848a03856109d5565b519282849384528301906108f8565b0390f35b815286935091907f8a35acfbc15ff81a39ae7d344fd709f28e8600b4aa8c65c6b64bfe7fe36bd19b5b82841061040557505050820101816103af6103be3861039d565b8054848a0186015288955087949093019281016103eb565b60ff19168882015294151560051b870190940194508593506103af92506103be915038905061039d565b919050346103535782600319360112610353576104837f0000000000000000000000000000000000000000000000000000000000000000610c93565b926104ad7f0000000000000000000000000000000000000000000000000000000000000000610d97565b90825192602092602085019585871067ffffffffffffffff881117610554575092602061050a8388966104fd998b9996528686528151998a99600f60f81b8b5260e0868c015260e08b01906108f8565b91898303908a01526108f8565b924660608801523060808801528460a088015286840360c088015251928381520193925b82811061053d57505050500390f35b83518552869550938101939281019260010161052e565b634e487b7160e01b845260419052602483fd5b5050346101275760203660031901126101275760209181906001600160a01b0361058f610938565b1681526007845220549051908152f35b505034610127578160031936011261012757517f00000000000000000000000000000000000000000000000000000000000000006001600160a01b03168152602090f35b5050346101275760203660031901126101275760209181906001600160a01b0361060b610938565b16815280845220549051908152f35b505034610127578160031936011261012757602090610637610ad5565b9051908152f35b50503461012757816003193601126101275760209060ff6008541690519015158152f35b5050346101275781600319360112610127576020905160128152f35b905082346107725760603660031901126107725761069a610938565b6106a2610953565b916044359360018060a01b0383168083526001602052868320338452602052868320549160001983036106de575b6020886102d88989896109f7565b86831061074657811561072f573315610718575082526001602090815286832033845281529186902090859003905582906102d8876106d0565b8751634a1406b160e11b8152908101849052602490fd5b875163e602df0560e01b8152908101849052602490fd5b8751637dc7a0d960e11b8152339181019182526020820193909352604081018790528291506060010390fd5b80fd5b5050346101275781600319360112610127576020906002549051908152f35b828434610772578160031936011261077257506107af610938565b9160ff60085416156107cc57506102d86020926024359033610c00565b905163ad8c648b60e01b8152fd5b82843461077257806003193601126107725781519182826003546107fd81610969565b908184526020956001918760018216918260001461088e575050600114610832575b5050506103be92916103af9103856109d5565b9190869350600383527fc2575a0e9e593c00f959f8c92f12db2869c3395a3b0502d05e2516446f71f85b5b82841061087657505050820101816103af6103be61081f565b8054848a01860152889550879490930192810161085d565b60ff19168782015293151560051b860190930193508492506103af91506103be905061081f565b8490346101275781600319360112610127577f00000000000000000000000000000000000000000000000000000000000000006001600160a01b03168152602090f35b919082519283825260005b848110610924575050826000602080949584010152601f8019910116010190565b602081830181015184830182015201610903565b600435906001600160a01b038216820361094e57565b600080fd5b602435906001600160a01b038216820361094e57565b90600182811c92168015610999575b602083101461098357565b634e487b7160e01b600052602260045260246000fd5b91607f1691610978565b6040810190811067ffffffffffffffff8211176109bf57604052565b634e487b7160e01b600052604160045260246000fd5b90601f8019910116810190811067ffffffffffffffff8211176109bf57604052565b916001600160a01b03808416928315610abc5716928315610aa35760009083825281602052604082205490838210610a71575091604082827fddf252ad1be2c89b69c2b068fc378daa952ba7f163c4a11628f55a4df523b3ef958760209652828652038282205586815220818154019055604051908152a3565b60405163391434e360e21b81526001600160a01b03919091166004820152602481019190915260448101839052606490fd5b60405163ec442f0560e01b815260006004820152602490fd5b604051634b637e8f60e11b815260006004820152602490fd5b307f00000000000000000000000000000000000000000000000000000000000000006001600160a01b03161480610bd7575b15610b30577f000000000000000000000000000000000000000000000000000000000000000090565b60405160208101907f8b73c3c69bb8fe3d512ecc4cf759cc79239f7b179b0ffacaa9a75d522b39400f82527f000000000000000000000000000000000000000000000000000000000000000060408201527f000000000000000000000000000000000000000000000000000000000000000060608201524660808201523060a082015260a0815260c0810181811067ffffffffffffffff8211176109bf5760405251902090565b507f00000000000000000000000000000000000000000000000000000000000000004614610b07565b6001600160a01b03908116918215610c7a5716918215610c615760207f8c5be1e5ebec7d5bd14f71427d1e84f3dd0314c0f7b2291e5b200ac8c7c3b925918360005260018252604060002085600052825280604060002055604051908152a3565b604051634a1406b160e11b815260006004820152602490fd5b60405163e602df0560e01b815260006004820152602490fd5b60ff8114610cd15760ff811690601f8211610cbf5760405191610cb5836109a3565b8252602082015290565b604051632cd44ac360e21b8152600490fd5b50604051600554816000610ce483610969565b80835292602090600190818116908115610d735750600114610d12575b5050610d0f925003826109d5565b90565b91509260056000527f036b6384b5eca791c62761152d0c79bb0604c104a5fb6f4eb0703f3154bb3db0936000925b828410610d5b5750610d0f9450505081016020013880610d01565b85548785018301529485019486945092810192610d40565b91505060209250610d0f94915060ff191682840152151560051b8201013880610d01565b60ff8114610db95760ff811690601f8211610cbf5760405191610cb5836109a3565b50604051600654816000610dcc83610969565b80835292602090600190818116908115610d735750600114610df6575050610d0f925003826109d5565b91509260066000527ff652222313e28459528d920b65115c16c04f3efc82aaedc97be59f3f377c0d3f936000925b828410610e3f5750610d0f9450505081016020013880610d01565b85548785018301529485019486945092810192610e24565b91907f7fffffffffffffffffffffffffffffff5d576e7357a4501ddfe92f46681b20a08411610edb57926020929160ff608095604051948552168484015260408301526060820152600092839182805260015afa15610ecf5780516001600160a01b03811615610ec657918190565b50809160019190565b604051903d90823e3d90fd5b50505060009160039190565b6004811015610f565780610ef9575050565b60018103610f135760405163f645eedf60e01b8152600490fd5b60028103610f345760405163fce698f760e01b815260048101839052602490fd5b600314610f3e5750565b602490604051906335e2f38360e21b82526004820152fd5b634e487b7160e01b600052602160045260246000fdfea26469706673582212202400dbd92366523f6564f6cb06e34d7dae628e0e496bed6ce1a69ea50075abf164736f6c63430008190033","linkReferences":{}},"methodIdentifiers":{"DOMAIN_SEPARATOR()":"3644e515","allowance(address,address)":"dd62ed3e","approve(address,uint256)":"095ea7b3","balanceOf(address)":"70a08231","creator()":"02d05d3f","curve()":"7165485d","decimals()":"313ce567","eip712Domain()":"84b0196e","isApprovable()":"31a18ea1","name()":"06fdde03","nonces(address)":"7ecebe00","permit(address,address,uint256,uint256,uint8,bytes32,bytes32)":"d505accf","setIsApprovable(bool)":"a71406b6","symbol()":"95d89b41","totalSupply()":"18160ddd","transfer(address,uint256)":"a9059cbb","transferFrom(address,address,uint256)":"23b872dd"},"id":46}