{"abi":[{"type":"constructor","inputs":[{"name":"name","type":"string","internalType":"string"},{"name":"symbol","type":"string","internalType":"string"},{"name":"_curve","type":"address","internalType":"address"}],"stateMutability":"nonpayable"},{"type":"function","name":"allowance","inputs":[{"name":"owner","type":"address","internalType":"address"},{"name":"spender","type":"address","internalType":"address"}],"outputs":[{"name":"","type":"uint256","internalType":"uint256"}],"stateMutability":"view"},{"type":"function","name":"approve","inputs":[{"name":"spender","type":"address","internalType":"address"},{"name":"value","type":"uint256","internalType":"uint256"}],"outputs":[{"name":"","type":"bool","internalType":"bool"}],"stateMutability":"nonpayable"},{"type":"function","name":"balanceOf","inputs":[{"name":"account","type":"address","internalType":"address"}],"outputs":[{"name":"","type":"uint256","internalType":"uint256"}],"stateMutability":"view"},{"type":"function","name":"burnFrom","inputs":[{"name":"from","type":"address","internalType":"address"},{"name":"amount","type":"uint256","internalType":"uint256"}],"outputs":[],"stateMutability":"nonpayable"},{"type":"function","name":"curve","inputs":[],"outputs":[{"name":"","type":"address","internalType":"address"}],"stateMutability":"view"},{"type":"function","name":"decimals","inputs":[],"outputs":[{"name":"","type":"uint8","internalType":"uint8"}],"stateMutability":"view"},{"type":"function","name":"mintTo","inputs":[{"name":"recipient","type":"address","internalType":"address"},{"name":"amount","type":"uint256","internalType":"uint256"}],"outputs":[],"stateMutability":"nonpayable"},{"type":"function","name":"name","inputs":[],"outputs":[{"name":"","type":"string","internalType":"string"}],"stateMutability":"view"},{"type":"function","name":"symbol","inputs":[],"outputs":[{"name":"","type":"string","internalType":"string"}],"stateMutability":"view"},{"type":"function","name":"totalSupply","inputs":[],"outputs":[{"name":"","type":"uint256","internalType":"uint256"}],"stateMutability":"view"},{"type":"function","name":"transfer","inputs":[{"name":"to","type":"address","internalType":"address"},{"name":"value","type":"uint256","internalType":"uint256"}],"outputs":[{"name":"","type":"bool","internalType":"bool"}],"stateMutability":"nonpayable"},{"type":"function","name":"transferFrom","inputs":[{"name":"from","type":"address","internalType":"address"},{"name":"to","type":"address","internalType":"address"},{"name":"value","type":"uint256","internalType":"uint256"}],"outputs":[{"name":"","type":"bool","internalType":"bool"}],"stateMutability":"nonpayable"},{"type":"event","name":"Approval","inputs":[{"name":"owner","type":"address","indexed":true,"internalType":"address"},{"name":"spender","type":"address","indexed":true,"internalType":"address"},{"name":"value","type":"uint256","indexed":false,"internalType":"uint256"}],"anonymous":false},{"type":"event","name":"Transfer","inputs":[{"name":"from","type":"address","indexed":true,"internalType":"address"},{"name":"to","type":"address","indexed":true,"internalType":"address"},{"name":"value","type":"uint256","indexed":false,"internalType":"uint256"}],"anonymous":false},{"type":"error","name":"ERC20InsufficientAllowance","inputs":[{"name":"spender","type":"address","internalType":"address"},{"name":"allowance","type":"uint256","internalType":"uint256"},{"name":"needed","type":"uint256","internalType":"uint256"}]},{"type":"error","name":"ERC20InsufficientBalance","inputs":[{"name":"sender","type":"address","internalType":"address"},{"name":"balance","type":"uint256","internalType":"uint256"},{"name":"needed","type":"uint256","internalType":"uint256"}]},{"type":"error","name":"ERC20InvalidApprover","inputs":[{"name":"approver","type":"address","internalType":"address"}]},{"type":"error","name":"ERC20InvalidReceiver","inputs":[{"name":"receiver","type":"address","internalType":"address"}]},{"type":"error","name":"ERC20InvalidSender","inputs":[{"name":"sender","type":"address","internalType":"address"}]},{"type":"error","name":"ERC20InvalidSpender","inputs":[{"name":"spender","type":"address","internalType":"address"}]}],"bytecode":{"object":"0x608060405234801561001057600080fd5b50604051610bbf380380610bbf83398101604081905261002f91610134565b8282600361003d8382610244565b50600461004a8282610244565b5050600580546001600160a01b0319166001600160a01b03939093169290921790915550610303915050565b634e487b7160e01b600052604160045260246000fd5b600082601f83011261009d57600080fd5b81516001600160401b03808211156100b7576100b7610076565b604051601f8301601f19908116603f011681019082821181831017156100df576100df610076565b81604052838152602092508660208588010111156100fc57600080fd5b600091505b8382101561011e5785820183015181830184015290820190610101565b6000602085830101528094505050505092915050565b60008060006060848603121561014957600080fd5b83516001600160401b038082111561016057600080fd5b61016c8783880161008c565b9450602086015191508082111561018257600080fd5b5061018f8682870161008c565b604086015190935090506001600160a01b03811681146101ae57600080fd5b809150509250925092565b600181811c908216806101cd57607f821691505b6020821081036101ed57634e487b7160e01b600052602260045260246000fd5b50919050565b601f82111561023f576000816000526020600020601f850160051c8101602086101561021c5750805b601f850160051c820191505b8181101561023b57828155600101610228565b5050505b505050565b81516001600160401b0381111561025d5761025d610076565b6102718161026b84546101b9565b846101f3565b602080601f8311600181146102a6576000841561028e5750858301515b600019600386901b1c1916600185901b17855561023b565b600085815260208120601f198616915b828110156102d5578886015182559484019460019091019084016102b6565b50858210156102f35787850151600019600388901b60f8161c191681555b5050505050600190811b01905550565b6108ad806103126000396000f3fe608060405234801561001057600080fd5b50600436106100b45760003560e01c806370a082311161007157806370a08231146101435780637165485d1461016c57806379cc67901461019757806395d89b41146101aa578063a9059cbb146101b2578063dd62ed3e146101c557600080fd5b806306fdde03146100b9578063095ea7b3146100d757806318160ddd146100fa57806323b872dd1461010c578063313ce5671461011f578063449a52f81461012e575b600080fd5b6100c16101fe565b6040516100ce91906106f6565b60405180910390f35b6100ea6100e5366004610761565b610290565b60405190151581526020016100ce565b6002545b6040519081526020016100ce565b6100ea61011a36600461078b565b6102aa565b604051601281526020016100ce565b61014161013c366004610761565b6102ce565b005b6100fe6101513660046107c7565b6001600160a01b031660009081526020819052604090205490565b60055461017f906001600160a01b031681565b6040516001600160a01b0390911681526020016100ce565b6101416101a5366004610761565b61032b565b6100c161037f565b6100ea6101c0366004610761565b61038e565b6100fe6101d33660046107e9565b6001600160a01b03918216600090815260016020908152604080832093909416825291909152205490565b60606003805461020d9061081c565b80601f01602080910402602001604051908101604052809291908181526020018280546102399061081c565b80156102865780601f1061025b57610100808354040283529160200191610286565b820191906000526020600020905b81548152906001019060200180831161026957829003601f168201915b5050505050905090565b60003361029e81858561039c565b60019150505b92915050565b6000336102b88582856103ae565b6102c385858561042c565b506001949350505050565b6005546001600160a01b0316331461031d5760405162461bcd60e51b815260206004820152600d60248201526c1b9bdd081c195c9b5a5d1d1959609a1b60448201526064015b60405180910390fd5b610327828261048b565b5050565b6005546001600160a01b031633146103755760405162461bcd60e51b815260206004820152600d60248201526c1b9bdd081c195c9b5a5d1d1959609a1b6044820152606401610314565b61032782826104c1565b60606004805461020d9061081c565b60003361029e81858561042c565b6103a983838360016104f7565b505050565b6001600160a01b038381166000908152600160209081526040808320938616835292905220546000198114610426578181101561041757604051637dc7a0d960e11b81526001600160a01b03841660048201526024810182905260448101839052606401610314565b610426848484840360006104f7565b50505050565b6001600160a01b03831661045657604051634b637e8f60e11b815260006004820152602401610314565b6001600160a01b0382166104805760405163ec442f0560e01b815260006004820152602401610314565b6103a98383836105cc565b6001600160a01b0382166104b55760405163ec442f0560e01b815260006004820152602401610314565b610327600083836105cc565b6001600160a01b0382166104eb57604051634b637e8f60e11b815260006004820152602401610314565b610327826000836105cc565b6001600160a01b0384166105215760405163e602df0560e01b815260006004820152602401610314565b6001600160a01b03831661054b57604051634a1406b160e11b815260006004820152602401610314565b6001600160a01b038085166000908152600160209081526040808320938716835292905220829055801561042657826001600160a01b0316846001600160a01b03167f8c5be1e5ebec7d5bd14f71427d1e84f3dd0314c0f7b2291e5b200ac8c7c3b925846040516105be91815260200190565b60405180910390a350505050565b6001600160a01b0383166105f75780600260008282546105ec9190610856565b909155506106699050565b6001600160a01b0383166000908152602081905260409020548181101561064a5760405163391434e360e21b81526001600160a01b03851660048201526024810182905260448101839052606401610314565b6001600160a01b03841660009081526020819052604090209082900390555b6001600160a01b038216610685576002805482900390556106a4565b6001600160a01b03821660009081526020819052604090208054820190555b816001600160a01b0316836001600160a01b03167fddf252ad1be2c89b69c2b068fc378daa952ba7f163c4a11628f55a4df523b3ef836040516106e991815260200190565b60405180910390a3505050565b60006020808352835180602085015260005b8181101561072457858101830151858201604001528201610708565b506000604082860101526040601f19601f8301168501019250505092915050565b80356001600160a01b038116811461075c57600080fd5b919050565b6000806040838503121561077457600080fd5b61077d83610745565b946020939093013593505050565b6000806000606084860312156107a057600080fd5b6107a984610745565b92506107b760208501610745565b9150604084013590509250925092565b6000602082840312156107d957600080fd5b6107e282610745565b9392505050565b600080604083850312156107fc57600080fd5b61080583610745565b915061081360208401610745565b90509250929050565b600181811c9082168061083057607f821691505b60208210810361085057634e487b7160e01b600052602260045260246000fd5b50919050565b808201808211156102a457634e487b7160e01b600052601160045260246000fdfea2646970667358221220b416b0f5b27fcfb62ef442b9923ba12a28e9c3c344e38dc38d590383b4357ba064736f6c63430008190033","linkReferences":{}},"methodIdentifiers":{"allowance(address,address)":"dd62ed3e","approve(address,uint256)":"095ea7b3","balanceOf(address)":"70a08231","burnFrom(address,uint256)":"79cc6790","curve()":"7165485d","decimals()":"313ce567","mintTo(address,uint256)":"449a52f8","name()":"06fdde03","symbol()":"95d89b41","totalSupply()":"18160ddd","transfer(address,uint256)":"a9059cbb","transferFrom(address,address,uint256)":"23b872dd"},"id":30}